{
	"contracts/ManageFund.sol": {
		"TeamWallet": {
			"abi": [
				{
					"inputs": [],
					"stateMutability": "nonpayable",
					"type": "constructor"
				},
				{
					"inputs": [
						{
							"internalType": "uint256",
							"name": "n",
							"type": "uint256"
						}
					],
					"name": "approve",
					"outputs": [],
					"stateMutability": "nonpayable",
					"type": "function"
				},
				{
					"inputs": [],
					"name": "credits",
					"outputs": [
						{
							"internalType": "uint256",
							"name": "",
							"type": "uint256"
						}
					],
					"stateMutability": "view",
					"type": "function"
				},
				{
					"inputs": [],
					"name": "deployer",
					"outputs": [
						{
							"internalType": "address",
							"name": "",
							"type": "address"
						}
					],
					"stateMutability": "view",
					"type": "function"
				},
				{
					"inputs": [
						{
							"internalType": "uint256",
							"name": "n",
							"type": "uint256"
						}
					],
					"name": "reject",
					"outputs": [],
					"stateMutability": "nonpayable",
					"type": "function"
				},
				{
					"inputs": [
						{
							"internalType": "address[]",
							"name": "members",
							"type": "address[]"
						},
						{
							"internalType": "uint256",
							"name": "Credits",
							"type": "uint256"
						}
					],
					"name": "setWallet",
					"outputs": [],
					"stateMutability": "nonpayable",
					"type": "function"
				},
				{
					"inputs": [
						{
							"internalType": "uint256",
							"name": "amount",
							"type": "uint256"
						}
					],
					"name": "spend",
					"outputs": [],
					"stateMutability": "nonpayable",
					"type": "function"
				},
				{
					"inputs": [],
					"name": "totalCredits",
					"outputs": [
						{
							"internalType": "uint256",
							"name": "",
							"type": "uint256"
						}
					],
					"stateMutability": "view",
					"type": "function"
				},
				{
					"inputs": [],
					"name": "transactionStats",
					"outputs": [
						{
							"internalType": "uint256",
							"name": "debitedCount",
							"type": "uint256"
						},
						{
							"internalType": "uint256",
							"name": "pendingCount",
							"type": "uint256"
						},
						{
							"internalType": "uint256",
							"name": "failedCount",
							"type": "uint256"
						}
					],
					"stateMutability": "view",
					"type": "function"
				},
				{
					"inputs": [
						{
							"internalType": "uint256",
							"name": "",
							"type": "uint256"
						}
					],
					"name": "transactions",
					"outputs": [
						{
							"internalType": "address",
							"name": "sender",
							"type": "address"
						},
						{
							"internalType": "uint256",
							"name": "amount",
							"type": "uint256"
						},
						{
							"internalType": "bool",
							"name": "approved",
							"type": "bool"
						},
						{
							"internalType": "string",
							"name": "approvalStatus",
							"type": "string"
						}
					],
					"stateMutability": "view",
					"type": "function"
				},
				{
					"inputs": [
						{
							"internalType": "uint256",
							"name": "n",
							"type": "uint256"
						}
					],
					"name": "viewTransaction",
					"outputs": [
						{
							"internalType": "uint256",
							"name": "amount",
							"type": "uint256"
						},
						{
							"internalType": "string",
							"name": "status",
							"type": "string"
						}
					],
					"stateMutability": "view",
					"type": "function"
				},
				{
					"inputs": [],
					"name": "walletSet",
					"outputs": [
						{
							"internalType": "bool",
							"name": "",
							"type": "bool"
						}
					],
					"stateMutability": "view",
					"type": "function"
				},
				{
					"inputs": [
						{
							"internalType": "uint256",
							"name": "",
							"type": "uint256"
						}
					],
					"name": "winningMembers",
					"outputs": [
						{
							"internalType": "address",
							"name": "",
							"type": "address"
						}
					],
					"stateMutability": "view",
					"type": "function"
				}
			],
			"devdoc": {
				"kind": "dev",
				"methods": {},
				"version": 1
			},
			"evm": {
				"assembly": "    /* \"contracts/ManageFund.sol\":60:5495  contract TeamWallet {... */\n  mstore(0x40, 0x80)\n    /* \"contracts/ManageFund.sol\":139:144  false */\n  0x00\n    /* \"contracts/ManageFund.sol\":117:144  bool public walletSet=false */\n  dup1\n  exp(0x0100, 0x14)\n  dup2\n  sload\n  dup2\n  0xff\n  mul\n  not\n  and\n  swap1\n  dup4\n  iszero\n  iszero\n  mul\n  or\n  swap1\n  sstore\n  pop\n    /* \"contracts/ManageFund.sol\":512:569  constructor()... */\n  callvalue\n  dup1\n  iszero\n  tag_1\n  jumpi\n  0x00\n  dup1\n  revert\ntag_1:\n  pop\n    /* \"contracts/ManageFund.sol\":551:561  msg.sender */\n  caller\n    /* \"contracts/ManageFund.sol\":542:550  deployer */\n  0x00\n  dup1\n    /* \"contracts/ManageFund.sol\":542:561  deployer=msg.sender */\n  0x0100\n  exp\n  dup2\n  sload\n  dup2\n  0xffffffffffffffffffffffffffffffffffffffff\n  mul\n  not\n  and\n  swap1\n  dup4\n  0xffffffffffffffffffffffffffffffffffffffff\n  and\n  mul\n  or\n  swap1\n  sstore\n  pop\n    /* \"contracts/ManageFund.sol\":60:5495  contract TeamWallet {... */\n  dataSize(sub_0)\n  dup1\n  dataOffset(sub_0)\n  0x00\n  codecopy\n  0x00\n  return\nstop\n\nsub_0: assembly {\n        /* \"contracts/ManageFund.sol\":60:5495  contract TeamWallet {... */\n      mstore(0x40, 0x80)\n      callvalue\n      dup1\n      iszero\n      tag_1\n      jumpi\n      0x00\n      dup1\n      revert\n    tag_1:\n      pop\n      jumpi(tag_2, lt(calldatasize, 0x04))\n      shr(0xe0, calldataload(0x00))\n      dup1\n      0x9c86836b\n      gt\n      tag_15\n      jumpi\n      dup1\n      0x9c86836b\n      eq\n      tag_9\n      jumpi\n      dup1\n      0xb5bd3eb9\n      eq\n      tag_10\n      jumpi\n      dup1\n      0xb759f954\n      eq\n      tag_11\n      jumpi\n      dup1\n      0xb8adaa11\n      eq\n      tag_12\n      jumpi\n      dup1\n      0xca31ef54\n      eq\n      tag_13\n      jumpi\n      dup1\n      0xd5f39488\n      eq\n      tag_14\n      jumpi\n      jump(tag_2)\n    tag_15:\n      dup1\n      0x1dbf3bc7\n      eq\n      tag_3\n      jumpi\n      dup1\n      0x26540fd2\n      eq\n      tag_4\n      jumpi\n      dup1\n      0x301c10a4\n      eq\n      tag_5\n      jumpi\n      dup1\n      0x72f6bdd9\n      eq\n      tag_6\n      jumpi\n      dup1\n      0x8916d12c\n      eq\n      tag_7\n      jumpi\n      dup1\n      0x9ace38c2\n      eq\n      tag_8\n      jumpi\n    tag_2:\n      0x00\n      dup1\n      revert\n        /* \"contracts/ManageFund.sol\":1347:2088  function spend(uint256 amount) public {... */\n    tag_3:\n      tag_16\n      0x04\n      dup1\n      calldatasize\n      sub\n      dup2\n      add\n      swap1\n      tag_17\n      swap2\n      swap1\n      tag_18\n      jump\t// in\n    tag_17:\n      tag_19\n      jump\t// in\n    tag_16:\n      stop\n        /* \"contracts/ManageFund.sol\":4073:4160  function credits() public view returns (uint256) {... */\n    tag_4:\n      tag_20\n      tag_21\n      jump\t// in\n    tag_20:\n      mload(0x40)\n      tag_22\n      swap2\n      swap1\n      tag_23\n      jump\t// in\n    tag_22:\n      mload(0x40)\n      dup1\n      swap2\n      sub\n      swap1\n      return\n        /* \"contracts/ManageFund.sol\":4827:5492  function transactionStats() public view returns (uint debitedCount, uint pendingCount, uint failedCount) {... */\n    tag_5:\n      tag_24\n      tag_25\n      jump\t// in\n    tag_24:\n      mload(0x40)\n      tag_26\n      swap4\n      swap3\n      swap2\n      swap1\n      tag_27\n      jump\t// in\n    tag_26:\n      mload(0x40)\n      dup1\n      swap2\n      sub\n      swap1\n      return\n        /* \"contracts/ManageFund.sol\":117:144  bool public walletSet=false */\n    tag_6:\n      tag_28\n      tag_29\n      jump\t// in\n    tag_28:\n      mload(0x40)\n      tag_30\n      swap2\n      swap1\n      tag_31\n      jump\t// in\n    tag_30:\n      mload(0x40)\n      dup1\n      swap2\n      sub\n      swap1\n      return\n        /* \"contracts/ManageFund.sol\":4211:4821  function viewTransaction(uint256 n) public view returns (uint amount,string memory status){... */\n    tag_7:\n      tag_32\n      0x04\n      dup1\n      calldatasize\n      sub\n      dup2\n      add\n      swap1\n      tag_33\n      swap2\n      swap1\n      tag_18\n      jump\t// in\n    tag_33:\n      tag_34\n      jump\t// in\n    tag_32:\n      mload(0x40)\n      tag_35\n      swap3\n      swap2\n      swap1\n      tag_36\n      jump\t// in\n    tag_35:\n      mload(0x40)\n      dup1\n      swap2\n      sub\n      swap1\n      return\n        /* \"contracts/ManageFund.sol\":398:431  Transaction[] public transactions */\n    tag_8:\n      tag_37\n      0x04\n      dup1\n      calldatasize\n      sub\n      dup2\n      add\n      swap1\n      tag_38\n      swap2\n      swap1\n      tag_18\n      jump\t// in\n    tag_38:\n      tag_39\n      jump\t// in\n    tag_37:\n      mload(0x40)\n      tag_40\n      swap5\n      swap4\n      swap3\n      swap2\n      swap1\n      tag_41\n      jump\t// in\n    tag_40:\n      mload(0x40)\n      dup1\n      swap2\n      sub\n      swap1\n      return\n        /* \"contracts/ManageFund.sol\":610:1296  function setWallet(address[] memory members, uint256 Credits) public {... */\n    tag_9:\n      tag_42\n      0x04\n      dup1\n      calldatasize\n      sub\n      dup2\n      add\n      swap1\n      tag_43\n      swap2\n      swap1\n      tag_44\n      jump\t// in\n    tag_43:\n      tag_45\n      jump\t// in\n    tag_42:\n      stop\n        /* \"contracts/ManageFund.sol\":189:216  uint256 public totalCredits */\n    tag_10:\n      tag_46\n      tag_47\n      jump\t// in\n    tag_46:\n      mload(0x40)\n      tag_48\n      swap2\n      swap1\n      tag_23\n      jump\t// in\n    tag_48:\n      mload(0x40)\n      dup1\n      swap2\n      sub\n      swap1\n      return\n        /* \"contracts/ManageFund.sol\":2139:3198  function approve(uint256 n) public {... */\n    tag_11:\n      tag_49\n      0x04\n      dup1\n      calldatasize\n      sub\n      dup2\n      add\n      swap1\n      tag_50\n      swap2\n      swap1\n      tag_18\n      jump\t// in\n    tag_50:\n      tag_51\n      jump\t// in\n    tag_49:\n      stop\n        /* \"contracts/ManageFund.sol\":3249:4015  function reject(uint256 n) public {... */\n    tag_12:\n      tag_52\n      0x04\n      dup1\n      calldatasize\n      sub\n      dup2\n      add\n      swap1\n      tag_53\n      swap2\n      swap1\n      tag_18\n      jump\t// in\n    tag_53:\n      tag_54\n      jump\t// in\n    tag_52:\n      stop\n        /* \"contracts/ManageFund.sol\":151:182  address[] public winningMembers */\n    tag_13:\n      tag_55\n      0x04\n      dup1\n      calldatasize\n      sub\n      dup2\n      add\n      swap1\n      tag_56\n      swap2\n      swap1\n      tag_18\n      jump\t// in\n    tag_56:\n      tag_57\n      jump\t// in\n    tag_55:\n      mload(0x40)\n      tag_58\n      swap2\n      swap1\n      tag_59\n      jump\t// in\n    tag_58:\n      mload(0x40)\n      dup1\n      swap2\n      sub\n      swap1\n      return\n        /* \"contracts/ManageFund.sol\":87:110  address public deployer */\n    tag_14:\n      tag_60\n      tag_61\n      jump\t// in\n    tag_60:\n      mload(0x40)\n      tag_62\n      swap2\n      swap1\n      tag_59\n      jump\t// in\n    tag_62:\n      mload(0x40)\n      dup1\n      swap2\n      sub\n      swap1\n      return\n        /* \"contracts/ManageFund.sol\":1347:2088  function spend(uint256 amount) public {... */\n    tag_19:\n        /* \"contracts/ManageFund.sol\":1404:1413  walletSet */\n      0x00\n      0x14\n      swap1\n      sload\n      swap1\n      0x0100\n      exp\n      swap1\n      div\n      0xff\n      and\n        /* \"contracts/ManageFund.sol\":1396:1442  require(walletSet,\"The wallet is not set yet\") */\n      tag_64\n      jumpi\n      mload(0x40)\n      0x08c379a000000000000000000000000000000000000000000000000000000000\n      dup2\n      mstore\n      0x04\n      add\n      tag_65\n      swap1\n      tag_66\n      jump\t// in\n    tag_65:\n      mload(0x40)\n      dup1\n      swap2\n      sub\n      swap1\n      revert\n    tag_64:\n        /* \"contracts/ManageFund.sol\":1468:1469  0 */\n      0x00\n        /* \"contracts/ManageFund.sol\":1461:1467  amount */\n      dup2\n        /* \"contracts/ManageFund.sol\":1461:1469  amount>0 */\n      gt\n        /* \"contracts/ManageFund.sol\":1453:1508  require(amount>0,\"The amount should be greater than 0\") */\n      tag_67\n      jumpi\n      mload(0x40)\n      0x08c379a000000000000000000000000000000000000000000000000000000000\n      dup2\n      mstore\n      0x04\n      add\n      tag_68\n      swap1\n      tag_69\n      jump\t// in\n    tag_68:\n      mload(0x40)\n      dup1\n      swap2\n      sub\n      swap1\n      revert\n    tag_67:\n        /* \"contracts/ManageFund.sol\":1519:1536  bool isTeamMember */\n      0x00\n        /* \"contracts/ManageFund.sol\":1557:1566  uint256 i */\n      dup1\n        /* \"contracts/ManageFund.sol\":1553:1756  for(uint256 i=0;i<winningMembers.length;i++)... */\n    tag_70:\n        /* \"contracts/ManageFund.sol\":1571:1585  winningMembers */\n      0x01\n        /* \"contracts/ManageFund.sol\":1571:1592  winningMembers.length */\n      dup1\n      sload\n      swap1\n      pop\n        /* \"contracts/ManageFund.sol\":1569:1570  i */\n      dup2\n        /* \"contracts/ManageFund.sol\":1569:1592  i<winningMembers.length */\n      lt\n        /* \"contracts/ManageFund.sol\":1553:1756  for(uint256 i=0;i<winningMembers.length;i++)... */\n      iszero\n      tag_71\n      jumpi\n        /* \"contracts/ManageFund.sol\":1644:1654  msg.sender */\n      caller\n        /* \"contracts/ManageFund.sol\":1625:1654  winningMembers[i]==msg.sender */\n      0xffffffffffffffffffffffffffffffffffffffff\n      and\n        /* \"contracts/ManageFund.sol\":1625:1639  winningMembers */\n      0x01\n        /* \"contracts/ManageFund.sol\":1640:1641  i */\n      dup3\n        /* \"contracts/ManageFund.sol\":1625:1642  winningMembers[i] */\n      dup2\n      sload\n      dup2\n      lt\n      tag_73\n      jumpi\n      tag_74\n      tag_75\n      jump\t// in\n    tag_74:\n    tag_73:\n      swap1\n      0x00\n      mstore\n      keccak256(0x00, 0x20)\n      add\n      0x00\n      swap1\n      sload\n      swap1\n      0x0100\n      exp\n      swap1\n      div\n      0xffffffffffffffffffffffffffffffffffffffff\n      and\n        /* \"contracts/ManageFund.sol\":1625:1654  winningMembers[i]==msg.sender */\n      0xffffffffffffffffffffffffffffffffffffffff\n      and\n      sub\n        /* \"contracts/ManageFund.sol\":1622:1745  if(winningMembers[i]==msg.sender)... */\n      tag_77\n      jumpi\n        /* \"contracts/ManageFund.sol\":1701:1705  true */\n      0x01\n        /* \"contracts/ManageFund.sol\":1688:1705  isTeamMember=true */\n      swap2\n      pop\n        /* \"contracts/ManageFund.sol\":1724:1729  break */\n      jump(tag_71)\n        /* \"contracts/ManageFund.sol\":1622:1745  if(winningMembers[i]==msg.sender)... */\n    tag_77:\n        /* \"contracts/ManageFund.sol\":1593:1596  i++ */\n      dup1\n      dup1\n      tag_78\n      swap1\n      tag_79\n      jump\t// in\n    tag_78:\n      swap2\n      pop\n      pop\n        /* \"contracts/ManageFund.sol\":1553:1756  for(uint256 i=0;i<winningMembers.length;i++)... */\n      jump(tag_70)\n    tag_71:\n      pop\n        /* \"contracts/ManageFund.sol\":1774:1786  isTeamMember */\n      dup1\n        /* \"contracts/ManageFund.sol\":1766:1839  require(isTeamMember,\"the request can only be apporved by a team member\") */\n      tag_80\n      jumpi\n      mload(0x40)\n      0x08c379a000000000000000000000000000000000000000000000000000000000\n      dup2\n      mstore\n      0x04\n      add\n      tag_81\n      swap1\n      tag_82\n      jump\t// in\n    tag_81:\n      mload(0x40)\n      dup1\n      swap2\n      sub\n      swap1\n      revert\n    tag_80:\n        /* \"contracts/ManageFund.sol\":1850:1883  Transaction memory newTransaction */\n      0x00\n        /* \"contracts/ManageFund.sol\":1884:2036  Transaction({... */\n      mload(0x40)\n      dup1\n      0x80\n      add\n      0x40\n      mstore\n      dup1\n        /* \"contracts/ManageFund.sol\":1918:1928  msg.sender */\n      caller\n        /* \"contracts/ManageFund.sol\":1884:2036  Transaction({... */\n      0xffffffffffffffffffffffffffffffffffffffff\n      and\n      dup2\n      mstore\n      0x20\n      add\n        /* \"contracts/ManageFund.sol\":1950:1956  amount */\n      dup5\n        /* \"contracts/ManageFund.sol\":1884:2036  Transaction({... */\n      dup2\n      mstore\n      0x20\n      add\n        /* \"contracts/ManageFund.sol\":1980:1985  false */\n      0x00\n        /* \"contracts/ManageFund.sol\":1884:2036  Transaction({... */\n      iszero\n      iszero\n      dup2\n      mstore\n      0x20\n      add\n      mload(0x40)\n      dup1\n      0x40\n      add\n      0x40\n      mstore\n      dup1\n      0x07\n      dup2\n      mstore\n      0x20\n      add\n      0x70656e64696e6700000000000000000000000000000000000000000000000000\n      dup2\n      mstore\n      pop\n      dup2\n      mstore\n      pop\n        /* \"contracts/ManageFund.sol\":1850:2036  Transaction memory newTransaction=Transaction({... */\n      swap1\n      pop\n        /* \"contracts/ManageFund.sol\":2047:2059  transactions */\n      0x03\n        /* \"contracts/ManageFund.sol\":2065:2079  newTransaction */\n      dup2\n        /* \"contracts/ManageFund.sol\":2047:2080  transactions.push(newTransaction) */\n      swap1\n      dup1\n      0x01\n      dup2\n      sload\n      add\n      dup1\n      dup3\n      sstore\n      dup1\n      swap2\n      pop\n      pop\n      0x01\n      swap1\n      sub\n      swap1\n      0x00\n      mstore\n      keccak256(0x00, 0x20)\n      swap1\n      0x04\n      mul\n      add\n      0x00\n      swap1\n      swap2\n      swap1\n      swap2\n      swap1\n      swap2\n      pop\n      0x00\n      dup3\n      add\n      mload\n      dup2\n      0x00\n      add\n      exp(0x0100, 0x00)\n      dup2\n      sload\n      dup2\n      0xffffffffffffffffffffffffffffffffffffffff\n      mul\n      not\n      and\n      swap1\n      dup4\n      0xffffffffffffffffffffffffffffffffffffffff\n      and\n      mul\n      or\n      swap1\n      sstore\n      pop\n      0x20\n      dup3\n      add\n      mload\n      dup2\n      0x01\n      add\n      sstore\n      0x40\n      dup3\n      add\n      mload\n      dup2\n      0x02\n      add\n      exp(0x0100, 0x00)\n      dup2\n      sload\n      dup2\n      0xff\n      mul\n      not\n      and\n      swap1\n      dup4\n      iszero\n      iszero\n      mul\n      or\n      swap1\n      sstore\n      pop\n      0x60\n      dup3\n      add\n      mload\n      dup2\n      0x03\n      add\n      swap1\n      dup2\n      tag_84\n      swap2\n      swap1\n      tag_85\n      jump\t// in\n    tag_84:\n      pop\n      pop\n      pop\n        /* \"contracts/ManageFund.sol\":1385:2088  {... */\n      pop\n      pop\n        /* \"contracts/ManageFund.sol\":1347:2088  function spend(uint256 amount) public {... */\n      pop\n      jump\t// out\n        /* \"contracts/ManageFund.sol\":4073:4160  function credits() public view returns (uint256) {... */\n    tag_21:\n        /* \"contracts/ManageFund.sol\":4113:4120  uint256 */\n      0x00\n        /* \"contracts/ManageFund.sol\":4140:4152  totalCredits */\n      sload(0x02)\n        /* \"contracts/ManageFund.sol\":4133:4152  return totalCredits */\n      swap1\n      pop\n        /* \"contracts/ManageFund.sol\":4073:4160  function credits() public view returns (uint256) {... */\n      swap1\n      jump\t// out\n        /* \"contracts/ManageFund.sol\":4827:5492  function transactionStats() public view returns (uint debitedCount, uint pendingCount, uint failedCount) {... */\n    tag_25:\n        /* \"contracts/ManageFund.sol\":4876:4893  uint debitedCount */\n      0x00\n        /* \"contracts/ManageFund.sol\":4895:4912  uint pendingCount */\n      dup1\n        /* \"contracts/ManageFund.sol\":4914:4930  uint failedCount */\n      0x00\n        /* \"contracts/ManageFund.sol\":4958:4959  0 */\n      dup1\n        /* \"contracts/ManageFund.sol\":4943:4959  debitedCount = 0 */\n      swap3\n      pop\n        /* \"contracts/ManageFund.sol\":4985:4986  0 */\n      0x00\n        /* \"contracts/ManageFund.sol\":4970:4986  pendingCount = 0 */\n      swap2\n      pop\n        /* \"contracts/ManageFund.sol\":5011:5012  0 */\n      0x00\n        /* \"contracts/ManageFund.sol\":4997:5012  failedCount = 0 */\n      swap1\n      pop\n        /* \"contracts/ManageFund.sol\":5030:5039  uint256 i */\n      0x00\n        /* \"contracts/ManageFund.sol\":5025:5424  for (uint256 i = 0; i < transactions.length; i++) {... */\n    tag_88:\n        /* \"contracts/ManageFund.sol\":5049:5061  transactions */\n      0x03\n        /* \"contracts/ManageFund.sol\":5049:5068  transactions.length */\n      dup1\n      sload\n      swap1\n      pop\n        /* \"contracts/ManageFund.sol\":5045:5046  i */\n      dup2\n        /* \"contracts/ManageFund.sol\":5045:5068  i < transactions.length */\n      lt\n        /* \"contracts/ManageFund.sol\":5025:5424  for (uint256 i = 0; i < transactions.length; i++) {... */\n      iszero\n      tag_89\n      jumpi\n        /* \"contracts/ManageFund.sol\":5094:5106  transactions */\n      0x03\n        /* \"contracts/ManageFund.sol\":5107:5108  i */\n      dup2\n        /* \"contracts/ManageFund.sol\":5094:5109  transactions[i] */\n      dup2\n      sload\n      dup2\n      lt\n      tag_91\n      jumpi\n      tag_92\n      tag_75\n      jump\t// in\n    tag_92:\n    tag_91:\n      swap1\n      0x00\n      mstore\n      keccak256(0x00, 0x20)\n      swap1\n      0x04\n      mul\n      add\n        /* \"contracts/ManageFund.sol\":5094:5118  transactions[i].approved */\n      0x02\n      add\n      0x00\n      swap1\n      sload\n      swap1\n      0x0100\n      exp\n      swap1\n      div\n      0xff\n      and\n        /* \"contracts/ManageFund.sol\":5094:5222  transactions[i].approved && keccak256(abi.encodePacked(transactions[i].approvalStatus)) != keccak256(abi.encodePacked(\"failed\")) */\n      dup1\n      iszero\n      tag_94\n      jumpi\n      pop\n        /* \"contracts/ManageFund.sol\":5195:5221  abi.encodePacked(\"failed\") */\n      add(0x20, mload(0x40))\n      tag_95\n      swap1\n      tag_96\n      jump\t// in\n    tag_95:\n      mload(0x40)\n      0x20\n      dup2\n      dup4\n      sub\n      sub\n      dup2\n      mstore\n      swap1\n      0x40\n      mstore\n        /* \"contracts/ManageFund.sol\":5185:5222  keccak256(abi.encodePacked(\"failed\")) */\n      dup1\n      mload\n      swap1\n      0x20\n      add\n      keccak256\n        /* \"contracts/ManageFund.sol\":5149:5161  transactions */\n      0x03\n        /* \"contracts/ManageFund.sol\":5162:5163  i */\n      dup3\n        /* \"contracts/ManageFund.sol\":5149:5164  transactions[i] */\n      dup2\n      sload\n      dup2\n      lt\n      tag_97\n      jumpi\n      tag_98\n      tag_75\n      jump\t// in\n    tag_98:\n    tag_97:\n      swap1\n      0x00\n      mstore\n      keccak256(0x00, 0x20)\n      swap1\n      0x04\n      mul\n      add\n        /* \"contracts/ManageFund.sol\":5149:5179  transactions[i].approvalStatus */\n      0x03\n      add\n        /* \"contracts/ManageFund.sol\":5132:5180  abi.encodePacked(transactions[i].approvalStatus) */\n      add(0x20, mload(0x40))\n      tag_100\n      swap2\n      swap1\n      tag_101\n      jump\t// in\n    tag_100:\n      mload(0x40)\n      0x20\n      dup2\n      dup4\n      sub\n      sub\n      dup2\n      mstore\n      swap1\n      0x40\n      mstore\n        /* \"contracts/ManageFund.sol\":5122:5181  keccak256(abi.encodePacked(transactions[i].approvalStatus)) */\n      dup1\n      mload\n      swap1\n      0x20\n      add\n      keccak256\n        /* \"contracts/ManageFund.sol\":5122:5222  keccak256(abi.encodePacked(transactions[i].approvalStatus)) != keccak256(abi.encodePacked(\"failed\")) */\n      eq\n      iszero\n        /* \"contracts/ManageFund.sol\":5094:5222  transactions[i].approved && keccak256(abi.encodePacked(transactions[i].approvalStatus)) != keccak256(abi.encodePacked(\"failed\")) */\n    tag_94:\n        /* \"contracts/ManageFund.sol\":5090:5413  if (transactions[i].approved && keccak256(abi.encodePacked(transactions[i].approvalStatus)) != keccak256(abi.encodePacked(\"failed\"))) {... */\n      iszero\n      tag_102\n      jumpi\n        /* \"contracts/ManageFund.sol\":5243:5257  debitedCount++ */\n      dup4\n      dup1\n      tag_103\n      swap1\n      tag_79\n      jump\t// in\n    tag_103:\n      swap5\n      pop\n      pop\n        /* \"contracts/ManageFund.sol\":5090:5413  if (transactions[i].approved && keccak256(abi.encodePacked(transactions[i].approvalStatus)) != keccak256(abi.encodePacked(\"failed\"))) {... */\n      jump(tag_104)\n    tag_102:\n        /* \"contracts/ManageFund.sol\":5284:5296  transactions */\n      0x03\n        /* \"contracts/ManageFund.sol\":5297:5298  i */\n      dup2\n        /* \"contracts/ManageFund.sol\":5284:5299  transactions[i] */\n      dup2\n      sload\n      dup2\n      lt\n      tag_105\n      jumpi\n      tag_106\n      tag_75\n      jump\t// in\n    tag_106:\n    tag_105:\n      swap1\n      0x00\n      mstore\n      keccak256(0x00, 0x20)\n      swap1\n      0x04\n      mul\n      add\n        /* \"contracts/ManageFund.sol\":5284:5308  transactions[i].approved */\n      0x02\n      add\n      0x00\n      swap1\n      sload\n      swap1\n      0x0100\n      exp\n      swap1\n      div\n      0xff\n      and\n        /* \"contracts/ManageFund.sol\":5279:5413  if (!transactions[i].approved) {... */\n      tag_108\n      jumpi\n        /* \"contracts/ManageFund.sol\":5329:5343  pendingCount++ */\n      dup3\n      dup1\n      tag_109\n      swap1\n      tag_79\n      jump\t// in\n    tag_109:\n      swap4\n      pop\n      pop\n        /* \"contracts/ManageFund.sol\":5279:5413  if (!transactions[i].approved) {... */\n      jump(tag_110)\n    tag_108:\n        /* \"contracts/ManageFund.sol\":5384:5397  failedCount++ */\n      dup2\n      dup1\n      tag_111\n      swap1\n      tag_79\n      jump\t// in\n    tag_111:\n      swap3\n      pop\n      pop\n        /* \"contracts/ManageFund.sol\":5279:5413  if (!transactions[i].approved) {... */\n    tag_110:\n        /* \"contracts/ManageFund.sol\":5090:5413  if (transactions[i].approved && keccak256(abi.encodePacked(transactions[i].approvalStatus)) != keccak256(abi.encodePacked(\"failed\"))) {... */\n    tag_104:\n        /* \"contracts/ManageFund.sol\":5070:5073  i++ */\n      dup1\n      dup1\n      tag_112\n      swap1\n      tag_79\n      jump\t// in\n    tag_112:\n      swap2\n      pop\n      pop\n        /* \"contracts/ManageFund.sol\":5025:5424  for (uint256 i = 0; i < transactions.length; i++) {... */\n      jump(tag_88)\n    tag_89:\n      pop\n        /* \"contracts/ManageFund.sol\":4827:5492  function transactionStats() public view returns (uint debitedCount, uint pendingCount, uint failedCount) {... */\n      swap1\n      swap2\n      swap3\n      jump\t// out\n        /* \"contracts/ManageFund.sol\":117:144  bool public walletSet=false */\n    tag_29:\n      0x00\n      0x14\n      swap1\n      sload\n      swap1\n      0x0100\n      exp\n      swap1\n      div\n      0xff\n      and\n      dup2\n      jump\t// out\n        /* \"contracts/ManageFund.sol\":4211:4821  function viewTransaction(uint256 n) public view returns (uint amount,string memory status){... */\n    tag_34:\n        /* \"contracts/ManageFund.sol\":4268:4279  uint amount */\n      0x00\n        /* \"contracts/ManageFund.sol\":4280:4300  string memory status */\n      0x60\n        /* \"contracts/ManageFund.sol\":4322:4334  transactions */\n      0x03\n        /* \"contracts/ManageFund.sol\":4322:4341  transactions.length */\n      dup1\n      sload\n      swap1\n      pop\n        /* \"contracts/ManageFund.sol\":4320:4321  n */\n      dup4\n        /* \"contracts/ManageFund.sol\":4320:4341  n<transactions.length */\n      lt\n        /* \"contracts/ManageFund.sol\":4312:4370  require(n<transactions.length,\"Inavlid transaction index\") */\n      tag_114\n      jumpi\n      mload(0x40)\n      0x08c379a000000000000000000000000000000000000000000000000000000000\n      dup2\n      mstore\n      0x04\n      add\n      tag_115\n      swap1\n      tag_116\n      jump\t// in\n    tag_115:\n      mload(0x40)\n      dup1\n      swap2\n      sub\n      swap1\n      revert\n    tag_114:\n        /* \"contracts/ManageFund.sol\":4383:4414  Transaction storage transaction */\n      0x00\n        /* \"contracts/ManageFund.sol\":4415:4427  transactions */\n      0x03\n        /* \"contracts/ManageFund.sol\":4428:4429  n */\n      dup5\n        /* \"contracts/ManageFund.sol\":4415:4430  transactions[n] */\n      dup2\n      sload\n      dup2\n      lt\n      tag_117\n      jumpi\n      tag_118\n      tag_75\n      jump\t// in\n    tag_118:\n    tag_117:\n      swap1\n      0x00\n      mstore\n      keccak256(0x00, 0x20)\n      swap1\n      0x04\n      mul\n      add\n        /* \"contracts/ManageFund.sol\":4383:4430  Transaction storage transaction=transactions[n] */\n      swap1\n      pop\n        /* \"contracts/ManageFund.sol\":4444:4455  transaction */\n      dup1\n        /* \"contracts/ManageFund.sol\":4444:4464  transaction.approved */\n      0x02\n      add\n      0x00\n      swap1\n      sload\n      swap1\n      0x0100\n      exp\n      swap1\n      div\n      0xff\n      and\n        /* \"contracts/ManageFund.sol\":4444:4566  transaction.approved&&keccak256(abi.encodePacked(transactions[n].approvalStatus)) != keccak256(abi.encodePacked(\"failed\")) */\n      dup1\n      iszero\n      tag_120\n      jumpi\n      pop\n        /* \"contracts/ManageFund.sol\":4539:4565  abi.encodePacked(\"failed\") */\n      add(0x20, mload(0x40))\n      tag_121\n      swap1\n      tag_96\n      jump\t// in\n    tag_121:\n      mload(0x40)\n      0x20\n      dup2\n      dup4\n      sub\n      sub\n      dup2\n      mstore\n      swap1\n      0x40\n      mstore\n        /* \"contracts/ManageFund.sol\":4529:4566  keccak256(abi.encodePacked(\"failed\")) */\n      dup1\n      mload\n      swap1\n      0x20\n      add\n      keccak256\n        /* \"contracts/ManageFund.sol\":4493:4505  transactions */\n      0x03\n        /* \"contracts/ManageFund.sol\":4506:4507  n */\n      dup6\n        /* \"contracts/ManageFund.sol\":4493:4508  transactions[n] */\n      dup2\n      sload\n      dup2\n      lt\n      tag_122\n      jumpi\n      tag_123\n      tag_75\n      jump\t// in\n    tag_123:\n    tag_122:\n      swap1\n      0x00\n      mstore\n      keccak256(0x00, 0x20)\n      swap1\n      0x04\n      mul\n      add\n        /* \"contracts/ManageFund.sol\":4493:4523  transactions[n].approvalStatus */\n      0x03\n      add\n        /* \"contracts/ManageFund.sol\":4476:4524  abi.encodePacked(transactions[n].approvalStatus) */\n      add(0x20, mload(0x40))\n      tag_125\n      swap2\n      swap1\n      tag_101\n      jump\t// in\n    tag_125:\n      mload(0x40)\n      0x20\n      dup2\n      dup4\n      sub\n      sub\n      dup2\n      mstore\n      swap1\n      0x40\n      mstore\n        /* \"contracts/ManageFund.sol\":4466:4525  keccak256(abi.encodePacked(transactions[n].approvalStatus)) */\n      dup1\n      mload\n      swap1\n      0x20\n      add\n      keccak256\n        /* \"contracts/ManageFund.sol\":4466:4566  keccak256(abi.encodePacked(transactions[n].approvalStatus)) != keccak256(abi.encodePacked(\"failed\")) */\n      eq\n      iszero\n        /* \"contracts/ManageFund.sol\":4444:4566  transaction.approved&&keccak256(abi.encodePacked(transactions[n].approvalStatus)) != keccak256(abi.encodePacked(\"failed\")) */\n    tag_120:\n        /* \"contracts/ManageFund.sol\":4441:4769  if(transaction.approved&&keccak256(abi.encodePacked(transactions[n].approvalStatus)) != keccak256(abi.encodePacked(\"failed\")))... */\n      iszero\n      tag_126\n      jumpi\n        /* \"contracts/ManageFund.sol\":4592:4608  status=\"debited\" */\n      mload(0x40)\n      dup1\n      0x40\n      add\n      0x40\n      mstore\n      dup1\n      0x07\n      dup2\n      mstore\n      0x20\n      add\n      0x6465626974656400000000000000000000000000000000000000000000000000\n      dup2\n      mstore\n      pop\n      swap2\n      pop\n        /* \"contracts/ManageFund.sol\":4441:4769  if(transaction.approved&&keccak256(abi.encodePacked(transactions[n].approvalStatus)) != keccak256(abi.encodePacked(\"failed\")))... */\n      jump(tag_127)\n    tag_126:\n        /* \"contracts/ManageFund.sol\":4639:4650  transaction */\n      dup1\n        /* \"contracts/ManageFund.sol\":4639:4659  transaction.approved */\n      0x02\n      add\n      0x00\n      swap1\n      sload\n      swap1\n      0x0100\n      exp\n      swap1\n      div\n      0xff\n      and\n        /* \"contracts/ManageFund.sol\":4635:4769  if(!transaction.approved)... */\n      tag_128\n      jumpi\n        /* \"contracts/ManageFund.sol\":4685:4701  status=\"pending\" */\n      mload(0x40)\n      dup1\n      0x40\n      add\n      0x40\n      mstore\n      dup1\n      0x07\n      dup2\n      mstore\n      0x20\n      add\n      0x70656e64696e6700000000000000000000000000000000000000000000000000\n      dup2\n      mstore\n      pop\n      swap2\n      pop\n        /* \"contracts/ManageFund.sol\":4635:4769  if(!transaction.approved)... */\n      jump(tag_129)\n    tag_128:\n        /* \"contracts/ManageFund.sol\":4742:4757  status=\"failed\" */\n      mload(0x40)\n      dup1\n      0x40\n      add\n      0x40\n      mstore\n      dup1\n      0x06\n      dup2\n      mstore\n      0x20\n      add\n      0x6661696c65640000000000000000000000000000000000000000000000000000\n      dup2\n      mstore\n      pop\n      swap2\n      pop\n        /* \"contracts/ManageFund.sol\":4635:4769  if(!transaction.approved)... */\n    tag_129:\n        /* \"contracts/ManageFund.sol\":4441:4769  if(transaction.approved&&keccak256(abi.encodePacked(transactions[n].approvalStatus)) != keccak256(abi.encodePacked(\"failed\")))... */\n    tag_127:\n        /* \"contracts/ManageFund.sol\":4787:4798  transaction */\n      dup1\n        /* \"contracts/ManageFund.sol\":4787:4805  transaction.amount */\n      0x01\n      add\n      sload\n        /* \"contracts/ManageFund.sol\":4779:4813  return (transaction.amount,status) */\n      swap3\n      pop\n      pop\n        /* \"contracts/ManageFund.sol\":4211:4821  function viewTransaction(uint256 n) public view returns (uint amount,string memory status){... */\n      swap2\n      pop\n      swap2\n      jump\t// out\n        /* \"contracts/ManageFund.sol\":398:431  Transaction[] public transactions */\n    tag_39:\n      0x03\n      dup2\n      dup2\n      sload\n      dup2\n      lt\n      tag_130\n      jumpi\n      0x00\n      dup1\n      revert\n    tag_130:\n      swap1\n      0x00\n      mstore\n      keccak256(0x00, 0x20)\n      swap1\n      0x04\n      mul\n      add\n      0x00\n      swap2\n      pop\n      swap1\n      pop\n      dup1\n      0x00\n      add\n      0x00\n      swap1\n      sload\n      swap1\n      0x0100\n      exp\n      swap1\n      div\n      0xffffffffffffffffffffffffffffffffffffffff\n      and\n      swap1\n      dup1\n      0x01\n      add\n      sload\n      swap1\n      dup1\n      0x02\n      add\n      0x00\n      swap1\n      sload\n      swap1\n      0x0100\n      exp\n      swap1\n      div\n      0xff\n      and\n      swap1\n      dup1\n      0x03\n      add\n      dup1\n      sload\n      tag_132\n      swap1\n      tag_133\n      jump\t// in\n    tag_132:\n      dup1\n      0x1f\n      add\n      0x20\n      dup1\n      swap2\n      div\n      mul\n      0x20\n      add\n      mload(0x40)\n      swap1\n      dup2\n      add\n      0x40\n      mstore\n      dup1\n      swap3\n      swap2\n      swap1\n      dup2\n      dup2\n      mstore\n      0x20\n      add\n      dup3\n      dup1\n      sload\n      tag_134\n      swap1\n      tag_133\n      jump\t// in\n    tag_134:\n      dup1\n      iszero\n      tag_135\n      jumpi\n      dup1\n      0x1f\n      lt\n      tag_136\n      jumpi\n      0x0100\n      dup1\n      dup4\n      sload\n      div\n      mul\n      dup4\n      mstore\n      swap2\n      0x20\n      add\n      swap2\n      jump(tag_135)\n    tag_136:\n      dup3\n      add\n      swap2\n      swap1\n      0x00\n      mstore\n      keccak256(0x00, 0x20)\n      swap1\n    tag_137:\n      dup2\n      sload\n      dup2\n      mstore\n      swap1\n      0x01\n      add\n      swap1\n      0x20\n      add\n      dup1\n      dup4\n      gt\n      tag_137\n      jumpi\n      dup3\n      swap1\n      sub\n      0x1f\n      and\n      dup3\n      add\n      swap2\n    tag_135:\n      pop\n      pop\n      pop\n      pop\n      pop\n      swap1\n      pop\n      dup5\n      jump\t// out\n        /* \"contracts/ManageFund.sol\":610:1296  function setWallet(address[] memory members, uint256 Credits) public {... */\n    tag_45:\n        /* \"contracts/ManageFund.sol\":713:714  0 */\n      0x00\n        /* \"contracts/ManageFund.sol\":698:705  members */\n      dup3\n        /* \"contracts/ManageFund.sol\":698:712  members.length */\n      mload\n        /* \"contracts/ManageFund.sol\":698:714  members.length>0 */\n      gt\n        /* \"contracts/ManageFund.sol\":690:748  require(members.length>0,\"The member should not be empty\") */\n      tag_139\n      jumpi\n      mload(0x40)\n      0x08c379a000000000000000000000000000000000000000000000000000000000\n      dup2\n      mstore\n      0x04\n      add\n      tag_140\n      swap1\n      tag_141\n      jump\t// in\n    tag_140:\n      mload(0x40)\n      dup1\n      swap2\n      sub\n      swap1\n      revert\n    tag_139:\n        /* \"contracts/ManageFund.sol\":775:776  0 */\n      0x00\n        /* \"contracts/ManageFund.sol\":767:774  Credits */\n      dup2\n        /* \"contracts/ManageFund.sol\":767:776  Credits>0 */\n      gt\n        /* \"contracts/ManageFund.sol\":759:824  require(Credits>0,\"The winning credits should be greater than 0\") */\n      tag_142\n      jumpi\n      mload(0x40)\n      0x08c379a000000000000000000000000000000000000000000000000000000000\n      dup2\n      mstore\n      0x04\n      add\n      tag_143\n      swap1\n      tag_144\n      jump\t// in\n    tag_143:\n      mload(0x40)\n      dup1\n      swap2\n      sub\n      swap1\n      revert\n    tag_142:\n        /* \"contracts/ManageFund.sol\":835:858  bool deployerNotAMember */\n      0x00\n        /* \"contracts/ManageFund.sol\":859:863  true */\n      0x01\n        /* \"contracts/ManageFund.sol\":835:863  bool deployerNotAMember=true */\n      swap1\n      pop\n        /* \"contracts/ManageFund.sol\":878:887  uint256 i */\n      0x00\n        /* \"contracts/ManageFund.sol\":874:1044  for(uint256 i=0;i<members.length;i++)... */\n    tag_145:\n        /* \"contracts/ManageFund.sol\":892:899  members */\n      dup4\n        /* \"contracts/ManageFund.sol\":892:906  members.length */\n      mload\n        /* \"contracts/ManageFund.sol\":890:891  i */\n      dup2\n        /* \"contracts/ManageFund.sol\":890:906  i<members.length */\n      lt\n        /* \"contracts/ManageFund.sol\":874:1044  for(uint256 i=0;i<members.length;i++)... */\n      iszero\n      tag_146\n      jumpi\n        /* \"contracts/ManageFund.sol\":951:959  deployer */\n      0x00\n      dup1\n      sload\n      swap1\n      0x0100\n      exp\n      swap1\n      div\n      0xffffffffffffffffffffffffffffffffffffffff\n      and\n        /* \"contracts/ManageFund.sol\":939:959  members[i]==deployer */\n      0xffffffffffffffffffffffffffffffffffffffff\n      and\n        /* \"contracts/ManageFund.sol\":939:946  members */\n      dup5\n        /* \"contracts/ManageFund.sol\":947:948  i */\n      dup3\n        /* \"contracts/ManageFund.sol\":939:949  members[i] */\n      dup2\n      mload\n      dup2\n      lt\n      tag_148\n      jumpi\n      tag_149\n      tag_75\n      jump\t// in\n    tag_149:\n    tag_148:\n      0x20\n      mul\n      0x20\n      add\n      add\n      mload\n        /* \"contracts/ManageFund.sol\":939:959  members[i]==deployer */\n      0xffffffffffffffffffffffffffffffffffffffff\n      and\n      sub\n        /* \"contracts/ManageFund.sol\":936:1033  if(members[i]==deployer)... */\n      tag_150\n      jumpi\n        /* \"contracts/ManageFund.sol\":1012:1017  false */\n      0x00\n        /* \"contracts/ManageFund.sol\":993:1017  deployerNotAMember=false */\n      swap2\n      pop\n        /* \"contracts/ManageFund.sol\":936:1033  if(members[i]==deployer)... */\n    tag_150:\n        /* \"contracts/ManageFund.sol\":907:910  i++ */\n      dup1\n      dup1\n      tag_151\n      swap1\n      tag_79\n      jump\t// in\n    tag_151:\n      swap2\n      pop\n      pop\n        /* \"contracts/ManageFund.sol\":874:1044  for(uint256 i=0;i<members.length;i++)... */\n      jump(tag_145)\n    tag_146:\n      pop\n        /* \"contracts/ManageFund.sol\":1062:1080  deployerNotAMember */\n      dup1\n        /* \"contracts/ManageFund.sol\":1054:1120  require(deployerNotAMember,\"The deployer should not be a memeber\") */\n      tag_152\n      jumpi\n      mload(0x40)\n      0x08c379a000000000000000000000000000000000000000000000000000000000\n      dup2\n      mstore\n      0x04\n      add\n      tag_153\n      swap1\n      tag_154\n      jump\t// in\n    tag_153:\n      mload(0x40)\n      dup1\n      swap2\n      sub\n      swap1\n      revert\n    tag_152:\n        /* \"contracts/ManageFund.sol\":1150:1155  false */\n      0x00\n        /* \"contracts/ManageFund.sol\":1139:1155  walletSet==false */\n      iszero\n      iszero\n        /* \"contracts/ManageFund.sol\":1139:1148  walletSet */\n      0x00\n      0x14\n      swap1\n      sload\n      swap1\n      0x0100\n      exp\n      swap1\n      div\n      0xff\n      and\n        /* \"contracts/ManageFund.sol\":1139:1155  walletSet==false */\n      iszero\n      iszero\n      eq\n        /* \"contracts/ManageFund.sol\":1131:1199  require(walletSet==false,\"The wallet is already set cant set again\") */\n      tag_155\n      jumpi\n      mload(0x40)\n      0x08c379a000000000000000000000000000000000000000000000000000000000\n      dup2\n      mstore\n      0x04\n      add\n      tag_156\n      swap1\n      tag_157\n      jump\t// in\n    tag_156:\n      mload(0x40)\n      dup1\n      swap2\n      sub\n      swap1\n      revert\n    tag_155:\n        /* \"contracts/ManageFund.sol\":1225:1232  members */\n      dup3\n        /* \"contracts/ManageFund.sol\":1210:1224  winningMembers */\n      0x01\n        /* \"contracts/ManageFund.sol\":1210:1232  winningMembers=members */\n      swap1\n      dup1\n      mload\n      swap1\n      0x20\n      add\n      swap1\n      tag_158\n      swap3\n      swap2\n      swap1\n      tag_159\n      jump\t// in\n    tag_158:\n      pop\n        /* \"contracts/ManageFund.sol\":1256:1263  Credits */\n      dup2\n        /* \"contracts/ManageFund.sol\":1243:1255  totalCredits */\n      0x02\n        /* \"contracts/ManageFund.sol\":1243:1263  totalCredits=Credits */\n      dup2\n      swap1\n      sstore\n      pop\n        /* \"contracts/ManageFund.sol\":1284:1288  true */\n      0x01\n        /* \"contracts/ManageFund.sol\":1274:1283  walletSet */\n      0x00\n      0x14\n        /* \"contracts/ManageFund.sol\":1274:1288  walletSet=true */\n      0x0100\n      exp\n      dup2\n      sload\n      dup2\n      0xff\n      mul\n      not\n      and\n      swap1\n      dup4\n      iszero\n      iszero\n      mul\n      or\n      swap1\n      sstore\n      pop\n        /* \"contracts/ManageFund.sol\":679:1296  {... */\n      pop\n        /* \"contracts/ManageFund.sol\":610:1296  function setWallet(address[] memory members, uint256 Credits) public {... */\n      pop\n      pop\n      jump\t// out\n        /* \"contracts/ManageFund.sol\":189:216  uint256 public totalCredits */\n    tag_47:\n      sload(0x02)\n      dup2\n      jump\t// out\n        /* \"contracts/ManageFund.sol\":2139:3198  function approve(uint256 n) public {... */\n    tag_51:\n        /* \"contracts/ManageFund.sol\":2192:2201  walletSet */\n      0x00\n      0x14\n      swap1\n      sload\n      swap1\n      0x0100\n      exp\n      swap1\n      div\n      0xff\n      and\n        /* \"contracts/ManageFund.sol\":2184:2222  require(walletSet,\"Wallet is not set\") */\n      tag_161\n      jumpi\n      mload(0x40)\n      0x08c379a000000000000000000000000000000000000000000000000000000000\n      dup2\n      mstore\n      0x04\n      add\n      tag_162\n      swap1\n      tag_163\n      jump\t// in\n    tag_162:\n      mload(0x40)\n      dup1\n      swap2\n      sub\n      swap1\n      revert\n    tag_161:\n        /* \"contracts/ManageFund.sol\":2242:2254  transactions */\n      0x03\n        /* \"contracts/ManageFund.sol\":2242:2261  transactions.length */\n      dup1\n      sload\n      swap1\n      pop\n        /* \"contracts/ManageFund.sol\":2240:2241  n */\n      dup2\n        /* \"contracts/ManageFund.sol\":2240:2261  n<transactions.length */\n      lt\n        /* \"contracts/ManageFund.sol\":2232:2284  require(n<transactions.length,\"Invalid transaction\") */\n      tag_164\n      jumpi\n      mload(0x40)\n      0x08c379a000000000000000000000000000000000000000000000000000000000\n      dup2\n      mstore\n      0x04\n      add\n      tag_165\n      swap1\n      tag_166\n      jump\t// in\n    tag_165:\n      mload(0x40)\n      dup1\n      swap2\n      sub\n      swap1\n      revert\n    tag_164:\n        /* \"contracts/ManageFund.sol\":2294:2311  bool isTeamMember */\n      0x00\n        /* \"contracts/ManageFund.sol\":2331:2340  uint256 i */\n      dup1\n        /* \"contracts/ManageFund.sol\":2327:2508  for(uint256 i=0;i<winningMembers.length;i++)... */\n    tag_167:\n        /* \"contracts/ManageFund.sol\":2345:2359  winningMembers */\n      0x01\n        /* \"contracts/ManageFund.sol\":2345:2366  winningMembers.length */\n      dup1\n      sload\n      swap1\n      pop\n        /* \"contracts/ManageFund.sol\":2343:2344  i */\n      dup2\n        /* \"contracts/ManageFund.sol\":2343:2366  i<winningMembers.length */\n      lt\n        /* \"contracts/ManageFund.sol\":2327:2508  for(uint256 i=0;i<winningMembers.length;i++)... */\n      iszero\n      tag_168\n      jumpi\n        /* \"contracts/ManageFund.sol\":2413:2423  msg.sender */\n      caller\n        /* \"contracts/ManageFund.sol\":2394:2423  winningMembers[i]==msg.sender */\n      0xffffffffffffffffffffffffffffffffffffffff\n      and\n        /* \"contracts/ManageFund.sol\":2394:2408  winningMembers */\n      0x01\n        /* \"contracts/ManageFund.sol\":2409:2410  i */\n      dup3\n        /* \"contracts/ManageFund.sol\":2394:2411  winningMembers[i] */\n      dup2\n      sload\n      dup2\n      lt\n      tag_170\n      jumpi\n      tag_171\n      tag_75\n      jump\t// in\n    tag_171:\n    tag_170:\n      swap1\n      0x00\n      mstore\n      keccak256(0x00, 0x20)\n      add\n      0x00\n      swap1\n      sload\n      swap1\n      0x0100\n      exp\n      swap1\n      div\n      0xffffffffffffffffffffffffffffffffffffffff\n      and\n        /* \"contracts/ManageFund.sol\":2394:2423  winningMembers[i]==msg.sender */\n      0xffffffffffffffffffffffffffffffffffffffff\n      and\n      sub\n        /* \"contracts/ManageFund.sol\":2391:2498  if(winningMembers[i]==msg.sender)... */\n      tag_173\n      jumpi\n        /* \"contracts/ManageFund.sol\":2462:2466  true */\n      0x01\n        /* \"contracts/ManageFund.sol\":2449:2466  isTeamMember=true */\n      swap2\n      pop\n        /* \"contracts/ManageFund.sol\":2481:2486  break */\n      jump(tag_168)\n        /* \"contracts/ManageFund.sol\":2391:2498  if(winningMembers[i]==msg.sender)... */\n    tag_173:\n        /* \"contracts/ManageFund.sol\":2367:2370  i++ */\n      dup1\n      dup1\n      tag_174\n      swap1\n      tag_79\n      jump\t// in\n    tag_174:\n      swap2\n      pop\n      pop\n        /* \"contracts/ManageFund.sol\":2327:2508  for(uint256 i=0;i<winningMembers.length;i++)... */\n      jump(tag_167)\n    tag_168:\n      pop\n        /* \"contracts/ManageFund.sol\":2526:2538  isTeamMember */\n      dup1\n        /* \"contracts/ManageFund.sol\":2518:2583  require(isTeamMember,\"Only winning team members can be approved\") */\n      tag_175\n      jumpi\n      mload(0x40)\n      0x08c379a000000000000000000000000000000000000000000000000000000000\n      dup2\n      mstore\n      0x04\n      add\n      tag_176\n      swap1\n      tag_177\n      jump\t// in\n    tag_176:\n      mload(0x40)\n      dup1\n      swap2\n      sub\n      swap1\n      revert\n    tag_175:\n        /* \"contracts/ManageFund.sol\":2675:2702  abi.encodePacked(\"debited\") */\n      add(0x20, mload(0x40))\n      tag_178\n      swap1\n      tag_179\n      jump\t// in\n    tag_178:\n      mload(0x40)\n      0x20\n      dup2\n      dup4\n      sub\n      sub\n      dup2\n      mstore\n      swap1\n      0x40\n      mstore\n        /* \"contracts/ManageFund.sol\":2665:2703  keccak256(abi.encodePacked(\"debited\")) */\n      dup1\n      mload\n      swap1\n      0x20\n      add\n      keccak256\n        /* \"contracts/ManageFund.sol\":2629:2641  transactions */\n      0x03\n        /* \"contracts/ManageFund.sol\":2642:2643  n */\n      dup4\n        /* \"contracts/ManageFund.sol\":2629:2644  transactions[n] */\n      dup2\n      sload\n      dup2\n      lt\n      tag_180\n      jumpi\n      tag_181\n      tag_75\n      jump\t// in\n    tag_181:\n    tag_180:\n      swap1\n      0x00\n      mstore\n      keccak256(0x00, 0x20)\n      swap1\n      0x04\n      mul\n      add\n        /* \"contracts/ManageFund.sol\":2629:2659  transactions[n].approvalStatus */\n      0x03\n      add\n        /* \"contracts/ManageFund.sol\":2612:2660  abi.encodePacked(transactions[n].approvalStatus) */\n      add(0x20, mload(0x40))\n      tag_183\n      swap2\n      swap1\n      tag_101\n      jump\t// in\n    tag_183:\n      mload(0x40)\n      0x20\n      dup2\n      dup4\n      sub\n      sub\n      dup2\n      mstore\n      swap1\n      0x40\n      mstore\n        /* \"contracts/ManageFund.sol\":2602:2661  keccak256(abi.encodePacked(transactions[n].approvalStatus)) */\n      dup1\n      mload\n      swap1\n      0x20\n      add\n      keccak256\n        /* \"contracts/ManageFund.sol\":2602:2703  keccak256(abi.encodePacked(transactions[n].approvalStatus)) == keccak256(abi.encodePacked(\"debited\")) */\n      eq\n        /* \"contracts/ManageFund.sol\":2602:2809  keccak256(abi.encodePacked(transactions[n].approvalStatus)) == keccak256(abi.encodePacked(\"debited\")) || keccak256(abi.encodePacked(transactions[n].approvalStatus)) == keccak256(abi.encodePacked(\"rejected\")) */\n      dup1\n      tag_184\n      jumpi\n      pop\n        /* \"contracts/ManageFund.sol\":2780:2808  abi.encodePacked(\"rejected\") */\n      add(0x20, mload(0x40))\n      tag_185\n      swap1\n      tag_186\n      jump\t// in\n    tag_185:\n      mload(0x40)\n      0x20\n      dup2\n      dup4\n      sub\n      sub\n      dup2\n      mstore\n      swap1\n      0x40\n      mstore\n        /* \"contracts/ManageFund.sol\":2770:2809  keccak256(abi.encodePacked(\"rejected\")) */\n      dup1\n      mload\n      swap1\n      0x20\n      add\n      keccak256\n        /* \"contracts/ManageFund.sol\":2734:2746  transactions */\n      0x03\n        /* \"contracts/ManageFund.sol\":2747:2748  n */\n      dup4\n        /* \"contracts/ManageFund.sol\":2734:2749  transactions[n] */\n      dup2\n      sload\n      dup2\n      lt\n      tag_187\n      jumpi\n      tag_188\n      tag_75\n      jump\t// in\n    tag_188:\n    tag_187:\n      swap1\n      0x00\n      mstore\n      keccak256(0x00, 0x20)\n      swap1\n      0x04\n      mul\n      add\n        /* \"contracts/ManageFund.sol\":2734:2764  transactions[n].approvalStatus */\n      0x03\n      add\n        /* \"contracts/ManageFund.sol\":2717:2765  abi.encodePacked(transactions[n].approvalStatus) */\n      add(0x20, mload(0x40))\n      tag_190\n      swap2\n      swap1\n      tag_101\n      jump\t// in\n    tag_190:\n      mload(0x40)\n      0x20\n      dup2\n      dup4\n      sub\n      sub\n      dup2\n      mstore\n      swap1\n      0x40\n      mstore\n        /* \"contracts/ManageFund.sol\":2707:2766  keccak256(abi.encodePacked(transactions[n].approvalStatus)) */\n      dup1\n      mload\n      swap1\n      0x20\n      add\n      keccak256\n        /* \"contracts/ManageFund.sol\":2707:2809  keccak256(abi.encodePacked(transactions[n].approvalStatus)) == keccak256(abi.encodePacked(\"rejected\")) */\n      eq\n        /* \"contracts/ManageFund.sol\":2602:2809  keccak256(abi.encodePacked(transactions[n].approvalStatus)) == keccak256(abi.encodePacked(\"debited\")) || keccak256(abi.encodePacked(transactions[n].approvalStatus)) == keccak256(abi.encodePacked(\"rejected\")) */\n    tag_184:\n        /* \"contracts/ManageFund.sol\":2593:2846  require((keccak256(abi.encodePacked(transactions[n].approvalStatus)) == keccak256(abi.encodePacked(\"debited\")) || keccak256(abi.encodePacked(transactions[n].approvalStatus)) == keccak256(abi.encodePacked(\"rejected\"))), \"Transaction cannot be processed\") */\n      tag_191\n      jumpi\n      mload(0x40)\n      0x08c379a000000000000000000000000000000000000000000000000000000000\n      dup2\n      mstore\n      0x04\n      add\n      tag_192\n      swap1\n      tag_193\n      jump\t// in\n    tag_192:\n      mload(0x40)\n      dup1\n      swap2\n      sub\n      swap1\n      revert\n    tag_191:\n        /* \"contracts/ManageFund.sol\":2881:2885  true */\n      0x01\n        /* \"contracts/ManageFund.sol\":2856:2868  transactions */\n      0x03\n        /* \"contracts/ManageFund.sol\":2869:2870  n */\n      dup4\n        /* \"contracts/ManageFund.sol\":2856:2871  transactions[n] */\n      dup2\n      sload\n      dup2\n      lt\n      tag_194\n      jumpi\n      tag_195\n      tag_75\n      jump\t// in\n    tag_195:\n    tag_194:\n      swap1\n      0x00\n      mstore\n      keccak256(0x00, 0x20)\n      swap1\n      0x04\n      mul\n      add\n        /* \"contracts/ManageFund.sol\":2856:2880  transactions[n].approved */\n      0x02\n      add\n      0x00\n        /* \"contracts/ManageFund.sol\":2856:2885  transactions[n].approved=true */\n      0x0100\n      exp\n      dup2\n      sload\n      dup2\n      0xff\n      mul\n      not\n      and\n      swap1\n      dup4\n      iszero\n      iszero\n      mul\n      or\n      swap1\n      sstore\n      pop\n        /* \"contracts/ManageFund.sol\":2911:2923  transactions */\n      0x03\n        /* \"contracts/ManageFund.sol\":2924:2925  n */\n      dup3\n        /* \"contracts/ManageFund.sol\":2911:2926  transactions[n] */\n      dup2\n      sload\n      dup2\n      lt\n      tag_197\n      jumpi\n      tag_198\n      tag_75\n      jump\t// in\n    tag_198:\n    tag_197:\n      swap1\n      0x00\n      mstore\n      keccak256(0x00, 0x20)\n      swap1\n      0x04\n      mul\n      add\n        /* \"contracts/ManageFund.sol\":2911:2933  transactions[n].amount */\n      0x01\n      add\n      sload\n        /* \"contracts/ManageFund.sol\":2898:2910  totalCredits */\n      sload(0x02)\n        /* \"contracts/ManageFund.sol\":2898:2933  totalCredits>transactions[n].amount */\n      gt\n        /* \"contracts/ManageFund.sol\":2895:3135  if(totalCredits>transactions[n].amount)... */\n      iszero\n      tag_200\n      jumpi\n        /* \"contracts/ManageFund.sol\":2968:2980  transactions */\n      0x03\n        /* \"contracts/ManageFund.sol\":2981:2982  n */\n      dup3\n        /* \"contracts/ManageFund.sol\":2968:2983  transactions[n] */\n      dup2\n      sload\n      dup2\n      lt\n      tag_201\n      jumpi\n      tag_202\n      tag_75\n      jump\t// in\n    tag_202:\n    tag_201:\n      swap1\n      0x00\n      mstore\n      keccak256(0x00, 0x20)\n      swap1\n      0x04\n      mul\n      add\n        /* \"contracts/ManageFund.sol\":2968:2990  transactions[n].amount */\n      0x01\n      add\n      sload\n        /* \"contracts/ManageFund.sol\":2954:2966  totalCredits */\n      0x02\n      0x00\n        /* \"contracts/ManageFund.sol\":2954:2990  totalCredits-=transactions[n].amount */\n      dup3\n      dup3\n      sload\n      tag_204\n      swap2\n      swap1\n      tag_205\n      jump\t// in\n    tag_204:\n      swap3\n      pop\n      pop\n      dup2\n      swap1\n      sstore\n      pop\n        /* \"contracts/ManageFund.sol\":3001:3041  transactions[n].approvalStatus=\"debited\" */\n      mload(0x40)\n      dup1\n      0x40\n      add\n      0x40\n      mstore\n      dup1\n      0x07\n      dup2\n      mstore\n      0x20\n      add\n      0x6465626974656400000000000000000000000000000000000000000000000000\n      dup2\n      mstore\n      pop\n        /* \"contracts/ManageFund.sol\":3001:3013  transactions */\n      0x03\n        /* \"contracts/ManageFund.sol\":3014:3015  n */\n      dup4\n        /* \"contracts/ManageFund.sol\":3001:3016  transactions[n] */\n      dup2\n      sload\n      dup2\n      lt\n      tag_206\n      jumpi\n      tag_207\n      tag_75\n      jump\t// in\n    tag_207:\n    tag_206:\n      swap1\n      0x00\n      mstore\n      keccak256(0x00, 0x20)\n      swap1\n      0x04\n      mul\n      add\n        /* \"contracts/ManageFund.sol\":3001:3031  transactions[n].approvalStatus */\n      0x03\n      add\n        /* \"contracts/ManageFund.sol\":3001:3041  transactions[n].approvalStatus=\"debited\" */\n      swap1\n      dup2\n      tag_209\n      swap2\n      swap1\n      tag_85\n      jump\t// in\n    tag_209:\n      pop\n        /* \"contracts/ManageFund.sol\":2895:3135  if(totalCredits>transactions[n].amount)... */\n      jump(tag_210)\n    tag_200:\n        /* \"contracts/ManageFund.sol\":3085:3124  transactions[n].approvalStatus=\"failed\" */\n      mload(0x40)\n      dup1\n      0x40\n      add\n      0x40\n      mstore\n      dup1\n      0x06\n      dup2\n      mstore\n      0x20\n      add\n      0x6661696c65640000000000000000000000000000000000000000000000000000\n      dup2\n      mstore\n      pop\n        /* \"contracts/ManageFund.sol\":3085:3097  transactions */\n      0x03\n        /* \"contracts/ManageFund.sol\":3098:3099  n */\n      dup4\n        /* \"contracts/ManageFund.sol\":3085:3100  transactions[n] */\n      dup2\n      sload\n      dup2\n      lt\n      tag_211\n      jumpi\n      tag_212\n      tag_75\n      jump\t// in\n    tag_212:\n    tag_211:\n      swap1\n      0x00\n      mstore\n      keccak256(0x00, 0x20)\n      swap1\n      0x04\n      mul\n      add\n        /* \"contracts/ManageFund.sol\":3085:3115  transactions[n].approvalStatus */\n      0x03\n      add\n        /* \"contracts/ManageFund.sol\":3085:3124  transactions[n].approvalStatus=\"failed\" */\n      swap1\n      dup2\n      tag_214\n      swap2\n      swap1\n      tag_85\n      jump\t// in\n    tag_214:\n      pop\n        /* \"contracts/ManageFund.sol\":2895:3135  if(totalCredits>transactions[n].amount)... */\n    tag_210:\n        /* \"contracts/ManageFund.sol\":2174:3198  {... */\n      pop\n        /* \"contracts/ManageFund.sol\":2139:3198  function approve(uint256 n) public {... */\n      pop\n      jump\t// out\n        /* \"contracts/ManageFund.sol\":3249:4015  function reject(uint256 n) public {... */\n    tag_54:\n        /* \"contracts/ManageFund.sol\":3301:3310  walletSet */\n      0x00\n      0x14\n      swap1\n      sload\n      swap1\n      0x0100\n      exp\n      swap1\n      div\n      0xff\n      and\n        /* \"contracts/ManageFund.sol\":3293:3331  require(walletSet,\"Wallet is not set\") */\n      tag_216\n      jumpi\n      mload(0x40)\n      0x08c379a000000000000000000000000000000000000000000000000000000000\n      dup2\n      mstore\n      0x04\n      add\n      tag_217\n      swap1\n      tag_163\n      jump\t// in\n    tag_217:\n      mload(0x40)\n      dup1\n      swap2\n      sub\n      swap1\n      revert\n    tag_216:\n        /* \"contracts/ManageFund.sol\":3351:3363  transactions */\n      0x03\n        /* \"contracts/ManageFund.sol\":3351:3370  transactions.length */\n      dup1\n      sload\n      swap1\n      pop\n        /* \"contracts/ManageFund.sol\":3349:3350  n */\n      dup2\n        /* \"contracts/ManageFund.sol\":3349:3370  n<transactions.length */\n      lt\n        /* \"contracts/ManageFund.sol\":3341:3393  require(n<transactions.length,\"Invalid transaction\") */\n      tag_218\n      jumpi\n      mload(0x40)\n      0x08c379a000000000000000000000000000000000000000000000000000000000\n      dup2\n      mstore\n      0x04\n      add\n      tag_219\n      swap1\n      tag_166\n      jump\t// in\n    tag_219:\n      mload(0x40)\n      dup1\n      swap2\n      sub\n      swap1\n      revert\n    tag_218:\n        /* \"contracts/ManageFund.sol\":3403:3420  bool isTeamMember */\n      0x00\n        /* \"contracts/ManageFund.sol\":3440:3449  uint256 i */\n      dup1\n        /* \"contracts/ManageFund.sol\":3436:3617  for(uint256 i=0;i<winningMembers.length;i++)... */\n    tag_220:\n        /* \"contracts/ManageFund.sol\":3454:3468  winningMembers */\n      0x01\n        /* \"contracts/ManageFund.sol\":3454:3475  winningMembers.length */\n      dup1\n      sload\n      swap1\n      pop\n        /* \"contracts/ManageFund.sol\":3452:3453  i */\n      dup2\n        /* \"contracts/ManageFund.sol\":3452:3475  i<winningMembers.length */\n      lt\n        /* \"contracts/ManageFund.sol\":3436:3617  for(uint256 i=0;i<winningMembers.length;i++)... */\n      iszero\n      tag_221\n      jumpi\n        /* \"contracts/ManageFund.sol\":3522:3532  msg.sender */\n      caller\n        /* \"contracts/ManageFund.sol\":3503:3532  winningMembers[i]==msg.sender */\n      0xffffffffffffffffffffffffffffffffffffffff\n      and\n        /* \"contracts/ManageFund.sol\":3503:3517  winningMembers */\n      0x01\n        /* \"contracts/ManageFund.sol\":3518:3519  i */\n      dup3\n        /* \"contracts/ManageFund.sol\":3503:3520  winningMembers[i] */\n      dup2\n      sload\n      dup2\n      lt\n      tag_223\n      jumpi\n      tag_224\n      tag_75\n      jump\t// in\n    tag_224:\n    tag_223:\n      swap1\n      0x00\n      mstore\n      keccak256(0x00, 0x20)\n      add\n      0x00\n      swap1\n      sload\n      swap1\n      0x0100\n      exp\n      swap1\n      div\n      0xffffffffffffffffffffffffffffffffffffffff\n      and\n        /* \"contracts/ManageFund.sol\":3503:3532  winningMembers[i]==msg.sender */\n      0xffffffffffffffffffffffffffffffffffffffff\n      and\n      sub\n        /* \"contracts/ManageFund.sol\":3500:3607  if(winningMembers[i]==msg.sender)... */\n      tag_226\n      jumpi\n        /* \"contracts/ManageFund.sol\":3571:3575  true */\n      0x01\n        /* \"contracts/ManageFund.sol\":3558:3575  isTeamMember=true */\n      swap2\n      pop\n        /* \"contracts/ManageFund.sol\":3590:3595  break */\n      jump(tag_221)\n        /* \"contracts/ManageFund.sol\":3500:3607  if(winningMembers[i]==msg.sender)... */\n    tag_226:\n        /* \"contracts/ManageFund.sol\":3476:3479  i++ */\n      dup1\n      dup1\n      tag_227\n      swap1\n      tag_79\n      jump\t// in\n    tag_227:\n      swap2\n      pop\n      pop\n        /* \"contracts/ManageFund.sol\":3436:3617  for(uint256 i=0;i<winningMembers.length;i++)... */\n      jump(tag_220)\n    tag_221:\n      pop\n        /* \"contracts/ManageFund.sol\":3635:3647  isTeamMember */\n      dup1\n        /* \"contracts/ManageFund.sol\":3627:3692  require(isTeamMember,\"Only winning team members can be approved\") */\n      tag_228\n      jumpi\n      mload(0x40)\n      0x08c379a000000000000000000000000000000000000000000000000000000000\n      dup2\n      mstore\n      0x04\n      add\n      tag_229\n      swap1\n      tag_177\n      jump\t// in\n    tag_229:\n      mload(0x40)\n      dup1\n      swap2\n      sub\n      swap1\n      revert\n    tag_228:\n        /* \"contracts/ManageFund.sol\":3785:3812  abi.encodePacked(\"debited\") */\n      add(0x20, mload(0x40))\n      tag_230\n      swap1\n      tag_179\n      jump\t// in\n    tag_230:\n      mload(0x40)\n      0x20\n      dup2\n      dup4\n      sub\n      sub\n      dup2\n      mstore\n      swap1\n      0x40\n      mstore\n        /* \"contracts/ManageFund.sol\":3775:3813  keccak256(abi.encodePacked(\"debited\")) */\n      dup1\n      mload\n      swap1\n      0x20\n      add\n      keccak256\n        /* \"contracts/ManageFund.sol\":3739:3751  transactions */\n      0x03\n        /* \"contracts/ManageFund.sol\":3752:3753  n */\n      dup4\n        /* \"contracts/ManageFund.sol\":3739:3754  transactions[n] */\n      dup2\n      sload\n      dup2\n      lt\n      tag_231\n      jumpi\n      tag_232\n      tag_75\n      jump\t// in\n    tag_232:\n    tag_231:\n      swap1\n      0x00\n      mstore\n      keccak256(0x00, 0x20)\n      swap1\n      0x04\n      mul\n      add\n        /* \"contracts/ManageFund.sol\":3739:3769  transactions[n].approvalStatus */\n      0x03\n      add\n        /* \"contracts/ManageFund.sol\":3722:3770  abi.encodePacked(transactions[n].approvalStatus) */\n      add(0x20, mload(0x40))\n      tag_234\n      swap2\n      swap1\n      tag_101\n      jump\t// in\n    tag_234:\n      mload(0x40)\n      0x20\n      dup2\n      dup4\n      sub\n      sub\n      dup2\n      mstore\n      swap1\n      0x40\n      mstore\n        /* \"contracts/ManageFund.sol\":3712:3771  keccak256(abi.encodePacked(transactions[n].approvalStatus)) */\n      dup1\n      mload\n      swap1\n      0x20\n      add\n      keccak256\n        /* \"contracts/ManageFund.sol\":3712:3813  keccak256(abi.encodePacked(transactions[n].approvalStatus)) == keccak256(abi.encodePacked(\"debited\")) */\n      eq\n        /* \"contracts/ManageFund.sol\":3712:3919  keccak256(abi.encodePacked(transactions[n].approvalStatus)) == keccak256(abi.encodePacked(\"debited\")) || keccak256(abi.encodePacked(transactions[n].approvalStatus)) == keccak256(abi.encodePacked(\"rejected\")) */\n      dup1\n      tag_235\n      jumpi\n      pop\n        /* \"contracts/ManageFund.sol\":3890:3918  abi.encodePacked(\"rejected\") */\n      add(0x20, mload(0x40))\n      tag_236\n      swap1\n      tag_186\n      jump\t// in\n    tag_236:\n      mload(0x40)\n      0x20\n      dup2\n      dup4\n      sub\n      sub\n      dup2\n      mstore\n      swap1\n      0x40\n      mstore\n        /* \"contracts/ManageFund.sol\":3880:3919  keccak256(abi.encodePacked(\"rejected\")) */\n      dup1\n      mload\n      swap1\n      0x20\n      add\n      keccak256\n        /* \"contracts/ManageFund.sol\":3844:3856  transactions */\n      0x03\n        /* \"contracts/ManageFund.sol\":3857:3858  n */\n      dup4\n        /* \"contracts/ManageFund.sol\":3844:3859  transactions[n] */\n      dup2\n      sload\n      dup2\n      lt\n      tag_237\n      jumpi\n      tag_238\n      tag_75\n      jump\t// in\n    tag_238:\n    tag_237:\n      swap1\n      0x00\n      mstore\n      keccak256(0x00, 0x20)\n      swap1\n      0x04\n      mul\n      add\n        /* \"contracts/ManageFund.sol\":3844:3874  transactions[n].approvalStatus */\n      0x03\n      add\n        /* \"contracts/ManageFund.sol\":3827:3875  abi.encodePacked(transactions[n].approvalStatus) */\n      add(0x20, mload(0x40))\n      tag_240\n      swap2\n      swap1\n      tag_101\n      jump\t// in\n    tag_240:\n      mload(0x40)\n      0x20\n      dup2\n      dup4\n      sub\n      sub\n      dup2\n      mstore\n      swap1\n      0x40\n      mstore\n        /* \"contracts/ManageFund.sol\":3817:3876  keccak256(abi.encodePacked(transactions[n].approvalStatus)) */\n      dup1\n      mload\n      swap1\n      0x20\n      add\n      keccak256\n        /* \"contracts/ManageFund.sol\":3817:3919  keccak256(abi.encodePacked(transactions[n].approvalStatus)) == keccak256(abi.encodePacked(\"rejected\")) */\n      eq\n        /* \"contracts/ManageFund.sol\":3712:3919  keccak256(abi.encodePacked(transactions[n].approvalStatus)) == keccak256(abi.encodePacked(\"debited\")) || keccak256(abi.encodePacked(transactions[n].approvalStatus)) == keccak256(abi.encodePacked(\"rejected\")) */\n    tag_235:\n        /* \"contracts/ManageFund.sol\":3710:3920  !(keccak256(abi.encodePacked(transactions[n].approvalStatus)) == keccak256(abi.encodePacked(\"debited\")) || keccak256(abi.encodePacked(transactions[n].approvalStatus)) == keccak256(abi.encodePacked(\"rejected\"))) */\n      iszero\n        /* \"contracts/ManageFund.sol\":3702:3956  require(!(keccak256(abi.encodePacked(transactions[n].approvalStatus)) == keccak256(abi.encodePacked(\"debited\")) || keccak256(abi.encodePacked(transactions[n].approvalStatus)) == keccak256(abi.encodePacked(\"rejected\"))), \"Transaction is already approved\") */\n      tag_241\n      jumpi\n      mload(0x40)\n      0x08c379a000000000000000000000000000000000000000000000000000000000\n      dup2\n      mstore\n      0x04\n      add\n      tag_242\n      swap1\n      tag_243\n      jump\t// in\n    tag_242:\n      mload(0x40)\n      dup1\n      swap2\n      sub\n      swap1\n      revert\n    tag_241:\n        /* \"contracts/ManageFund.sol\":3966:4007  transactions[n].approvalStatus=\"rejected\" */\n      mload(0x40)\n      dup1\n      0x40\n      add\n      0x40\n      mstore\n      dup1\n      0x08\n      dup2\n      mstore\n      0x20\n      add\n      0x72656a6563746564000000000000000000000000000000000000000000000000\n      dup2\n      mstore\n      pop\n        /* \"contracts/ManageFund.sol\":3966:3978  transactions */\n      0x03\n        /* \"contracts/ManageFund.sol\":3979:3980  n */\n      dup4\n        /* \"contracts/ManageFund.sol\":3966:3981  transactions[n] */\n      dup2\n      sload\n      dup2\n      lt\n      tag_244\n      jumpi\n      tag_245\n      tag_75\n      jump\t// in\n    tag_245:\n    tag_244:\n      swap1\n      0x00\n      mstore\n      keccak256(0x00, 0x20)\n      swap1\n      0x04\n      mul\n      add\n        /* \"contracts/ManageFund.sol\":3966:3996  transactions[n].approvalStatus */\n      0x03\n      add\n        /* \"contracts/ManageFund.sol\":3966:4007  transactions[n].approvalStatus=\"rejected\" */\n      swap1\n      dup2\n      tag_247\n      swap2\n      swap1\n      tag_85\n      jump\t// in\n    tag_247:\n      pop\n        /* \"contracts/ManageFund.sol\":3283:4015  {... */\n      pop\n        /* \"contracts/ManageFund.sol\":3249:4015  function reject(uint256 n) public {... */\n      pop\n      jump\t// out\n        /* \"contracts/ManageFund.sol\":151:182  address[] public winningMembers */\n    tag_57:\n      0x01\n      dup2\n      dup2\n      sload\n      dup2\n      lt\n      tag_248\n      jumpi\n      0x00\n      dup1\n      revert\n    tag_248:\n      swap1\n      0x00\n      mstore\n      keccak256(0x00, 0x20)\n      add\n      0x00\n      swap2\n      pop\n      sload\n      swap1\n      0x0100\n      exp\n      swap1\n      div\n      0xffffffffffffffffffffffffffffffffffffffff\n      and\n      dup2\n      jump\t// out\n        /* \"contracts/ManageFund.sol\":87:110  address public deployer */\n    tag_61:\n      0x00\n      dup1\n      sload\n      swap1\n      0x0100\n      exp\n      swap1\n      div\n      0xffffffffffffffffffffffffffffffffffffffff\n      and\n      dup2\n      jump\t// out\n    tag_159:\n      dup3\n      dup1\n      sload\n      dup3\n      dup3\n      sstore\n      swap1\n      0x00\n      mstore\n      keccak256(0x00, 0x20)\n      swap1\n      dup2\n      add\n      swap3\n      dup3\n      iszero\n      tag_250\n      jumpi\n      swap2\n      0x20\n      mul\n      dup3\n      add\n    tag_251:\n      dup3\n      dup2\n      gt\n      iszero\n      tag_252\n      jumpi\n      dup3\n      mload\n      dup3\n      exp(0x0100, 0x00)\n      dup2\n      sload\n      dup2\n      0xffffffffffffffffffffffffffffffffffffffff\n      mul\n      not\n      and\n      swap1\n      dup4\n      0xffffffffffffffffffffffffffffffffffffffff\n      and\n      mul\n      or\n      swap1\n      sstore\n      pop\n      swap2\n      0x20\n      add\n      swap2\n      swap1\n      0x01\n      add\n      swap1\n      jump(tag_251)\n    tag_252:\n    tag_250:\n      pop\n      swap1\n      pop\n      tag_253\n      swap2\n      swap1\n      tag_254\n      jump\t// in\n    tag_253:\n      pop\n      swap1\n      jump\t// out\n    tag_254:\n    tag_255:\n      dup1\n      dup3\n      gt\n      iszero\n      tag_256\n      jumpi\n      0x00\n      dup2\n      0x00\n      swap1\n      sstore\n      pop\n      0x01\n      add\n      jump(tag_255)\n    tag_256:\n      pop\n      swap1\n      jump\t// out\n        /* \"#utility.yul\":7:82   */\n    tag_257:\n        /* \"#utility.yul\":40:46   */\n      0x00\n        /* \"#utility.yul\":73:75   */\n      0x40\n        /* \"#utility.yul\":67:76   */\n      mload\n        /* \"#utility.yul\":57:76   */\n      swap1\n      pop\n        /* \"#utility.yul\":7:82   */\n      swap1\n      jump\t// out\n        /* \"#utility.yul\":88:205   */\n    tag_258:\n        /* \"#utility.yul\":197:198   */\n      0x00\n        /* \"#utility.yul\":194:195   */\n      dup1\n        /* \"#utility.yul\":187:199   */\n      revert\n        /* \"#utility.yul\":211:328   */\n    tag_259:\n        /* \"#utility.yul\":320:321   */\n      0x00\n        /* \"#utility.yul\":317:318   */\n      dup1\n        /* \"#utility.yul\":310:322   */\n      revert\n        /* \"#utility.yul\":334:411   */\n    tag_260:\n        /* \"#utility.yul\":371:378   */\n      0x00\n        /* \"#utility.yul\":400:405   */\n      dup2\n        /* \"#utility.yul\":389:405   */\n      swap1\n      pop\n        /* \"#utility.yul\":334:411   */\n      swap2\n      swap1\n      pop\n      jump\t// out\n        /* \"#utility.yul\":417:539   */\n    tag_261:\n        /* \"#utility.yul\":490:514   */\n      tag_341\n        /* \"#utility.yul\":508:513   */\n      dup2\n        /* \"#utility.yul\":490:514   */\n      tag_260\n      jump\t// in\n    tag_341:\n        /* \"#utility.yul\":483:488   */\n      dup2\n        /* \"#utility.yul\":480:515   */\n      eq\n        /* \"#utility.yul\":470:533   */\n      tag_342\n      jumpi\n        /* \"#utility.yul\":529:530   */\n      0x00\n        /* \"#utility.yul\":526:527   */\n      dup1\n        /* \"#utility.yul\":519:531   */\n      revert\n        /* \"#utility.yul\":470:533   */\n    tag_342:\n        /* \"#utility.yul\":417:539   */\n      pop\n      jump\t// out\n        /* \"#utility.yul\":545:684   */\n    tag_262:\n        /* \"#utility.yul\":591:596   */\n      0x00\n        /* \"#utility.yul\":629:635   */\n      dup2\n        /* \"#utility.yul\":616:636   */\n      calldataload\n        /* \"#utility.yul\":607:636   */\n      swap1\n      pop\n        /* \"#utility.yul\":645:678   */\n      tag_344\n        /* \"#utility.yul\":672:677   */\n      dup2\n        /* \"#utility.yul\":645:678   */\n      tag_261\n      jump\t// in\n    tag_344:\n        /* \"#utility.yul\":545:684   */\n      swap3\n      swap2\n      pop\n      pop\n      jump\t// out\n        /* \"#utility.yul\":690:1019   */\n    tag_18:\n        /* \"#utility.yul\":749:755   */\n      0x00\n        /* \"#utility.yul\":798:800   */\n      0x20\n        /* \"#utility.yul\":786:795   */\n      dup3\n        /* \"#utility.yul\":777:784   */\n      dup5\n        /* \"#utility.yul\":773:796   */\n      sub\n        /* \"#utility.yul\":769:801   */\n      slt\n        /* \"#utility.yul\":766:885   */\n      iszero\n      tag_346\n      jumpi\n        /* \"#utility.yul\":804:883   */\n      tag_347\n      tag_258\n      jump\t// in\n    tag_347:\n        /* \"#utility.yul\":766:885   */\n    tag_346:\n        /* \"#utility.yul\":924:925   */\n      0x00\n        /* \"#utility.yul\":949:1002   */\n      tag_348\n        /* \"#utility.yul\":994:1001   */\n      dup5\n        /* \"#utility.yul\":985:991   */\n      dup3\n        /* \"#utility.yul\":974:983   */\n      dup6\n        /* \"#utility.yul\":970:992   */\n      add\n        /* \"#utility.yul\":949:1002   */\n      tag_262\n      jump\t// in\n    tag_348:\n        /* \"#utility.yul\":939:1002   */\n      swap2\n      pop\n        /* \"#utility.yul\":895:1012   */\n      pop\n        /* \"#utility.yul\":690:1019   */\n      swap3\n      swap2\n      pop\n      pop\n      jump\t// out\n        /* \"#utility.yul\":1025:1143   */\n    tag_263:\n        /* \"#utility.yul\":1112:1136   */\n      tag_350\n        /* \"#utility.yul\":1130:1135   */\n      dup2\n        /* \"#utility.yul\":1112:1136   */\n      tag_260\n      jump\t// in\n    tag_350:\n        /* \"#utility.yul\":1107:1110   */\n      dup3\n        /* \"#utility.yul\":1100:1137   */\n      mstore\n        /* \"#utility.yul\":1025:1143   */\n      pop\n      pop\n      jump\t// out\n        /* \"#utility.yul\":1149:1371   */\n    tag_23:\n        /* \"#utility.yul\":1242:1246   */\n      0x00\n        /* \"#utility.yul\":1280:1282   */\n      0x20\n        /* \"#utility.yul\":1269:1278   */\n      dup3\n        /* \"#utility.yul\":1265:1283   */\n      add\n        /* \"#utility.yul\":1257:1283   */\n      swap1\n      pop\n        /* \"#utility.yul\":1293:1364   */\n      tag_352\n        /* \"#utility.yul\":1361:1362   */\n      0x00\n        /* \"#utility.yul\":1350:1359   */\n      dup4\n        /* \"#utility.yul\":1346:1363   */\n      add\n        /* \"#utility.yul\":1337:1343   */\n      dup5\n        /* \"#utility.yul\":1293:1364   */\n      tag_263\n      jump\t// in\n    tag_352:\n        /* \"#utility.yul\":1149:1371   */\n      swap3\n      swap2\n      pop\n      pop\n      jump\t// out\n        /* \"#utility.yul\":1377:1819   */\n    tag_27:\n        /* \"#utility.yul\":1526:1530   */\n      0x00\n        /* \"#utility.yul\":1564:1566   */\n      0x60\n        /* \"#utility.yul\":1553:1562   */\n      dup3\n        /* \"#utility.yul\":1549:1567   */\n      add\n        /* \"#utility.yul\":1541:1567   */\n      swap1\n      pop\n        /* \"#utility.yul\":1577:1648   */\n      tag_354\n        /* \"#utility.yul\":1645:1646   */\n      0x00\n        /* \"#utility.yul\":1634:1643   */\n      dup4\n        /* \"#utility.yul\":1630:1647   */\n      add\n        /* \"#utility.yul\":1621:1627   */\n      dup7\n        /* \"#utility.yul\":1577:1648   */\n      tag_263\n      jump\t// in\n    tag_354:\n        /* \"#utility.yul\":1658:1730   */\n      tag_355\n        /* \"#utility.yul\":1726:1728   */\n      0x20\n        /* \"#utility.yul\":1715:1724   */\n      dup4\n        /* \"#utility.yul\":1711:1729   */\n      add\n        /* \"#utility.yul\":1702:1708   */\n      dup6\n        /* \"#utility.yul\":1658:1730   */\n      tag_263\n      jump\t// in\n    tag_355:\n        /* \"#utility.yul\":1740:1812   */\n      tag_356\n        /* \"#utility.yul\":1808:1810   */\n      0x40\n        /* \"#utility.yul\":1797:1806   */\n      dup4\n        /* \"#utility.yul\":1793:1811   */\n      add\n        /* \"#utility.yul\":1784:1790   */\n      dup5\n        /* \"#utility.yul\":1740:1812   */\n      tag_263\n      jump\t// in\n    tag_356:\n        /* \"#utility.yul\":1377:1819   */\n      swap5\n      swap4\n      pop\n      pop\n      pop\n      pop\n      jump\t// out\n        /* \"#utility.yul\":1825:1915   */\n    tag_264:\n        /* \"#utility.yul\":1859:1866   */\n      0x00\n        /* \"#utility.yul\":1902:1907   */\n      dup2\n        /* \"#utility.yul\":1895:1908   */\n      iszero\n        /* \"#utility.yul\":1888:1909   */\n      iszero\n        /* \"#utility.yul\":1877:1909   */\n      swap1\n      pop\n        /* \"#utility.yul\":1825:1915   */\n      swap2\n      swap1\n      pop\n      jump\t// out\n        /* \"#utility.yul\":1921:2030   */\n    tag_265:\n        /* \"#utility.yul\":2002:2023   */\n      tag_359\n        /* \"#utility.yul\":2017:2022   */\n      dup2\n        /* \"#utility.yul\":2002:2023   */\n      tag_264\n      jump\t// in\n    tag_359:\n        /* \"#utility.yul\":1997:2000   */\n      dup3\n        /* \"#utility.yul\":1990:2024   */\n      mstore\n        /* \"#utility.yul\":1921:2030   */\n      pop\n      pop\n      jump\t// out\n        /* \"#utility.yul\":2036:2246   */\n    tag_31:\n        /* \"#utility.yul\":2123:2127   */\n      0x00\n        /* \"#utility.yul\":2161:2163   */\n      0x20\n        /* \"#utility.yul\":2150:2159   */\n      dup3\n        /* \"#utility.yul\":2146:2164   */\n      add\n        /* \"#utility.yul\":2138:2164   */\n      swap1\n      pop\n        /* \"#utility.yul\":2174:2239   */\n      tag_361\n        /* \"#utility.yul\":2236:2237   */\n      0x00\n        /* \"#utility.yul\":2225:2234   */\n      dup4\n        /* \"#utility.yul\":2221:2238   */\n      add\n        /* \"#utility.yul\":2212:2218   */\n      dup5\n        /* \"#utility.yul\":2174:2239   */\n      tag_265\n      jump\t// in\n    tag_361:\n        /* \"#utility.yul\":2036:2246   */\n      swap3\n      swap2\n      pop\n      pop\n      jump\t// out\n        /* \"#utility.yul\":2252:2351   */\n    tag_266:\n        /* \"#utility.yul\":2304:2310   */\n      0x00\n        /* \"#utility.yul\":2338:2343   */\n      dup2\n        /* \"#utility.yul\":2332:2344   */\n      mload\n        /* \"#utility.yul\":2322:2344   */\n      swap1\n      pop\n        /* \"#utility.yul\":2252:2351   */\n      swap2\n      swap1\n      pop\n      jump\t// out\n        /* \"#utility.yul\":2357:2526   */\n    tag_267:\n        /* \"#utility.yul\":2441:2452   */\n      0x00\n        /* \"#utility.yul\":2475:2481   */\n      dup3\n        /* \"#utility.yul\":2470:2473   */\n      dup3\n        /* \"#utility.yul\":2463:2482   */\n      mstore\n        /* \"#utility.yul\":2515:2519   */\n      0x20\n        /* \"#utility.yul\":2510:2513   */\n      dup3\n        /* \"#utility.yul\":2506:2520   */\n      add\n        /* \"#utility.yul\":2491:2520   */\n      swap1\n      pop\n        /* \"#utility.yul\":2357:2526   */\n      swap3\n      swap2\n      pop\n      pop\n      jump\t// out\n        /* \"#utility.yul\":2532:2778   */\n    tag_268:\n        /* \"#utility.yul\":2613:2614   */\n      0x00\n        /* \"#utility.yul\":2623:2736   */\n    tag_365:\n        /* \"#utility.yul\":2637:2643   */\n      dup4\n        /* \"#utility.yul\":2634:2635   */\n      dup2\n        /* \"#utility.yul\":2631:2644   */\n      lt\n        /* \"#utility.yul\":2623:2736   */\n      iszero\n      tag_367\n      jumpi\n        /* \"#utility.yul\":2722:2723   */\n      dup1\n        /* \"#utility.yul\":2717:2720   */\n      dup3\n        /* \"#utility.yul\":2713:2724   */\n      add\n        /* \"#utility.yul\":2707:2725   */\n      mload\n        /* \"#utility.yul\":2703:2704   */\n      dup2\n        /* \"#utility.yul\":2698:2701   */\n      dup5\n        /* \"#utility.yul\":2694:2705   */\n      add\n        /* \"#utility.yul\":2687:2726   */\n      mstore\n        /* \"#utility.yul\":2659:2661   */\n      0x20\n        /* \"#utility.yul\":2656:2657   */\n      dup2\n        /* \"#utility.yul\":2652:2662   */\n      add\n        /* \"#utility.yul\":2647:2662   */\n      swap1\n      pop\n        /* \"#utility.yul\":2623:2736   */\n      jump(tag_365)\n    tag_367:\n        /* \"#utility.yul\":2770:2771   */\n      0x00\n        /* \"#utility.yul\":2761:2767   */\n      dup5\n        /* \"#utility.yul\":2756:2759   */\n      dup5\n        /* \"#utility.yul\":2752:2768   */\n      add\n        /* \"#utility.yul\":2745:2772   */\n      mstore\n        /* \"#utility.yul\":2594:2778   */\n      pop\n        /* \"#utility.yul\":2532:2778   */\n      pop\n      pop\n      pop\n      jump\t// out\n        /* \"#utility.yul\":2784:2886   */\n    tag_269:\n        /* \"#utility.yul\":2825:2831   */\n      0x00\n        /* \"#utility.yul\":2876:2878   */\n      0x1f\n        /* \"#utility.yul\":2872:2879   */\n      not\n        /* \"#utility.yul\":2867:2869   */\n      0x1f\n        /* \"#utility.yul\":2860:2865   */\n      dup4\n        /* \"#utility.yul\":2856:2870   */\n      add\n        /* \"#utility.yul\":2852:2880   */\n      and\n        /* \"#utility.yul\":2842:2880   */\n      swap1\n      pop\n        /* \"#utility.yul\":2784:2886   */\n      swap2\n      swap1\n      pop\n      jump\t// out\n        /* \"#utility.yul\":2892:3269   */\n    tag_270:\n        /* \"#utility.yul\":2980:2983   */\n      0x00\n        /* \"#utility.yul\":3008:3047   */\n      tag_370\n        /* \"#utility.yul\":3041:3046   */\n      dup3\n        /* \"#utility.yul\":3008:3047   */\n      tag_266\n      jump\t// in\n    tag_370:\n        /* \"#utility.yul\":3063:3134   */\n      tag_371\n        /* \"#utility.yul\":3127:3133   */\n      dup2\n        /* \"#utility.yul\":3122:3125   */\n      dup6\n        /* \"#utility.yul\":3063:3134   */\n      tag_267\n      jump\t// in\n    tag_371:\n        /* \"#utility.yul\":3056:3134   */\n      swap4\n      pop\n        /* \"#utility.yul\":3143:3208   */\n      tag_372\n        /* \"#utility.yul\":3201:3207   */\n      dup2\n        /* \"#utility.yul\":3196:3199   */\n      dup6\n        /* \"#utility.yul\":3189:3193   */\n      0x20\n        /* \"#utility.yul\":3182:3187   */\n      dup7\n        /* \"#utility.yul\":3178:3194   */\n      add\n        /* \"#utility.yul\":3143:3208   */\n      tag_268\n      jump\t// in\n    tag_372:\n        /* \"#utility.yul\":3233:3262   */\n      tag_373\n        /* \"#utility.yul\":3255:3261   */\n      dup2\n        /* \"#utility.yul\":3233:3262   */\n      tag_269\n      jump\t// in\n    tag_373:\n        /* \"#utility.yul\":3228:3231   */\n      dup5\n        /* \"#utility.yul\":3224:3263   */\n      add\n        /* \"#utility.yul\":3217:3263   */\n      swap2\n      pop\n        /* \"#utility.yul\":2984:3269   */\n      pop\n        /* \"#utility.yul\":2892:3269   */\n      swap3\n      swap2\n      pop\n      pop\n      jump\t// out\n        /* \"#utility.yul\":3275:3698   */\n    tag_36:\n        /* \"#utility.yul\":3416:3420   */\n      0x00\n        /* \"#utility.yul\":3454:3456   */\n      0x40\n        /* \"#utility.yul\":3443:3452   */\n      dup3\n        /* \"#utility.yul\":3439:3457   */\n      add\n        /* \"#utility.yul\":3431:3457   */\n      swap1\n      pop\n        /* \"#utility.yul\":3467:3538   */\n      tag_375\n        /* \"#utility.yul\":3535:3536   */\n      0x00\n        /* \"#utility.yul\":3524:3533   */\n      dup4\n        /* \"#utility.yul\":3520:3537   */\n      add\n        /* \"#utility.yul\":3511:3517   */\n      dup6\n        /* \"#utility.yul\":3467:3538   */\n      tag_263\n      jump\t// in\n    tag_375:\n        /* \"#utility.yul\":3585:3594   */\n      dup2\n        /* \"#utility.yul\":3579:3583   */\n      dup2\n        /* \"#utility.yul\":3575:3595   */\n      sub\n        /* \"#utility.yul\":3570:3572   */\n      0x20\n        /* \"#utility.yul\":3559:3568   */\n      dup4\n        /* \"#utility.yul\":3555:3573   */\n      add\n        /* \"#utility.yul\":3548:3596   */\n      mstore\n        /* \"#utility.yul\":3613:3691   */\n      tag_376\n        /* \"#utility.yul\":3686:3690   */\n      dup2\n        /* \"#utility.yul\":3677:3683   */\n      dup5\n        /* \"#utility.yul\":3613:3691   */\n      tag_270\n      jump\t// in\n    tag_376:\n        /* \"#utility.yul\":3605:3691   */\n      swap1\n      pop\n        /* \"#utility.yul\":3275:3698   */\n      swap4\n      swap3\n      pop\n      pop\n      pop\n      jump\t// out\n        /* \"#utility.yul\":3704:3830   */\n    tag_271:\n        /* \"#utility.yul\":3741:3748   */\n      0x00\n        /* \"#utility.yul\":3781:3823   */\n      0xffffffffffffffffffffffffffffffffffffffff\n        /* \"#utility.yul\":3774:3779   */\n      dup3\n        /* \"#utility.yul\":3770:3824   */\n      and\n        /* \"#utility.yul\":3759:3824   */\n      swap1\n      pop\n        /* \"#utility.yul\":3704:3830   */\n      swap2\n      swap1\n      pop\n      jump\t// out\n        /* \"#utility.yul\":3836:3932   */\n    tag_272:\n        /* \"#utility.yul\":3873:3880   */\n      0x00\n        /* \"#utility.yul\":3902:3926   */\n      tag_379\n        /* \"#utility.yul\":3920:3925   */\n      dup3\n        /* \"#utility.yul\":3902:3926   */\n      tag_271\n      jump\t// in\n    tag_379:\n        /* \"#utility.yul\":3891:3926   */\n      swap1\n      pop\n        /* \"#utility.yul\":3836:3932   */\n      swap2\n      swap1\n      pop\n      jump\t// out\n        /* \"#utility.yul\":3938:4056   */\n    tag_273:\n        /* \"#utility.yul\":4025:4049   */\n      tag_381\n        /* \"#utility.yul\":4043:4048   */\n      dup2\n        /* \"#utility.yul\":4025:4049   */\n      tag_272\n      jump\t// in\n    tag_381:\n        /* \"#utility.yul\":4020:4023   */\n      dup3\n        /* \"#utility.yul\":4013:4050   */\n      mstore\n        /* \"#utility.yul\":3938:4056   */\n      pop\n      pop\n      jump\t// out\n        /* \"#utility.yul\":4062:4694   */\n    tag_41:\n        /* \"#utility.yul\":4253:4257   */\n      0x00\n        /* \"#utility.yul\":4291:4294   */\n      0x80\n        /* \"#utility.yul\":4280:4289   */\n      dup3\n        /* \"#utility.yul\":4276:4295   */\n      add\n        /* \"#utility.yul\":4268:4295   */\n      swap1\n      pop\n        /* \"#utility.yul\":4305:4376   */\n      tag_383\n        /* \"#utility.yul\":4373:4374   */\n      0x00\n        /* \"#utility.yul\":4362:4371   */\n      dup4\n        /* \"#utility.yul\":4358:4375   */\n      add\n        /* \"#utility.yul\":4349:4355   */\n      dup8\n        /* \"#utility.yul\":4305:4376   */\n      tag_273\n      jump\t// in\n    tag_383:\n        /* \"#utility.yul\":4386:4458   */\n      tag_384\n        /* \"#utility.yul\":4454:4456   */\n      0x20\n        /* \"#utility.yul\":4443:4452   */\n      dup4\n        /* \"#utility.yul\":4439:4457   */\n      add\n        /* \"#utility.yul\":4430:4436   */\n      dup7\n        /* \"#utility.yul\":4386:4458   */\n      tag_263\n      jump\t// in\n    tag_384:\n        /* \"#utility.yul\":4468:4534   */\n      tag_385\n        /* \"#utility.yul\":4530:4532   */\n      0x40\n        /* \"#utility.yul\":4519:4528   */\n      dup4\n        /* \"#utility.yul\":4515:4533   */\n      add\n        /* \"#utility.yul\":4506:4512   */\n      dup6\n        /* \"#utility.yul\":4468:4534   */\n      tag_265\n      jump\t// in\n    tag_385:\n        /* \"#utility.yul\":4581:4590   */\n      dup2\n        /* \"#utility.yul\":4575:4579   */\n      dup2\n        /* \"#utility.yul\":4571:4591   */\n      sub\n        /* \"#utility.yul\":4566:4568   */\n      0x60\n        /* \"#utility.yul\":4555:4564   */\n      dup4\n        /* \"#utility.yul\":4551:4569   */\n      add\n        /* \"#utility.yul\":4544:4592   */\n      mstore\n        /* \"#utility.yul\":4609:4687   */\n      tag_386\n        /* \"#utility.yul\":4682:4686   */\n      dup2\n        /* \"#utility.yul\":4673:4679   */\n      dup5\n        /* \"#utility.yul\":4609:4687   */\n      tag_270\n      jump\t// in\n    tag_386:\n        /* \"#utility.yul\":4601:4687   */\n      swap1\n      pop\n        /* \"#utility.yul\":4062:4694   */\n      swap6\n      swap5\n      pop\n      pop\n      pop\n      pop\n      pop\n      jump\t// out\n        /* \"#utility.yul\":4700:4817   */\n    tag_274:\n        /* \"#utility.yul\":4809:4810   */\n      0x00\n        /* \"#utility.yul\":4806:4807   */\n      dup1\n        /* \"#utility.yul\":4799:4811   */\n      revert\n        /* \"#utility.yul\":4823:5003   */\n    tag_275:\n        /* \"#utility.yul\":4871:4948   */\n      0x4e487b7100000000000000000000000000000000000000000000000000000000\n        /* \"#utility.yul\":4868:4869   */\n      0x00\n        /* \"#utility.yul\":4861:4949   */\n      mstore\n        /* \"#utility.yul\":4968:4972   */\n      0x41\n        /* \"#utility.yul\":4965:4966   */\n      0x04\n        /* \"#utility.yul\":4958:4973   */\n      mstore\n        /* \"#utility.yul\":4992:4996   */\n      0x24\n        /* \"#utility.yul\":4989:4990   */\n      0x00\n        /* \"#utility.yul\":4982:4997   */\n      revert\n        /* \"#utility.yul\":5009:5290   */\n    tag_276:\n        /* \"#utility.yul\":5092:5119   */\n      tag_390\n        /* \"#utility.yul\":5114:5118   */\n      dup3\n        /* \"#utility.yul\":5092:5119   */\n      tag_269\n      jump\t// in\n    tag_390:\n        /* \"#utility.yul\":5084:5090   */\n      dup2\n        /* \"#utility.yul\":5080:5120   */\n      add\n        /* \"#utility.yul\":5222:5228   */\n      dup2\n        /* \"#utility.yul\":5210:5220   */\n      dup2\n        /* \"#utility.yul\":5207:5229   */\n      lt\n        /* \"#utility.yul\":5186:5204   */\n      0xffffffffffffffff\n        /* \"#utility.yul\":5174:5184   */\n      dup3\n        /* \"#utility.yul\":5171:5205   */\n      gt\n        /* \"#utility.yul\":5168:5230   */\n      or\n        /* \"#utility.yul\":5165:5253   */\n      iszero\n      tag_391\n      jumpi\n        /* \"#utility.yul\":5233:5251   */\n      tag_392\n      tag_275\n      jump\t// in\n    tag_392:\n        /* \"#utility.yul\":5165:5253   */\n    tag_391:\n        /* \"#utility.yul\":5273:5283   */\n      dup1\n        /* \"#utility.yul\":5269:5271   */\n      0x40\n        /* \"#utility.yul\":5262:5284   */\n      mstore\n        /* \"#utility.yul\":5052:5290   */\n      pop\n        /* \"#utility.yul\":5009:5290   */\n      pop\n      pop\n      jump\t// out\n        /* \"#utility.yul\":5296:5425   */\n    tag_277:\n        /* \"#utility.yul\":5330:5336   */\n      0x00\n        /* \"#utility.yul\":5357:5377   */\n      tag_394\n      tag_257\n      jump\t// in\n    tag_394:\n        /* \"#utility.yul\":5347:5377   */\n      swap1\n      pop\n        /* \"#utility.yul\":5386:5419   */\n      tag_395\n        /* \"#utility.yul\":5414:5418   */\n      dup3\n        /* \"#utility.yul\":5406:5412   */\n      dup3\n        /* \"#utility.yul\":5386:5419   */\n      tag_276\n      jump\t// in\n    tag_395:\n        /* \"#utility.yul\":5296:5425   */\n      swap2\n      swap1\n      pop\n      jump\t// out\n        /* \"#utility.yul\":5431:5742   */\n    tag_278:\n        /* \"#utility.yul\":5508:5512   */\n      0x00\n        /* \"#utility.yul\":5598:5616   */\n      0xffffffffffffffff\n        /* \"#utility.yul\":5590:5596   */\n      dup3\n        /* \"#utility.yul\":5587:5617   */\n      gt\n        /* \"#utility.yul\":5584:5640   */\n      iszero\n      tag_397\n      jumpi\n        /* \"#utility.yul\":5620:5638   */\n      tag_398\n      tag_275\n      jump\t// in\n    tag_398:\n        /* \"#utility.yul\":5584:5640   */\n    tag_397:\n        /* \"#utility.yul\":5670:5674   */\n      0x20\n        /* \"#utility.yul\":5662:5668   */\n      dup3\n        /* \"#utility.yul\":5658:5675   */\n      mul\n        /* \"#utility.yul\":5650:5675   */\n      swap1\n      pop\n        /* \"#utility.yul\":5730:5734   */\n      0x20\n        /* \"#utility.yul\":5724:5728   */\n      dup2\n        /* \"#utility.yul\":5720:5735   */\n      add\n        /* \"#utility.yul\":5712:5735   */\n      swap1\n      pop\n        /* \"#utility.yul\":5431:5742   */\n      swap2\n      swap1\n      pop\n      jump\t// out\n        /* \"#utility.yul\":5748:5865   */\n    tag_279:\n        /* \"#utility.yul\":5857:5858   */\n      0x00\n        /* \"#utility.yul\":5854:5855   */\n      dup1\n        /* \"#utility.yul\":5847:5859   */\n      revert\n        /* \"#utility.yul\":5871:5993   */\n    tag_280:\n        /* \"#utility.yul\":5944:5968   */\n      tag_401\n        /* \"#utility.yul\":5962:5967   */\n      dup2\n        /* \"#utility.yul\":5944:5968   */\n      tag_272\n      jump\t// in\n    tag_401:\n        /* \"#utility.yul\":5937:5942   */\n      dup2\n        /* \"#utility.yul\":5934:5969   */\n      eq\n        /* \"#utility.yul\":5924:5987   */\n      tag_402\n      jumpi\n        /* \"#utility.yul\":5983:5984   */\n      0x00\n        /* \"#utility.yul\":5980:5981   */\n      dup1\n        /* \"#utility.yul\":5973:5985   */\n      revert\n        /* \"#utility.yul\":5924:5987   */\n    tag_402:\n        /* \"#utility.yul\":5871:5993   */\n      pop\n      jump\t// out\n        /* \"#utility.yul\":5999:6138   */\n    tag_281:\n        /* \"#utility.yul\":6045:6050   */\n      0x00\n        /* \"#utility.yul\":6083:6089   */\n      dup2\n        /* \"#utility.yul\":6070:6090   */\n      calldataload\n        /* \"#utility.yul\":6061:6090   */\n      swap1\n      pop\n        /* \"#utility.yul\":6099:6132   */\n      tag_404\n        /* \"#utility.yul\":6126:6131   */\n      dup2\n        /* \"#utility.yul\":6099:6132   */\n      tag_280\n      jump\t// in\n    tag_404:\n        /* \"#utility.yul\":5999:6138   */\n      swap3\n      swap2\n      pop\n      pop\n      jump\t// out\n        /* \"#utility.yul\":6161:6871   */\n    tag_282:\n        /* \"#utility.yul\":6257:6262   */\n      0x00\n        /* \"#utility.yul\":6282:6363   */\n      tag_406\n        /* \"#utility.yul\":6298:6362   */\n      tag_407\n        /* \"#utility.yul\":6355:6361   */\n      dup5\n        /* \"#utility.yul\":6298:6362   */\n      tag_278\n      jump\t// in\n    tag_407:\n        /* \"#utility.yul\":6282:6363   */\n      tag_277\n      jump\t// in\n    tag_406:\n        /* \"#utility.yul\":6273:6363   */\n      swap1\n      pop\n        /* \"#utility.yul\":6383:6388   */\n      dup1\n        /* \"#utility.yul\":6412:6418   */\n      dup4\n        /* \"#utility.yul\":6405:6410   */\n      dup3\n        /* \"#utility.yul\":6398:6419   */\n      mstore\n        /* \"#utility.yul\":6446:6450   */\n      0x20\n        /* \"#utility.yul\":6439:6444   */\n      dup3\n        /* \"#utility.yul\":6435:6451   */\n      add\n        /* \"#utility.yul\":6428:6451   */\n      swap1\n      pop\n        /* \"#utility.yul\":6499:6503   */\n      0x20\n        /* \"#utility.yul\":6491:6497   */\n      dup5\n        /* \"#utility.yul\":6487:6504   */\n      mul\n        /* \"#utility.yul\":6479:6485   */\n      dup4\n        /* \"#utility.yul\":6475:6505   */\n      add\n        /* \"#utility.yul\":6528:6531   */\n      dup6\n        /* \"#utility.yul\":6520:6526   */\n      dup2\n        /* \"#utility.yul\":6517:6532   */\n      gt\n        /* \"#utility.yul\":6514:6636   */\n      iszero\n      tag_408\n      jumpi\n        /* \"#utility.yul\":6547:6626   */\n      tag_409\n      tag_279\n      jump\t// in\n    tag_409:\n        /* \"#utility.yul\":6514:6636   */\n    tag_408:\n        /* \"#utility.yul\":6662:6668   */\n      dup4\n        /* \"#utility.yul\":6645:6865   */\n    tag_410:\n        /* \"#utility.yul\":6679:6685   */\n      dup2\n        /* \"#utility.yul\":6674:6677   */\n      dup2\n        /* \"#utility.yul\":6671:6686   */\n      lt\n        /* \"#utility.yul\":6645:6865   */\n      iszero\n      tag_412\n      jumpi\n        /* \"#utility.yul\":6754:6757   */\n      dup1\n        /* \"#utility.yul\":6783:6820   */\n      tag_413\n        /* \"#utility.yul\":6816:6819   */\n      dup9\n        /* \"#utility.yul\":6804:6814   */\n      dup3\n        /* \"#utility.yul\":6783:6820   */\n      tag_281\n      jump\t// in\n    tag_413:\n        /* \"#utility.yul\":6778:6781   */\n      dup5\n        /* \"#utility.yul\":6771:6821   */\n      mstore\n        /* \"#utility.yul\":6850:6854   */\n      0x20\n        /* \"#utility.yul\":6845:6848   */\n      dup5\n        /* \"#utility.yul\":6841:6855   */\n      add\n        /* \"#utility.yul\":6834:6855   */\n      swap4\n      pop\n        /* \"#utility.yul\":6721:6865   */\n      pop\n        /* \"#utility.yul\":6705:6709   */\n      0x20\n        /* \"#utility.yul\":6700:6703   */\n      dup2\n        /* \"#utility.yul\":6696:6710   */\n      add\n        /* \"#utility.yul\":6689:6710   */\n      swap1\n      pop\n        /* \"#utility.yul\":6645:6865   */\n      jump(tag_410)\n    tag_412:\n        /* \"#utility.yul\":6649:6670   */\n      pop\n        /* \"#utility.yul\":6263:6871   */\n      pop\n      pop\n        /* \"#utility.yul\":6161:6871   */\n      swap4\n      swap3\n      pop\n      pop\n      pop\n      jump\t// out\n        /* \"#utility.yul\":6894:7264   */\n    tag_283:\n        /* \"#utility.yul\":6965:6970   */\n      0x00\n        /* \"#utility.yul\":7014:7017   */\n      dup3\n        /* \"#utility.yul\":7007:7011   */\n      0x1f\n        /* \"#utility.yul\":6999:7005   */\n      dup4\n        /* \"#utility.yul\":6995:7012   */\n      add\n        /* \"#utility.yul\":6991:7018   */\n      slt\n        /* \"#utility.yul\":6981:7103   */\n      tag_415\n      jumpi\n        /* \"#utility.yul\":7022:7101   */\n      tag_416\n      tag_274\n      jump\t// in\n    tag_416:\n        /* \"#utility.yul\":6981:7103   */\n    tag_415:\n        /* \"#utility.yul\":7139:7145   */\n      dup2\n        /* \"#utility.yul\":7126:7146   */\n      calldataload\n        /* \"#utility.yul\":7164:7258   */\n      tag_417\n        /* \"#utility.yul\":7254:7257   */\n      dup5\n        /* \"#utility.yul\":7246:7252   */\n      dup3\n        /* \"#utility.yul\":7239:7243   */\n      0x20\n        /* \"#utility.yul\":7231:7237   */\n      dup7\n        /* \"#utility.yul\":7227:7244   */\n      add\n        /* \"#utility.yul\":7164:7258   */\n      tag_282\n      jump\t// in\n    tag_417:\n        /* \"#utility.yul\":7155:7258   */\n      swap2\n      pop\n        /* \"#utility.yul\":6971:7264   */\n      pop\n        /* \"#utility.yul\":6894:7264   */\n      swap3\n      swap2\n      pop\n      pop\n      jump\t// out\n        /* \"#utility.yul\":7270:7954   */\n    tag_44:\n        /* \"#utility.yul\":7363:7369   */\n      0x00\n        /* \"#utility.yul\":7371:7377   */\n      dup1\n        /* \"#utility.yul\":7420:7422   */\n      0x40\n        /* \"#utility.yul\":7408:7417   */\n      dup4\n        /* \"#utility.yul\":7399:7406   */\n      dup6\n        /* \"#utility.yul\":7395:7418   */\n      sub\n        /* \"#utility.yul\":7391:7423   */\n      slt\n        /* \"#utility.yul\":7388:7507   */\n      iszero\n      tag_419\n      jumpi\n        /* \"#utility.yul\":7426:7505   */\n      tag_420\n      tag_258\n      jump\t// in\n    tag_420:\n        /* \"#utility.yul\":7388:7507   */\n    tag_419:\n        /* \"#utility.yul\":7574:7575   */\n      0x00\n        /* \"#utility.yul\":7563:7572   */\n      dup4\n        /* \"#utility.yul\":7559:7576   */\n      add\n        /* \"#utility.yul\":7546:7577   */\n      calldataload\n        /* \"#utility.yul\":7604:7622   */\n      0xffffffffffffffff\n        /* \"#utility.yul\":7596:7602   */\n      dup2\n        /* \"#utility.yul\":7593:7623   */\n      gt\n        /* \"#utility.yul\":7590:7707   */\n      iszero\n      tag_421\n      jumpi\n        /* \"#utility.yul\":7626:7705   */\n      tag_422\n      tag_259\n      jump\t// in\n    tag_422:\n        /* \"#utility.yul\":7590:7707   */\n    tag_421:\n        /* \"#utility.yul\":7731:7809   */\n      tag_423\n        /* \"#utility.yul\":7801:7808   */\n      dup6\n        /* \"#utility.yul\":7792:7798   */\n      dup3\n        /* \"#utility.yul\":7781:7790   */\n      dup7\n        /* \"#utility.yul\":7777:7799   */\n      add\n        /* \"#utility.yul\":7731:7809   */\n      tag_283\n      jump\t// in\n    tag_423:\n        /* \"#utility.yul\":7721:7809   */\n      swap3\n      pop\n        /* \"#utility.yul\":7517:7819   */\n      pop\n        /* \"#utility.yul\":7858:7860   */\n      0x20\n        /* \"#utility.yul\":7884:7937   */\n      tag_424\n        /* \"#utility.yul\":7929:7936   */\n      dup6\n        /* \"#utility.yul\":7920:7926   */\n      dup3\n        /* \"#utility.yul\":7909:7918   */\n      dup7\n        /* \"#utility.yul\":7905:7927   */\n      add\n        /* \"#utility.yul\":7884:7937   */\n      tag_262\n      jump\t// in\n    tag_424:\n        /* \"#utility.yul\":7874:7937   */\n      swap2\n      pop\n        /* \"#utility.yul\":7829:7947   */\n      pop\n        /* \"#utility.yul\":7270:7954   */\n      swap3\n      pop\n      swap3\n      swap1\n      pop\n      jump\t// out\n        /* \"#utility.yul\":7960:8182   */\n    tag_59:\n        /* \"#utility.yul\":8053:8057   */\n      0x00\n        /* \"#utility.yul\":8091:8093   */\n      0x20\n        /* \"#utility.yul\":8080:8089   */\n      dup3\n        /* \"#utility.yul\":8076:8094   */\n      add\n        /* \"#utility.yul\":8068:8094   */\n      swap1\n      pop\n        /* \"#utility.yul\":8104:8175   */\n      tag_426\n        /* \"#utility.yul\":8172:8173   */\n      0x00\n        /* \"#utility.yul\":8161:8170   */\n      dup4\n        /* \"#utility.yul\":8157:8174   */\n      add\n        /* \"#utility.yul\":8148:8154   */\n      dup5\n        /* \"#utility.yul\":8104:8175   */\n      tag_273\n      jump\t// in\n    tag_426:\n        /* \"#utility.yul\":7960:8182   */\n      swap3\n      swap2\n      pop\n      pop\n      jump\t// out\n        /* \"#utility.yul\":8188:8363   */\n    tag_284:\n        /* \"#utility.yul\":8328:8355   */\n      0x5468652077616c6c6574206973206e6f74207365742079657400000000000000\n        /* \"#utility.yul\":8324:8325   */\n      0x00\n        /* \"#utility.yul\":8316:8322   */\n      dup3\n        /* \"#utility.yul\":8312:8326   */\n      add\n        /* \"#utility.yul\":8305:8356   */\n      mstore\n        /* \"#utility.yul\":8188:8363   */\n      pop\n      jump\t// out\n        /* \"#utility.yul\":8369:8735   */\n    tag_285:\n        /* \"#utility.yul\":8511:8514   */\n      0x00\n        /* \"#utility.yul\":8532:8599   */\n      tag_429\n        /* \"#utility.yul\":8596:8598   */\n      0x19\n        /* \"#utility.yul\":8591:8594   */\n      dup4\n        /* \"#utility.yul\":8532:8599   */\n      tag_267\n      jump\t// in\n    tag_429:\n        /* \"#utility.yul\":8525:8599   */\n      swap2\n      pop\n        /* \"#utility.yul\":8608:8701   */\n      tag_430\n        /* \"#utility.yul\":8697:8700   */\n      dup3\n        /* \"#utility.yul\":8608:8701   */\n      tag_284\n      jump\t// in\n    tag_430:\n        /* \"#utility.yul\":8726:8728   */\n      0x20\n        /* \"#utility.yul\":8721:8724   */\n      dup3\n        /* \"#utility.yul\":8717:8729   */\n      add\n        /* \"#utility.yul\":8710:8729   */\n      swap1\n      pop\n        /* \"#utility.yul\":8369:8735   */\n      swap2\n      swap1\n      pop\n      jump\t// out\n        /* \"#utility.yul\":8741:9160   */\n    tag_66:\n        /* \"#utility.yul\":8907:8911   */\n      0x00\n        /* \"#utility.yul\":8945:8947   */\n      0x20\n        /* \"#utility.yul\":8934:8943   */\n      dup3\n        /* \"#utility.yul\":8930:8948   */\n      add\n        /* \"#utility.yul\":8922:8948   */\n      swap1\n      pop\n        /* \"#utility.yul\":8994:9003   */\n      dup2\n        /* \"#utility.yul\":8988:8992   */\n      dup2\n        /* \"#utility.yul\":8984:9004   */\n      sub\n        /* \"#utility.yul\":8980:8981   */\n      0x00\n        /* \"#utility.yul\":8969:8978   */\n      dup4\n        /* \"#utility.yul\":8965:8982   */\n      add\n        /* \"#utility.yul\":8958:9005   */\n      mstore\n        /* \"#utility.yul\":9022:9153   */\n      tag_432\n        /* \"#utility.yul\":9148:9152   */\n      dup2\n        /* \"#utility.yul\":9022:9153   */\n      tag_285\n      jump\t// in\n    tag_432:\n        /* \"#utility.yul\":9014:9153   */\n      swap1\n      pop\n        /* \"#utility.yul\":8741:9160   */\n      swap2\n      swap1\n      pop\n      jump\t// out\n        /* \"#utility.yul\":9166:9388   */\n    tag_286:\n        /* \"#utility.yul\":9306:9340   */\n      0x54686520616d6f756e742073686f756c64206265206772656174657220746861\n        /* \"#utility.yul\":9302:9303   */\n      0x00\n        /* \"#utility.yul\":9294:9300   */\n      dup3\n        /* \"#utility.yul\":9290:9304   */\n      add\n        /* \"#utility.yul\":9283:9341   */\n      mstore\n        /* \"#utility.yul\":9375:9380   */\n      0x6e20300000000000000000000000000000000000000000000000000000000000\n        /* \"#utility.yul\":9370:9372   */\n      0x20\n        /* \"#utility.yul\":9362:9368   */\n      dup3\n        /* \"#utility.yul\":9358:9373   */\n      add\n        /* \"#utility.yul\":9351:9381   */\n      mstore\n        /* \"#utility.yul\":9166:9388   */\n      pop\n      jump\t// out\n        /* \"#utility.yul\":9394:9760   */\n    tag_287:\n        /* \"#utility.yul\":9536:9539   */\n      0x00\n        /* \"#utility.yul\":9557:9624   */\n      tag_435\n        /* \"#utility.yul\":9621:9623   */\n      0x23\n        /* \"#utility.yul\":9616:9619   */\n      dup4\n        /* \"#utility.yul\":9557:9624   */\n      tag_267\n      jump\t// in\n    tag_435:\n        /* \"#utility.yul\":9550:9624   */\n      swap2\n      pop\n        /* \"#utility.yul\":9633:9726   */\n      tag_436\n        /* \"#utility.yul\":9722:9725   */\n      dup3\n        /* \"#utility.yul\":9633:9726   */\n      tag_286\n      jump\t// in\n    tag_436:\n        /* \"#utility.yul\":9751:9753   */\n      0x40\n        /* \"#utility.yul\":9746:9749   */\n      dup3\n        /* \"#utility.yul\":9742:9754   */\n      add\n        /* \"#utility.yul\":9735:9754   */\n      swap1\n      pop\n        /* \"#utility.yul\":9394:9760   */\n      swap2\n      swap1\n      pop\n      jump\t// out\n        /* \"#utility.yul\":9766:10185   */\n    tag_69:\n        /* \"#utility.yul\":9932:9936   */\n      0x00\n        /* \"#utility.yul\":9970:9972   */\n      0x20\n        /* \"#utility.yul\":9959:9968   */\n      dup3\n        /* \"#utility.yul\":9955:9973   */\n      add\n        /* \"#utility.yul\":9947:9973   */\n      swap1\n      pop\n        /* \"#utility.yul\":10019:10028   */\n      dup2\n        /* \"#utility.yul\":10013:10017   */\n      dup2\n        /* \"#utility.yul\":10009:10029   */\n      sub\n        /* \"#utility.yul\":10005:10006   */\n      0x00\n        /* \"#utility.yul\":9994:10003   */\n      dup4\n        /* \"#utility.yul\":9990:10007   */\n      add\n        /* \"#utility.yul\":9983:10030   */\n      mstore\n        /* \"#utility.yul\":10047:10178   */\n      tag_438\n        /* \"#utility.yul\":10173:10177   */\n      dup2\n        /* \"#utility.yul\":10047:10178   */\n      tag_287\n      jump\t// in\n    tag_438:\n        /* \"#utility.yul\":10039:10178   */\n      swap1\n      pop\n        /* \"#utility.yul\":9766:10185   */\n      swap2\n      swap1\n      pop\n      jump\t// out\n        /* \"#utility.yul\":10191:10371   */\n    tag_75:\n        /* \"#utility.yul\":10239:10316   */\n      0x4e487b7100000000000000000000000000000000000000000000000000000000\n        /* \"#utility.yul\":10236:10237   */\n      0x00\n        /* \"#utility.yul\":10229:10317   */\n      mstore\n        /* \"#utility.yul\":10336:10340   */\n      0x32\n        /* \"#utility.yul\":10333:10334   */\n      0x04\n        /* \"#utility.yul\":10326:10341   */\n      mstore\n        /* \"#utility.yul\":10360:10364   */\n      0x24\n        /* \"#utility.yul\":10357:10358   */\n      0x00\n        /* \"#utility.yul\":10350:10365   */\n      revert\n        /* \"#utility.yul\":10377:10557   */\n    tag_288:\n        /* \"#utility.yul\":10425:10502   */\n      0x4e487b7100000000000000000000000000000000000000000000000000000000\n        /* \"#utility.yul\":10422:10423   */\n      0x00\n        /* \"#utility.yul\":10415:10503   */\n      mstore\n        /* \"#utility.yul\":10522:10526   */\n      0x11\n        /* \"#utility.yul\":10519:10520   */\n      0x04\n        /* \"#utility.yul\":10512:10527   */\n      mstore\n        /* \"#utility.yul\":10546:10550   */\n      0x24\n        /* \"#utility.yul\":10543:10544   */\n      0x00\n        /* \"#utility.yul\":10536:10551   */\n      revert\n        /* \"#utility.yul\":10563:10796   */\n    tag_79:\n        /* \"#utility.yul\":10602:10605   */\n      0x00\n        /* \"#utility.yul\":10625:10649   */\n      tag_442\n        /* \"#utility.yul\":10643:10648   */\n      dup3\n        /* \"#utility.yul\":10625:10649   */\n      tag_260\n      jump\t// in\n    tag_442:\n        /* \"#utility.yul\":10616:10649   */\n      swap2\n      pop\n        /* \"#utility.yul\":10671:10737   */\n      0xffffffffffffffffffffffffffffffffffffffffffffffffffffffffffffffff\n        /* \"#utility.yul\":10664:10669   */\n      dup3\n        /* \"#utility.yul\":10661:10738   */\n      sub\n        /* \"#utility.yul\":10658:10761   */\n      tag_443\n      jumpi\n        /* \"#utility.yul\":10741:10759   */\n      tag_444\n      tag_288\n      jump\t// in\n    tag_444:\n        /* \"#utility.yul\":10658:10761   */\n    tag_443:\n        /* \"#utility.yul\":10788:10789   */\n      0x01\n        /* \"#utility.yul\":10781:10786   */\n      dup3\n        /* \"#utility.yul\":10777:10790   */\n      add\n        /* \"#utility.yul\":10770:10790   */\n      swap1\n      pop\n        /* \"#utility.yul\":10563:10796   */\n      swap2\n      swap1\n      pop\n      jump\t// out\n        /* \"#utility.yul\":10802:11038   */\n    tag_289:\n        /* \"#utility.yul\":10942:10976   */\n      0x74686520726571756573742063616e206f6e6c79206265206170706f72766564\n        /* \"#utility.yul\":10938:10939   */\n      0x00\n        /* \"#utility.yul\":10930:10936   */\n      dup3\n        /* \"#utility.yul\":10926:10940   */\n      add\n        /* \"#utility.yul\":10919:10977   */\n      mstore\n        /* \"#utility.yul\":11011:11030   */\n      0x2062792061207465616d206d656d626572000000000000000000000000000000\n        /* \"#utility.yul\":11006:11008   */\n      0x20\n        /* \"#utility.yul\":10998:11004   */\n      dup3\n        /* \"#utility.yul\":10994:11009   */\n      add\n        /* \"#utility.yul\":10987:11031   */\n      mstore\n        /* \"#utility.yul\":10802:11038   */\n      pop\n      jump\t// out\n        /* \"#utility.yul\":11044:11410   */\n    tag_290:\n        /* \"#utility.yul\":11186:11189   */\n      0x00\n        /* \"#utility.yul\":11207:11274   */\n      tag_447\n        /* \"#utility.yul\":11271:11273   */\n      0x31\n        /* \"#utility.yul\":11266:11269   */\n      dup4\n        /* \"#utility.yul\":11207:11274   */\n      tag_267\n      jump\t// in\n    tag_447:\n        /* \"#utility.yul\":11200:11274   */\n      swap2\n      pop\n        /* \"#utility.yul\":11283:11376   */\n      tag_448\n        /* \"#utility.yul\":11372:11375   */\n      dup3\n        /* \"#utility.yul\":11283:11376   */\n      tag_289\n      jump\t// in\n    tag_448:\n        /* \"#utility.yul\":11401:11403   */\n      0x40\n        /* \"#utility.yul\":11396:11399   */\n      dup3\n        /* \"#utility.yul\":11392:11404   */\n      add\n        /* \"#utility.yul\":11385:11404   */\n      swap1\n      pop\n        /* \"#utility.yul\":11044:11410   */\n      swap2\n      swap1\n      pop\n      jump\t// out\n        /* \"#utility.yul\":11416:11835   */\n    tag_82:\n        /* \"#utility.yul\":11582:11586   */\n      0x00\n        /* \"#utility.yul\":11620:11622   */\n      0x20\n        /* \"#utility.yul\":11609:11618   */\n      dup3\n        /* \"#utility.yul\":11605:11623   */\n      add\n        /* \"#utility.yul\":11597:11623   */\n      swap1\n      pop\n        /* \"#utility.yul\":11669:11678   */\n      dup2\n        /* \"#utility.yul\":11663:11667   */\n      dup2\n        /* \"#utility.yul\":11659:11679   */\n      sub\n        /* \"#utility.yul\":11655:11656   */\n      0x00\n        /* \"#utility.yul\":11644:11653   */\n      dup4\n        /* \"#utility.yul\":11640:11657   */\n      add\n        /* \"#utility.yul\":11633:11680   */\n      mstore\n        /* \"#utility.yul\":11697:11828   */\n      tag_450\n        /* \"#utility.yul\":11823:11827   */\n      dup2\n        /* \"#utility.yul\":11697:11828   */\n      tag_290\n      jump\t// in\n    tag_450:\n        /* \"#utility.yul\":11689:11828   */\n      swap1\n      pop\n        /* \"#utility.yul\":11416:11835   */\n      swap2\n      swap1\n      pop\n      jump\t// out\n        /* \"#utility.yul\":11841:12021   */\n    tag_291:\n        /* \"#utility.yul\":11889:11966   */\n      0x4e487b7100000000000000000000000000000000000000000000000000000000\n        /* \"#utility.yul\":11886:11887   */\n      0x00\n        /* \"#utility.yul\":11879:11967   */\n      mstore\n        /* \"#utility.yul\":11986:11990   */\n      0x22\n        /* \"#utility.yul\":11983:11984   */\n      0x04\n        /* \"#utility.yul\":11976:11991   */\n      mstore\n        /* \"#utility.yul\":12010:12014   */\n      0x24\n        /* \"#utility.yul\":12007:12008   */\n      0x00\n        /* \"#utility.yul\":12000:12015   */\n      revert\n        /* \"#utility.yul\":12027:12347   */\n    tag_133:\n        /* \"#utility.yul\":12071:12077   */\n      0x00\n        /* \"#utility.yul\":12108:12109   */\n      0x02\n        /* \"#utility.yul\":12102:12106   */\n      dup3\n        /* \"#utility.yul\":12098:12110   */\n      div\n        /* \"#utility.yul\":12088:12110   */\n      swap1\n      pop\n        /* \"#utility.yul\":12155:12156   */\n      0x01\n        /* \"#utility.yul\":12149:12153   */\n      dup3\n        /* \"#utility.yul\":12145:12157   */\n      and\n        /* \"#utility.yul\":12176:12194   */\n      dup1\n        /* \"#utility.yul\":12166:12247   */\n      tag_453\n      jumpi\n        /* \"#utility.yul\":12232:12236   */\n      0x7f\n        /* \"#utility.yul\":12224:12230   */\n      dup3\n        /* \"#utility.yul\":12220:12237   */\n      and\n        /* \"#utility.yul\":12210:12237   */\n      swap2\n      pop\n        /* \"#utility.yul\":12166:12247   */\n    tag_453:\n        /* \"#utility.yul\":12294:12296   */\n      0x20\n        /* \"#utility.yul\":12286:12292   */\n      dup3\n        /* \"#utility.yul\":12283:12297   */\n      lt\n        /* \"#utility.yul\":12263:12281   */\n      dup2\n        /* \"#utility.yul\":12260:12298   */\n      sub\n        /* \"#utility.yul\":12257:12341   */\n      tag_454\n      jumpi\n        /* \"#utility.yul\":12313:12331   */\n      tag_455\n      tag_291\n      jump\t// in\n    tag_455:\n        /* \"#utility.yul\":12257:12341   */\n    tag_454:\n        /* \"#utility.yul\":12078:12347   */\n      pop\n        /* \"#utility.yul\":12027:12347   */\n      swap2\n      swap1\n      pop\n      jump\t// out\n        /* \"#utility.yul\":12353:12494   */\n    tag_292:\n        /* \"#utility.yul\":12402:12406   */\n      0x00\n        /* \"#utility.yul\":12425:12428   */\n      dup2\n        /* \"#utility.yul\":12417:12428   */\n      swap1\n      pop\n        /* \"#utility.yul\":12448:12451   */\n      dup2\n        /* \"#utility.yul\":12445:12446   */\n      0x00\n        /* \"#utility.yul\":12438:12452   */\n      mstore\n        /* \"#utility.yul\":12482:12486   */\n      0x20\n        /* \"#utility.yul\":12479:12480   */\n      0x00\n        /* \"#utility.yul\":12469:12487   */\n      keccak256\n        /* \"#utility.yul\":12461:12487   */\n      swap1\n      pop\n        /* \"#utility.yul\":12353:12494   */\n      swap2\n      swap1\n      pop\n      jump\t// out\n        /* \"#utility.yul\":12500:12593   */\n    tag_293:\n        /* \"#utility.yul\":12537:12543   */\n      0x00\n        /* \"#utility.yul\":12584:12586   */\n      0x20\n        /* \"#utility.yul\":12579:12581   */\n      0x1f\n        /* \"#utility.yul\":12572:12577   */\n      dup4\n        /* \"#utility.yul\":12568:12582   */\n      add\n        /* \"#utility.yul\":12564:12587   */\n      div\n        /* \"#utility.yul\":12554:12587   */\n      swap1\n      pop\n        /* \"#utility.yul\":12500:12593   */\n      swap2\n      swap1\n      pop\n      jump\t// out\n        /* \"#utility.yul\":12599:12706   */\n    tag_294:\n        /* \"#utility.yul\":12643:12651   */\n      0x00\n        /* \"#utility.yul\":12693:12698   */\n      dup3\n        /* \"#utility.yul\":12687:12691   */\n      dup3\n        /* \"#utility.yul\":12683:12699   */\n      shl\n        /* \"#utility.yul\":12662:12699   */\n      swap1\n      pop\n        /* \"#utility.yul\":12599:12706   */\n      swap3\n      swap2\n      pop\n      pop\n      jump\t// out\n        /* \"#utility.yul\":12712:13105   */\n    tag_295:\n        /* \"#utility.yul\":12781:12787   */\n      0x00\n        /* \"#utility.yul\":12831:12832   */\n      0x08\n        /* \"#utility.yul\":12819:12829   */\n      dup4\n        /* \"#utility.yul\":12815:12833   */\n      mul\n        /* \"#utility.yul\":12854:12951   */\n      tag_460\n        /* \"#utility.yul\":12884:12950   */\n      0xffffffffffffffffffffffffffffffffffffffffffffffffffffffffffffffff\n        /* \"#utility.yul\":12873:12882   */\n      dup3\n        /* \"#utility.yul\":12854:12951   */\n      tag_294\n      jump\t// in\n    tag_460:\n        /* \"#utility.yul\":12972:13011   */\n      tag_461\n        /* \"#utility.yul\":13002:13010   */\n      dup7\n        /* \"#utility.yul\":12991:13000   */\n      dup4\n        /* \"#utility.yul\":12972:13011   */\n      tag_294\n      jump\t// in\n    tag_461:\n        /* \"#utility.yul\":12960:13011   */\n      swap6\n      pop\n        /* \"#utility.yul\":13044:13048   */\n      dup1\n        /* \"#utility.yul\":13040:13049   */\n      not\n        /* \"#utility.yul\":13033:13038   */\n      dup5\n        /* \"#utility.yul\":13029:13050   */\n      and\n        /* \"#utility.yul\":13020:13050   */\n      swap4\n      pop\n        /* \"#utility.yul\":13093:13097   */\n      dup1\n        /* \"#utility.yul\":13083:13091   */\n      dup7\n        /* \"#utility.yul\":13079:13098   */\n      and\n        /* \"#utility.yul\":13072:13077   */\n      dup5\n        /* \"#utility.yul\":13069:13099   */\n      or\n        /* \"#utility.yul\":13059:13099   */\n      swap3\n      pop\n        /* \"#utility.yul\":12788:13105   */\n      pop\n      pop\n        /* \"#utility.yul\":12712:13105   */\n      swap4\n      swap3\n      pop\n      pop\n      pop\n      jump\t// out\n        /* \"#utility.yul\":13111:13171   */\n    tag_296:\n        /* \"#utility.yul\":13139:13142   */\n      0x00\n        /* \"#utility.yul\":13160:13165   */\n      dup2\n        /* \"#utility.yul\":13153:13165   */\n      swap1\n      pop\n        /* \"#utility.yul\":13111:13171   */\n      swap2\n      swap1\n      pop\n      jump\t// out\n        /* \"#utility.yul\":13177:13319   */\n    tag_297:\n        /* \"#utility.yul\":13227:13236   */\n      0x00\n        /* \"#utility.yul\":13260:13313   */\n      tag_464\n        /* \"#utility.yul\":13278:13312   */\n      tag_465\n        /* \"#utility.yul\":13287:13311   */\n      tag_466\n        /* \"#utility.yul\":13305:13310   */\n      dup5\n        /* \"#utility.yul\":13287:13311   */\n      tag_260\n      jump\t// in\n    tag_466:\n        /* \"#utility.yul\":13278:13312   */\n      tag_296\n      jump\t// in\n    tag_465:\n        /* \"#utility.yul\":13260:13313   */\n      tag_260\n      jump\t// in\n    tag_464:\n        /* \"#utility.yul\":13247:13313   */\n      swap1\n      pop\n        /* \"#utility.yul\":13177:13319   */\n      swap2\n      swap1\n      pop\n      jump\t// out\n        /* \"#utility.yul\":13325:13400   */\n    tag_298:\n        /* \"#utility.yul\":13368:13371   */\n      0x00\n        /* \"#utility.yul\":13389:13394   */\n      dup2\n        /* \"#utility.yul\":13382:13394   */\n      swap1\n      pop\n        /* \"#utility.yul\":13325:13400   */\n      swap2\n      swap1\n      pop\n      jump\t// out\n        /* \"#utility.yul\":13406:13675   */\n    tag_299:\n        /* \"#utility.yul\":13516:13555   */\n      tag_469\n        /* \"#utility.yul\":13547:13554   */\n      dup4\n        /* \"#utility.yul\":13516:13555   */\n      tag_297\n      jump\t// in\n    tag_469:\n        /* \"#utility.yul\":13577:13668   */\n      tag_470\n        /* \"#utility.yul\":13626:13667   */\n      tag_471\n        /* \"#utility.yul\":13650:13666   */\n      dup3\n        /* \"#utility.yul\":13626:13667   */\n      tag_298\n      jump\t// in\n    tag_471:\n        /* \"#utility.yul\":13618:13624   */\n      dup5\n        /* \"#utility.yul\":13611:13615   */\n      dup5\n        /* \"#utility.yul\":13605:13616   */\n      sload\n        /* \"#utility.yul\":13577:13668   */\n      tag_295\n      jump\t// in\n    tag_470:\n        /* \"#utility.yul\":13571:13575   */\n      dup3\n        /* \"#utility.yul\":13564:13669   */\n      sstore\n        /* \"#utility.yul\":13482:13675   */\n      pop\n        /* \"#utility.yul\":13406:13675   */\n      pop\n      pop\n      pop\n      jump\t// out\n        /* \"#utility.yul\":13681:13754   */\n    tag_300:\n        /* \"#utility.yul\":13726:13729   */\n      0x00\n        /* \"#utility.yul\":13681:13754   */\n      swap1\n      jump\t// out\n        /* \"#utility.yul\":13760:13949   */\n    tag_301:\n        /* \"#utility.yul\":13837:13869   */\n      tag_474\n      tag_300\n      jump\t// in\n    tag_474:\n        /* \"#utility.yul\":13878:13943   */\n      tag_475\n        /* \"#utility.yul\":13936:13942   */\n      dup2\n        /* \"#utility.yul\":13928:13934   */\n      dup5\n        /* \"#utility.yul\":13922:13926   */\n      dup5\n        /* \"#utility.yul\":13878:13943   */\n      tag_299\n      jump\t// in\n    tag_475:\n        /* \"#utility.yul\":13813:13949   */\n      pop\n        /* \"#utility.yul\":13760:13949   */\n      pop\n      pop\n      jump\t// out\n        /* \"#utility.yul\":13955:14141   */\n    tag_302:\n        /* \"#utility.yul\":14015:14135   */\n    tag_477:\n        /* \"#utility.yul\":14032:14035   */\n      dup2\n        /* \"#utility.yul\":14025:14030   */\n      dup2\n        /* \"#utility.yul\":14022:14036   */\n      lt\n        /* \"#utility.yul\":14015:14135   */\n      iszero\n      tag_479\n      jumpi\n        /* \"#utility.yul\":14086:14125   */\n      tag_480\n        /* \"#utility.yul\":14123:14124   */\n      0x00\n        /* \"#utility.yul\":14116:14121   */\n      dup3\n        /* \"#utility.yul\":14086:14125   */\n      tag_301\n      jump\t// in\n    tag_480:\n        /* \"#utility.yul\":14059:14060   */\n      0x01\n        /* \"#utility.yul\":14052:14057   */\n      dup2\n        /* \"#utility.yul\":14048:14061   */\n      add\n        /* \"#utility.yul\":14039:14061   */\n      swap1\n      pop\n        /* \"#utility.yul\":14015:14135   */\n      jump(tag_477)\n    tag_479:\n        /* \"#utility.yul\":13955:14141   */\n      pop\n      pop\n      jump\t// out\n        /* \"#utility.yul\":14147:14690   */\n    tag_303:\n        /* \"#utility.yul\":14248:14250   */\n      0x1f\n        /* \"#utility.yul\":14243:14246   */\n      dup3\n        /* \"#utility.yul\":14240:14251   */\n      gt\n        /* \"#utility.yul\":14237:14683   */\n      iszero\n      tag_482\n      jumpi\n        /* \"#utility.yul\":14282:14320   */\n      tag_483\n        /* \"#utility.yul\":14314:14319   */\n      dup2\n        /* \"#utility.yul\":14282:14320   */\n      tag_292\n      jump\t// in\n    tag_483:\n        /* \"#utility.yul\":14366:14395   */\n      tag_484\n        /* \"#utility.yul\":14384:14394   */\n      dup5\n        /* \"#utility.yul\":14366:14395   */\n      tag_293\n      jump\t// in\n    tag_484:\n        /* \"#utility.yul\":14356:14364   */\n      dup2\n        /* \"#utility.yul\":14352:14396   */\n      add\n        /* \"#utility.yul\":14549:14551   */\n      0x20\n        /* \"#utility.yul\":14537:14547   */\n      dup6\n        /* \"#utility.yul\":14534:14552   */\n      lt\n        /* \"#utility.yul\":14531:14580   */\n      iszero\n      tag_485\n      jumpi\n        /* \"#utility.yul\":14570:14578   */\n      dup2\n        /* \"#utility.yul\":14555:14578   */\n      swap1\n      pop\n        /* \"#utility.yul\":14531:14580   */\n    tag_485:\n        /* \"#utility.yul\":14593:14673   */\n      tag_486\n        /* \"#utility.yul\":14649:14671   */\n      tag_487\n        /* \"#utility.yul\":14667:14670   */\n      dup6\n        /* \"#utility.yul\":14649:14671   */\n      tag_293\n      jump\t// in\n    tag_487:\n        /* \"#utility.yul\":14639:14647   */\n      dup4\n        /* \"#utility.yul\":14635:14672   */\n      add\n        /* \"#utility.yul\":14622:14633   */\n      dup3\n        /* \"#utility.yul\":14593:14673   */\n      tag_302\n      jump\t// in\n    tag_486:\n        /* \"#utility.yul\":14252:14683   */\n      pop\n      pop\n        /* \"#utility.yul\":14237:14683   */\n    tag_482:\n        /* \"#utility.yul\":14147:14690   */\n      pop\n      pop\n      pop\n      jump\t// out\n        /* \"#utility.yul\":14696:14813   */\n    tag_304:\n        /* \"#utility.yul\":14750:14758   */\n      0x00\n        /* \"#utility.yul\":14800:14805   */\n      dup3\n        /* \"#utility.yul\":14794:14798   */\n      dup3\n        /* \"#utility.yul\":14790:14806   */\n      shr\n        /* \"#utility.yul\":14769:14806   */\n      swap1\n      pop\n        /* \"#utility.yul\":14696:14813   */\n      swap3\n      swap2\n      pop\n      pop\n      jump\t// out\n        /* \"#utility.yul\":14819:14988   */\n    tag_305:\n        /* \"#utility.yul\":14863:14869   */\n      0x00\n        /* \"#utility.yul\":14896:14947   */\n      tag_490\n        /* \"#utility.yul\":14944:14945   */\n      0x00\n        /* \"#utility.yul\":14940:14946   */\n      not\n        /* \"#utility.yul\":14932:14937   */\n      dup5\n        /* \"#utility.yul\":14929:14930   */\n      0x08\n        /* \"#utility.yul\":14925:14938   */\n      mul\n        /* \"#utility.yul\":14896:14947   */\n      tag_304\n      jump\t// in\n    tag_490:\n        /* \"#utility.yul\":14892:14948   */\n      not\n        /* \"#utility.yul\":14977:14981   */\n      dup1\n        /* \"#utility.yul\":14971:14975   */\n      dup4\n        /* \"#utility.yul\":14967:14982   */\n      and\n        /* \"#utility.yul\":14957:14982   */\n      swap2\n      pop\n        /* \"#utility.yul\":14870:14988   */\n      pop\n        /* \"#utility.yul\":14819:14988   */\n      swap3\n      swap2\n      pop\n      pop\n      jump\t// out\n        /* \"#utility.yul\":14993:15288   */\n    tag_306:\n        /* \"#utility.yul\":15069:15073   */\n      0x00\n        /* \"#utility.yul\":15215:15244   */\n      tag_492\n        /* \"#utility.yul\":15240:15243   */\n      dup4\n        /* \"#utility.yul\":15234:15238   */\n      dup4\n        /* \"#utility.yul\":15215:15244   */\n      tag_305\n      jump\t// in\n    tag_492:\n        /* \"#utility.yul\":15207:15244   */\n      swap2\n      pop\n        /* \"#utility.yul\":15277:15280   */\n      dup3\n        /* \"#utility.yul\":15274:15275   */\n      0x02\n        /* \"#utility.yul\":15270:15281   */\n      mul\n        /* \"#utility.yul\":15264:15268   */\n      dup3\n        /* \"#utility.yul\":15261:15282   */\n      or\n        /* \"#utility.yul\":15253:15282   */\n      swap1\n      pop\n        /* \"#utility.yul\":14993:15288   */\n      swap3\n      swap2\n      pop\n      pop\n      jump\t// out\n        /* \"#utility.yul\":15293:16688   */\n    tag_85:\n        /* \"#utility.yul\":15410:15447   */\n      tag_494\n        /* \"#utility.yul\":15443:15446   */\n      dup3\n        /* \"#utility.yul\":15410:15447   */\n      tag_266\n      jump\t// in\n    tag_494:\n        /* \"#utility.yul\":15512:15530   */\n      0xffffffffffffffff\n        /* \"#utility.yul\":15504:15510   */\n      dup2\n        /* \"#utility.yul\":15501:15531   */\n      gt\n        /* \"#utility.yul\":15498:15554   */\n      iszero\n      tag_495\n      jumpi\n        /* \"#utility.yul\":15534:15552   */\n      tag_496\n      tag_275\n      jump\t// in\n    tag_496:\n        /* \"#utility.yul\":15498:15554   */\n    tag_495:\n        /* \"#utility.yul\":15578:15616   */\n      tag_497\n        /* \"#utility.yul\":15610:15614   */\n      dup3\n        /* \"#utility.yul\":15604:15615   */\n      sload\n        /* \"#utility.yul\":15578:15616   */\n      tag_133\n      jump\t// in\n    tag_497:\n        /* \"#utility.yul\":15663:15730   */\n      tag_498\n        /* \"#utility.yul\":15723:15729   */\n      dup3\n        /* \"#utility.yul\":15715:15721   */\n      dup3\n        /* \"#utility.yul\":15709:15713   */\n      dup6\n        /* \"#utility.yul\":15663:15730   */\n      tag_303\n      jump\t// in\n    tag_498:\n        /* \"#utility.yul\":15757:15758   */\n      0x00\n        /* \"#utility.yul\":15781:15785   */\n      0x20\n        /* \"#utility.yul\":15768:15785   */\n      swap1\n      pop\n        /* \"#utility.yul\":15813:15815   */\n      0x1f\n        /* \"#utility.yul\":15805:15811   */\n      dup4\n        /* \"#utility.yul\":15802:15816   */\n      gt\n        /* \"#utility.yul\":15830:15831   */\n      0x01\n        /* \"#utility.yul\":15825:16443   */\n      dup2\n      eq\n      tag_500\n      jumpi\n        /* \"#utility.yul\":16487:16488   */\n      0x00\n        /* \"#utility.yul\":16504:16510   */\n      dup5\n        /* \"#utility.yul\":16501:16578   */\n      iszero\n      tag_501\n      jumpi\n        /* \"#utility.yul\":16553:16562   */\n      dup3\n        /* \"#utility.yul\":16548:16551   */\n      dup8\n        /* \"#utility.yul\":16544:16563   */\n      add\n        /* \"#utility.yul\":16538:16564   */\n      mload\n        /* \"#utility.yul\":16529:16564   */\n      swap1\n      pop\n        /* \"#utility.yul\":16501:16578   */\n    tag_501:\n        /* \"#utility.yul\":16604:16671   */\n      tag_502\n        /* \"#utility.yul\":16664:16670   */\n      dup6\n        /* \"#utility.yul\":16657:16662   */\n      dup3\n        /* \"#utility.yul\":16604:16671   */\n      tag_306\n      jump\t// in\n    tag_502:\n        /* \"#utility.yul\":16598:16602   */\n      dup7\n        /* \"#utility.yul\":16591:16672   */\n      sstore\n        /* \"#utility.yul\":16460:16682   */\n      pop\n        /* \"#utility.yul\":15795:16682   */\n      jump(tag_499)\n        /* \"#utility.yul\":15825:16443   */\n    tag_500:\n        /* \"#utility.yul\":15877:15881   */\n      0x1f\n        /* \"#utility.yul\":15873:15882   */\n      not\n        /* \"#utility.yul\":15865:15871   */\n      dup5\n        /* \"#utility.yul\":15861:15883   */\n      and\n        /* \"#utility.yul\":15911:15948   */\n      tag_503\n        /* \"#utility.yul\":15943:15947   */\n      dup7\n        /* \"#utility.yul\":15911:15948   */\n      tag_292\n      jump\t// in\n    tag_503:\n        /* \"#utility.yul\":15970:15971   */\n      0x00\n        /* \"#utility.yul\":15984:16192   */\n    tag_504:\n        /* \"#utility.yul\":15998:16005   */\n      dup3\n        /* \"#utility.yul\":15995:15996   */\n      dup2\n        /* \"#utility.yul\":15992:16006   */\n      lt\n        /* \"#utility.yul\":15984:16192   */\n      iszero\n      tag_506\n      jumpi\n        /* \"#utility.yul\":16077:16086   */\n      dup5\n        /* \"#utility.yul\":16072:16075   */\n      dup10\n        /* \"#utility.yul\":16068:16087   */\n      add\n        /* \"#utility.yul\":16062:16088   */\n      mload\n        /* \"#utility.yul\":16054:16060   */\n      dup3\n        /* \"#utility.yul\":16047:16089   */\n      sstore\n        /* \"#utility.yul\":16128:16129   */\n      0x01\n        /* \"#utility.yul\":16120:16126   */\n      dup3\n        /* \"#utility.yul\":16116:16130   */\n      add\n        /* \"#utility.yul\":16106:16130   */\n      swap2\n      pop\n        /* \"#utility.yul\":16175:16177   */\n      0x20\n        /* \"#utility.yul\":16164:16173   */\n      dup6\n        /* \"#utility.yul\":16160:16178   */\n      add\n        /* \"#utility.yul\":16147:16178   */\n      swap5\n      pop\n        /* \"#utility.yul\":16021:16025   */\n      0x20\n        /* \"#utility.yul\":16018:16019   */\n      dup2\n        /* \"#utility.yul\":16014:16026   */\n      add\n        /* \"#utility.yul\":16009:16026   */\n      swap1\n      pop\n        /* \"#utility.yul\":15984:16192   */\n      jump(tag_504)\n    tag_506:\n        /* \"#utility.yul\":16220:16226   */\n      dup7\n        /* \"#utility.yul\":16211:16218   */\n      dup4\n        /* \"#utility.yul\":16208:16227   */\n      lt\n        /* \"#utility.yul\":16205:16384   */\n      iszero\n      tag_507\n      jumpi\n        /* \"#utility.yul\":16278:16287   */\n      dup5\n        /* \"#utility.yul\":16273:16276   */\n      dup10\n        /* \"#utility.yul\":16269:16288   */\n      add\n        /* \"#utility.yul\":16263:16289   */\n      mload\n        /* \"#utility.yul\":16321:16369   */\n      tag_508\n        /* \"#utility.yul\":16363:16367   */\n      0x1f\n        /* \"#utility.yul\":16355:16361   */\n      dup10\n        /* \"#utility.yul\":16351:16368   */\n      and\n        /* \"#utility.yul\":16340:16349   */\n      dup3\n        /* \"#utility.yul\":16321:16369   */\n      tag_305\n      jump\t// in\n    tag_508:\n        /* \"#utility.yul\":16313:16319   */\n      dup4\n        /* \"#utility.yul\":16306:16370   */\n      sstore\n        /* \"#utility.yul\":16228:16384   */\n      pop\n        /* \"#utility.yul\":16205:16384   */\n    tag_507:\n        /* \"#utility.yul\":16430:16431   */\n      0x01\n        /* \"#utility.yul\":16426:16427   */\n      0x02\n        /* \"#utility.yul\":16418:16424   */\n      dup9\n        /* \"#utility.yul\":16414:16428   */\n      mul\n        /* \"#utility.yul\":16410:16432   */\n      add\n        /* \"#utility.yul\":16404:16408   */\n      dup9\n        /* \"#utility.yul\":16397:16433   */\n      sstore\n        /* \"#utility.yul\":15832:16443   */\n      pop\n      pop\n      pop\n        /* \"#utility.yul\":15795:16682   */\n    tag_499:\n      pop\n        /* \"#utility.yul\":15385:16688   */\n      pop\n      pop\n      pop\n        /* \"#utility.yul\":15293:16688   */\n      pop\n      pop\n      jump\t// out\n        /* \"#utility.yul\":16694:16842   */\n    tag_307:\n        /* \"#utility.yul\":16796:16807   */\n      0x00\n        /* \"#utility.yul\":16833:16836   */\n      dup2\n        /* \"#utility.yul\":16818:16836   */\n      swap1\n      pop\n        /* \"#utility.yul\":16694:16842   */\n      swap3\n      swap2\n      pop\n      pop\n      jump\t// out\n        /* \"#utility.yul\":16848:17004   */\n    tag_308:\n        /* \"#utility.yul\":16988:16996   */\n      0x6661696c65640000000000000000000000000000000000000000000000000000\n        /* \"#utility.yul\":16984:16985   */\n      0x00\n        /* \"#utility.yul\":16976:16982   */\n      dup3\n        /* \"#utility.yul\":16972:16986   */\n      add\n        /* \"#utility.yul\":16965:16997   */\n      mstore\n        /* \"#utility.yul\":16848:17004   */\n      pop\n      jump\t// out\n        /* \"#utility.yul\":17010:17410   */\n    tag_309:\n        /* \"#utility.yul\":17170:17173   */\n      0x00\n        /* \"#utility.yul\":17191:17275   */\n      tag_512\n        /* \"#utility.yul\":17273:17274   */\n      0x06\n        /* \"#utility.yul\":17268:17271   */\n      dup4\n        /* \"#utility.yul\":17191:17275   */\n      tag_307\n      jump\t// in\n    tag_512:\n        /* \"#utility.yul\":17184:17275   */\n      swap2\n      pop\n        /* \"#utility.yul\":17284:17377   */\n      tag_513\n        /* \"#utility.yul\":17373:17376   */\n      dup3\n        /* \"#utility.yul\":17284:17377   */\n      tag_308\n      jump\t// in\n    tag_513:\n        /* \"#utility.yul\":17402:17403   */\n      0x06\n        /* \"#utility.yul\":17397:17400   */\n      dup3\n        /* \"#utility.yul\":17393:17404   */\n      add\n        /* \"#utility.yul\":17386:17404   */\n      swap1\n      pop\n        /* \"#utility.yul\":17010:17410   */\n      swap2\n      swap1\n      pop\n      jump\t// out\n        /* \"#utility.yul\":17416:17797   */\n    tag_96:\n        /* \"#utility.yul\":17601:17604   */\n      0x00\n        /* \"#utility.yul\":17623:17771   */\n      tag_515\n        /* \"#utility.yul\":17767:17770   */\n      dup3\n        /* \"#utility.yul\":17623:17771   */\n      tag_309\n      jump\t// in\n    tag_515:\n        /* \"#utility.yul\":17616:17771   */\n      swap2\n      pop\n        /* \"#utility.yul\":17788:17791   */\n      dup2\n        /* \"#utility.yul\":17781:17791   */\n      swap1\n      pop\n        /* \"#utility.yul\":17416:17797   */\n      swap2\n      swap1\n      pop\n      jump\t// out\n        /* \"#utility.yul\":17827:18701   */\n    tag_310:\n        /* \"#utility.yul\":17930:17933   */\n      0x00\n        /* \"#utility.yul\":17967:17972   */\n      dup2\n        /* \"#utility.yul\":17961:17973   */\n      sload\n        /* \"#utility.yul\":17996:18032   */\n      tag_517\n        /* \"#utility.yul\":18022:18031   */\n      dup2\n        /* \"#utility.yul\":17996:18032   */\n      tag_133\n      jump\t// in\n    tag_517:\n        /* \"#utility.yul\":18048:18137   */\n      tag_518\n        /* \"#utility.yul\":18130:18136   */\n      dup2\n        /* \"#utility.yul\":18125:18128   */\n      dup7\n        /* \"#utility.yul\":18048:18137   */\n      tag_307\n      jump\t// in\n    tag_518:\n        /* \"#utility.yul\":18041:18137   */\n      swap5\n      pop\n        /* \"#utility.yul\":18168:18169   */\n      0x01\n        /* \"#utility.yul\":18157:18166   */\n      dup3\n        /* \"#utility.yul\":18153:18170   */\n      and\n        /* \"#utility.yul\":18184:18185   */\n      0x00\n        /* \"#utility.yul\":18179:18345   */\n      dup2\n      eq\n      tag_520\n      jumpi\n        /* \"#utility.yul\":18359:18360   */\n      0x01\n        /* \"#utility.yul\":18354:18695   */\n      dup2\n      eq\n      tag_521\n      jumpi\n        /* \"#utility.yul\":18146:18695   */\n      jump(tag_519)\n        /* \"#utility.yul\":18179:18345   */\n    tag_520:\n        /* \"#utility.yul\":18263:18267   */\n      0xff\n        /* \"#utility.yul\":18259:18268   */\n      not\n        /* \"#utility.yul\":18248:18257   */\n      dup4\n        /* \"#utility.yul\":18244:18269   */\n      and\n        /* \"#utility.yul\":18239:18242   */\n      dup7\n        /* \"#utility.yul\":18232:18270   */\n      mstore\n        /* \"#utility.yul\":18325:18331   */\n      dup2\n        /* \"#utility.yul\":18318:18332   */\n      iszero\n        /* \"#utility.yul\":18311:18333   */\n      iszero\n        /* \"#utility.yul\":18303:18309   */\n      dup3\n        /* \"#utility.yul\":18299:18334   */\n      mul\n        /* \"#utility.yul\":18294:18297   */\n      dup7\n        /* \"#utility.yul\":18290:18335   */\n      add\n        /* \"#utility.yul\":18283:18335   */\n      swap4\n      pop\n        /* \"#utility.yul\":18179:18345   */\n      jump(tag_519)\n        /* \"#utility.yul\":18354:18695   */\n    tag_521:\n        /* \"#utility.yul\":18421:18459   */\n      tag_522\n        /* \"#utility.yul\":18453:18458   */\n      dup6\n        /* \"#utility.yul\":18421:18459   */\n      tag_292\n      jump\t// in\n    tag_522:\n        /* \"#utility.yul\":18481:18482   */\n      0x00\n        /* \"#utility.yul\":18495:18649   */\n    tag_523:\n        /* \"#utility.yul\":18509:18515   */\n      dup4\n        /* \"#utility.yul\":18506:18507   */\n      dup2\n        /* \"#utility.yul\":18503:18516   */\n      lt\n        /* \"#utility.yul\":18495:18649   */\n      iszero\n      tag_525\n      jumpi\n        /* \"#utility.yul\":18583:18590   */\n      dup2\n        /* \"#utility.yul\":18577:18591   */\n      sload\n        /* \"#utility.yul\":18573:18574   */\n      dup2\n        /* \"#utility.yul\":18568:18571   */\n      dup10\n        /* \"#utility.yul\":18564:18575   */\n      add\n        /* \"#utility.yul\":18557:18592   */\n      mstore\n        /* \"#utility.yul\":18633:18634   */\n      0x01\n        /* \"#utility.yul\":18624:18631   */\n      dup3\n        /* \"#utility.yul\":18620:18635   */\n      add\n        /* \"#utility.yul\":18609:18635   */\n      swap2\n      pop\n        /* \"#utility.yul\":18531:18535   */\n      0x20\n        /* \"#utility.yul\":18528:18529   */\n      dup2\n        /* \"#utility.yul\":18524:18536   */\n      add\n        /* \"#utility.yul\":18519:18536   */\n      swap1\n      pop\n        /* \"#utility.yul\":18495:18649   */\n      jump(tag_523)\n    tag_525:\n        /* \"#utility.yul\":18678:18684   */\n      dup4\n        /* \"#utility.yul\":18673:18676   */\n      dup9\n        /* \"#utility.yul\":18669:18685   */\n      add\n        /* \"#utility.yul\":18662:18685   */\n      swap6\n      pop\n        /* \"#utility.yul\":18361:18695   */\n      pop\n      pop\n        /* \"#utility.yul\":18146:18695   */\n    tag_519:\n      pop\n        /* \"#utility.yul\":17934:18701   */\n      pop\n      pop\n        /* \"#utility.yul\":17827:18701   */\n      swap3\n      swap2\n      pop\n      pop\n      jump\t// out\n        /* \"#utility.yul\":18707:18976   */\n    tag_101:\n        /* \"#utility.yul\":18836:18839   */\n      0x00\n        /* \"#utility.yul\":18858:18950   */\n      tag_527\n        /* \"#utility.yul\":18946:18949   */\n      dup3\n        /* \"#utility.yul\":18937:18943   */\n      dup5\n        /* \"#utility.yul\":18858:18950   */\n      tag_310\n      jump\t// in\n    tag_527:\n        /* \"#utility.yul\":18851:18950   */\n      swap2\n      pop\n        /* \"#utility.yul\":18967:18970   */\n      dup2\n        /* \"#utility.yul\":18960:18970   */\n      swap1\n      pop\n        /* \"#utility.yul\":18707:18976   */\n      swap3\n      swap2\n      pop\n      pop\n      jump\t// out\n        /* \"#utility.yul\":18982:19157   */\n    tag_311:\n        /* \"#utility.yul\":19122:19149   */\n      0x496e61766c6964207472616e73616374696f6e20696e64657800000000000000\n        /* \"#utility.yul\":19118:19119   */\n      0x00\n        /* \"#utility.yul\":19110:19116   */\n      dup3\n        /* \"#utility.yul\":19106:19120   */\n      add\n        /* \"#utility.yul\":19099:19150   */\n      mstore\n        /* \"#utility.yul\":18982:19157   */\n      pop\n      jump\t// out\n        /* \"#utility.yul\":19163:19529   */\n    tag_312:\n        /* \"#utility.yul\":19305:19308   */\n      0x00\n        /* \"#utility.yul\":19326:19393   */\n      tag_530\n        /* \"#utility.yul\":19390:19392   */\n      0x19\n        /* \"#utility.yul\":19385:19388   */\n      dup4\n        /* \"#utility.yul\":19326:19393   */\n      tag_267\n      jump\t// in\n    tag_530:\n        /* \"#utility.yul\":19319:19393   */\n      swap2\n      pop\n        /* \"#utility.yul\":19402:19495   */\n      tag_531\n        /* \"#utility.yul\":19491:19494   */\n      dup3\n        /* \"#utility.yul\":19402:19495   */\n      tag_311\n      jump\t// in\n    tag_531:\n        /* \"#utility.yul\":19520:19522   */\n      0x20\n        /* \"#utility.yul\":19515:19518   */\n      dup3\n        /* \"#utility.yul\":19511:19523   */\n      add\n        /* \"#utility.yul\":19504:19523   */\n      swap1\n      pop\n        /* \"#utility.yul\":19163:19529   */\n      swap2\n      swap1\n      pop\n      jump\t// out\n        /* \"#utility.yul\":19535:19954   */\n    tag_116:\n        /* \"#utility.yul\":19701:19705   */\n      0x00\n        /* \"#utility.yul\":19739:19741   */\n      0x20\n        /* \"#utility.yul\":19728:19737   */\n      dup3\n        /* \"#utility.yul\":19724:19742   */\n      add\n        /* \"#utility.yul\":19716:19742   */\n      swap1\n      pop\n        /* \"#utility.yul\":19788:19797   */\n      dup2\n        /* \"#utility.yul\":19782:19786   */\n      dup2\n        /* \"#utility.yul\":19778:19798   */\n      sub\n        /* \"#utility.yul\":19774:19775   */\n      0x00\n        /* \"#utility.yul\":19763:19772   */\n      dup4\n        /* \"#utility.yul\":19759:19776   */\n      add\n        /* \"#utility.yul\":19752:19799   */\n      mstore\n        /* \"#utility.yul\":19816:19947   */\n      tag_533\n        /* \"#utility.yul\":19942:19946   */\n      dup2\n        /* \"#utility.yul\":19816:19947   */\n      tag_312\n      jump\t// in\n    tag_533:\n        /* \"#utility.yul\":19808:19947   */\n      swap1\n      pop\n        /* \"#utility.yul\":19535:19954   */\n      swap2\n      swap1\n      pop\n      jump\t// out\n        /* \"#utility.yul\":19960:20140   */\n    tag_313:\n        /* \"#utility.yul\":20100:20132   */\n      0x546865206d656d6265722073686f756c64206e6f7420626520656d7074790000\n        /* \"#utility.yul\":20096:20097   */\n      0x00\n        /* \"#utility.yul\":20088:20094   */\n      dup3\n        /* \"#utility.yul\":20084:20098   */\n      add\n        /* \"#utility.yul\":20077:20133   */\n      mstore\n        /* \"#utility.yul\":19960:20140   */\n      pop\n      jump\t// out\n        /* \"#utility.yul\":20146:20512   */\n    tag_314:\n        /* \"#utility.yul\":20288:20291   */\n      0x00\n        /* \"#utility.yul\":20309:20376   */\n      tag_536\n        /* \"#utility.yul\":20373:20375   */\n      0x1e\n        /* \"#utility.yul\":20368:20371   */\n      dup4\n        /* \"#utility.yul\":20309:20376   */\n      tag_267\n      jump\t// in\n    tag_536:\n        /* \"#utility.yul\":20302:20376   */\n      swap2\n      pop\n        /* \"#utility.yul\":20385:20478   */\n      tag_537\n        /* \"#utility.yul\":20474:20477   */\n      dup3\n        /* \"#utility.yul\":20385:20478   */\n      tag_313\n      jump\t// in\n    tag_537:\n        /* \"#utility.yul\":20503:20505   */\n      0x20\n        /* \"#utility.yul\":20498:20501   */\n      dup3\n        /* \"#utility.yul\":20494:20506   */\n      add\n        /* \"#utility.yul\":20487:20506   */\n      swap1\n      pop\n        /* \"#utility.yul\":20146:20512   */\n      swap2\n      swap1\n      pop\n      jump\t// out\n        /* \"#utility.yul\":20518:20937   */\n    tag_141:\n        /* \"#utility.yul\":20684:20688   */\n      0x00\n        /* \"#utility.yul\":20722:20724   */\n      0x20\n        /* \"#utility.yul\":20711:20720   */\n      dup3\n        /* \"#utility.yul\":20707:20725   */\n      add\n        /* \"#utility.yul\":20699:20725   */\n      swap1\n      pop\n        /* \"#utility.yul\":20771:20780   */\n      dup2\n        /* \"#utility.yul\":20765:20769   */\n      dup2\n        /* \"#utility.yul\":20761:20781   */\n      sub\n        /* \"#utility.yul\":20757:20758   */\n      0x00\n        /* \"#utility.yul\":20746:20755   */\n      dup4\n        /* \"#utility.yul\":20742:20759   */\n      add\n        /* \"#utility.yul\":20735:20782   */\n      mstore\n        /* \"#utility.yul\":20799:20930   */\n      tag_539\n        /* \"#utility.yul\":20925:20929   */\n      dup2\n        /* \"#utility.yul\":20799:20930   */\n      tag_314\n      jump\t// in\n    tag_539:\n        /* \"#utility.yul\":20791:20930   */\n      swap1\n      pop\n        /* \"#utility.yul\":20518:20937   */\n      swap2\n      swap1\n      pop\n      jump\t// out\n        /* \"#utility.yul\":20943:21174   */\n    tag_315:\n        /* \"#utility.yul\":21083:21117   */\n      0x5468652077696e6e696e6720637265646974732073686f756c64206265206772\n        /* \"#utility.yul\":21079:21080   */\n      0x00\n        /* \"#utility.yul\":21071:21077   */\n      dup3\n        /* \"#utility.yul\":21067:21081   */\n      add\n        /* \"#utility.yul\":21060:21118   */\n      mstore\n        /* \"#utility.yul\":21152:21166   */\n      0x6561746572207468616e20300000000000000000000000000000000000000000\n        /* \"#utility.yul\":21147:21149   */\n      0x20\n        /* \"#utility.yul\":21139:21145   */\n      dup3\n        /* \"#utility.yul\":21135:21150   */\n      add\n        /* \"#utility.yul\":21128:21167   */\n      mstore\n        /* \"#utility.yul\":20943:21174   */\n      pop\n      jump\t// out\n        /* \"#utility.yul\":21180:21546   */\n    tag_316:\n        /* \"#utility.yul\":21322:21325   */\n      0x00\n        /* \"#utility.yul\":21343:21410   */\n      tag_542\n        /* \"#utility.yul\":21407:21409   */\n      0x2c\n        /* \"#utility.yul\":21402:21405   */\n      dup4\n        /* \"#utility.yul\":21343:21410   */\n      tag_267\n      jump\t// in\n    tag_542:\n        /* \"#utility.yul\":21336:21410   */\n      swap2\n      pop\n        /* \"#utility.yul\":21419:21512   */\n      tag_543\n        /* \"#utility.yul\":21508:21511   */\n      dup3\n        /* \"#utility.yul\":21419:21512   */\n      tag_315\n      jump\t// in\n    tag_543:\n        /* \"#utility.yul\":21537:21539   */\n      0x40\n        /* \"#utility.yul\":21532:21535   */\n      dup3\n        /* \"#utility.yul\":21528:21540   */\n      add\n        /* \"#utility.yul\":21521:21540   */\n      swap1\n      pop\n        /* \"#utility.yul\":21180:21546   */\n      swap2\n      swap1\n      pop\n      jump\t// out\n        /* \"#utility.yul\":21552:21971   */\n    tag_144:\n        /* \"#utility.yul\":21718:21722   */\n      0x00\n        /* \"#utility.yul\":21756:21758   */\n      0x20\n        /* \"#utility.yul\":21745:21754   */\n      dup3\n        /* \"#utility.yul\":21741:21759   */\n      add\n        /* \"#utility.yul\":21733:21759   */\n      swap1\n      pop\n        /* \"#utility.yul\":21805:21814   */\n      dup2\n        /* \"#utility.yul\":21799:21803   */\n      dup2\n        /* \"#utility.yul\":21795:21815   */\n      sub\n        /* \"#utility.yul\":21791:21792   */\n      0x00\n        /* \"#utility.yul\":21780:21789   */\n      dup4\n        /* \"#utility.yul\":21776:21793   */\n      add\n        /* \"#utility.yul\":21769:21816   */\n      mstore\n        /* \"#utility.yul\":21833:21964   */\n      tag_545\n        /* \"#utility.yul\":21959:21963   */\n      dup2\n        /* \"#utility.yul\":21833:21964   */\n      tag_316\n      jump\t// in\n    tag_545:\n        /* \"#utility.yul\":21825:21964   */\n      swap1\n      pop\n        /* \"#utility.yul\":21552:21971   */\n      swap2\n      swap1\n      pop\n      jump\t// out\n        /* \"#utility.yul\":21977:22200   */\n    tag_317:\n        /* \"#utility.yul\":22117:22151   */\n      0x546865206465706c6f7965722073686f756c64206e6f742062652061206d656d\n        /* \"#utility.yul\":22113:22114   */\n      0x00\n        /* \"#utility.yul\":22105:22111   */\n      dup3\n        /* \"#utility.yul\":22101:22115   */\n      add\n        /* \"#utility.yul\":22094:22152   */\n      mstore\n        /* \"#utility.yul\":22186:22192   */\n      0x6562657200000000000000000000000000000000000000000000000000000000\n        /* \"#utility.yul\":22181:22183   */\n      0x20\n        /* \"#utility.yul\":22173:22179   */\n      dup3\n        /* \"#utility.yul\":22169:22184   */\n      add\n        /* \"#utility.yul\":22162:22193   */\n      mstore\n        /* \"#utility.yul\":21977:22200   */\n      pop\n      jump\t// out\n        /* \"#utility.yul\":22206:22572   */\n    tag_318:\n        /* \"#utility.yul\":22348:22351   */\n      0x00\n        /* \"#utility.yul\":22369:22436   */\n      tag_548\n        /* \"#utility.yul\":22433:22435   */\n      0x24\n        /* \"#utility.yul\":22428:22431   */\n      dup4\n        /* \"#utility.yul\":22369:22436   */\n      tag_267\n      jump\t// in\n    tag_548:\n        /* \"#utility.yul\":22362:22436   */\n      swap2\n      pop\n        /* \"#utility.yul\":22445:22538   */\n      tag_549\n        /* \"#utility.yul\":22534:22537   */\n      dup3\n        /* \"#utility.yul\":22445:22538   */\n      tag_317\n      jump\t// in\n    tag_549:\n        /* \"#utility.yul\":22563:22565   */\n      0x40\n        /* \"#utility.yul\":22558:22561   */\n      dup3\n        /* \"#utility.yul\":22554:22566   */\n      add\n        /* \"#utility.yul\":22547:22566   */\n      swap1\n      pop\n        /* \"#utility.yul\":22206:22572   */\n      swap2\n      swap1\n      pop\n      jump\t// out\n        /* \"#utility.yul\":22578:22997   */\n    tag_154:\n        /* \"#utility.yul\":22744:22748   */\n      0x00\n        /* \"#utility.yul\":22782:22784   */\n      0x20\n        /* \"#utility.yul\":22771:22780   */\n      dup3\n        /* \"#utility.yul\":22767:22785   */\n      add\n        /* \"#utility.yul\":22759:22785   */\n      swap1\n      pop\n        /* \"#utility.yul\":22831:22840   */\n      dup2\n        /* \"#utility.yul\":22825:22829   */\n      dup2\n        /* \"#utility.yul\":22821:22841   */\n      sub\n        /* \"#utility.yul\":22817:22818   */\n      0x00\n        /* \"#utility.yul\":22806:22815   */\n      dup4\n        /* \"#utility.yul\":22802:22819   */\n      add\n        /* \"#utility.yul\":22795:22842   */\n      mstore\n        /* \"#utility.yul\":22859:22990   */\n      tag_551\n        /* \"#utility.yul\":22985:22989   */\n      dup2\n        /* \"#utility.yul\":22859:22990   */\n      tag_318\n      jump\t// in\n    tag_551:\n        /* \"#utility.yul\":22851:22990   */\n      swap1\n      pop\n        /* \"#utility.yul\":22578:22997   */\n      swap2\n      swap1\n      pop\n      jump\t// out\n        /* \"#utility.yul\":23003:23230   */\n    tag_319:\n        /* \"#utility.yul\":23143:23177   */\n      0x5468652077616c6c657420697320616c7265616479207365742063616e742073\n        /* \"#utility.yul\":23139:23140   */\n      0x00\n        /* \"#utility.yul\":23131:23137   */\n      dup3\n        /* \"#utility.yul\":23127:23141   */\n      add\n        /* \"#utility.yul\":23120:23178   */\n      mstore\n        /* \"#utility.yul\":23212:23222   */\n      0x657420616761696e000000000000000000000000000000000000000000000000\n        /* \"#utility.yul\":23207:23209   */\n      0x20\n        /* \"#utility.yul\":23199:23205   */\n      dup3\n        /* \"#utility.yul\":23195:23210   */\n      add\n        /* \"#utility.yul\":23188:23223   */\n      mstore\n        /* \"#utility.yul\":23003:23230   */\n      pop\n      jump\t// out\n        /* \"#utility.yul\":23236:23602   */\n    tag_320:\n        /* \"#utility.yul\":23378:23381   */\n      0x00\n        /* \"#utility.yul\":23399:23466   */\n      tag_554\n        /* \"#utility.yul\":23463:23465   */\n      0x28\n        /* \"#utility.yul\":23458:23461   */\n      dup4\n        /* \"#utility.yul\":23399:23466   */\n      tag_267\n      jump\t// in\n    tag_554:\n        /* \"#utility.yul\":23392:23466   */\n      swap2\n      pop\n        /* \"#utility.yul\":23475:23568   */\n      tag_555\n        /* \"#utility.yul\":23564:23567   */\n      dup3\n        /* \"#utility.yul\":23475:23568   */\n      tag_319\n      jump\t// in\n    tag_555:\n        /* \"#utility.yul\":23593:23595   */\n      0x40\n        /* \"#utility.yul\":23588:23591   */\n      dup3\n        /* \"#utility.yul\":23584:23596   */\n      add\n        /* \"#utility.yul\":23577:23596   */\n      swap1\n      pop\n        /* \"#utility.yul\":23236:23602   */\n      swap2\n      swap1\n      pop\n      jump\t// out\n        /* \"#utility.yul\":23608:24027   */\n    tag_157:\n        /* \"#utility.yul\":23774:23778   */\n      0x00\n        /* \"#utility.yul\":23812:23814   */\n      0x20\n        /* \"#utility.yul\":23801:23810   */\n      dup3\n        /* \"#utility.yul\":23797:23815   */\n      add\n        /* \"#utility.yul\":23789:23815   */\n      swap1\n      pop\n        /* \"#utility.yul\":23861:23870   */\n      dup2\n        /* \"#utility.yul\":23855:23859   */\n      dup2\n        /* \"#utility.yul\":23851:23871   */\n      sub\n        /* \"#utility.yul\":23847:23848   */\n      0x00\n        /* \"#utility.yul\":23836:23845   */\n      dup4\n        /* \"#utility.yul\":23832:23849   */\n      add\n        /* \"#utility.yul\":23825:23872   */\n      mstore\n        /* \"#utility.yul\":23889:24020   */\n      tag_557\n        /* \"#utility.yul\":24015:24019   */\n      dup2\n        /* \"#utility.yul\":23889:24020   */\n      tag_320\n      jump\t// in\n    tag_557:\n        /* \"#utility.yul\":23881:24020   */\n      swap1\n      pop\n        /* \"#utility.yul\":23608:24027   */\n      swap2\n      swap1\n      pop\n      jump\t// out\n        /* \"#utility.yul\":24033:24200   */\n    tag_321:\n        /* \"#utility.yul\":24173:24192   */\n      0x57616c6c6574206973206e6f7420736574000000000000000000000000000000\n        /* \"#utility.yul\":24169:24170   */\n      0x00\n        /* \"#utility.yul\":24161:24167   */\n      dup3\n        /* \"#utility.yul\":24157:24171   */\n      add\n        /* \"#utility.yul\":24150:24193   */\n      mstore\n        /* \"#utility.yul\":24033:24200   */\n      pop\n      jump\t// out\n        /* \"#utility.yul\":24206:24572   */\n    tag_322:\n        /* \"#utility.yul\":24348:24351   */\n      0x00\n        /* \"#utility.yul\":24369:24436   */\n      tag_560\n        /* \"#utility.yul\":24433:24435   */\n      0x11\n        /* \"#utility.yul\":24428:24431   */\n      dup4\n        /* \"#utility.yul\":24369:24436   */\n      tag_267\n      jump\t// in\n    tag_560:\n        /* \"#utility.yul\":24362:24436   */\n      swap2\n      pop\n        /* \"#utility.yul\":24445:24538   */\n      tag_561\n        /* \"#utility.yul\":24534:24537   */\n      dup3\n        /* \"#utility.yul\":24445:24538   */\n      tag_321\n      jump\t// in\n    tag_561:\n        /* \"#utility.yul\":24563:24565   */\n      0x20\n        /* \"#utility.yul\":24558:24561   */\n      dup3\n        /* \"#utility.yul\":24554:24566   */\n      add\n        /* \"#utility.yul\":24547:24566   */\n      swap1\n      pop\n        /* \"#utility.yul\":24206:24572   */\n      swap2\n      swap1\n      pop\n      jump\t// out\n        /* \"#utility.yul\":24578:24997   */\n    tag_163:\n        /* \"#utility.yul\":24744:24748   */\n      0x00\n        /* \"#utility.yul\":24782:24784   */\n      0x20\n        /* \"#utility.yul\":24771:24780   */\n      dup3\n        /* \"#utility.yul\":24767:24785   */\n      add\n        /* \"#utility.yul\":24759:24785   */\n      swap1\n      pop\n        /* \"#utility.yul\":24831:24840   */\n      dup2\n        /* \"#utility.yul\":24825:24829   */\n      dup2\n        /* \"#utility.yul\":24821:24841   */\n      sub\n        /* \"#utility.yul\":24817:24818   */\n      0x00\n        /* \"#utility.yul\":24806:24815   */\n      dup4\n        /* \"#utility.yul\":24802:24819   */\n      add\n        /* \"#utility.yul\":24795:24842   */\n      mstore\n        /* \"#utility.yul\":24859:24990   */\n      tag_563\n        /* \"#utility.yul\":24985:24989   */\n      dup2\n        /* \"#utility.yul\":24859:24990   */\n      tag_322\n      jump\t// in\n    tag_563:\n        /* \"#utility.yul\":24851:24990   */\n      swap1\n      pop\n        /* \"#utility.yul\":24578:24997   */\n      swap2\n      swap1\n      pop\n      jump\t// out\n        /* \"#utility.yul\":25003:25172   */\n    tag_323:\n        /* \"#utility.yul\":25143:25164   */\n      0x496e76616c6964207472616e73616374696f6e00000000000000000000000000\n        /* \"#utility.yul\":25139:25140   */\n      0x00\n        /* \"#utility.yul\":25131:25137   */\n      dup3\n        /* \"#utility.yul\":25127:25141   */\n      add\n        /* \"#utility.yul\":25120:25165   */\n      mstore\n        /* \"#utility.yul\":25003:25172   */\n      pop\n      jump\t// out\n        /* \"#utility.yul\":25178:25544   */\n    tag_324:\n        /* \"#utility.yul\":25320:25323   */\n      0x00\n        /* \"#utility.yul\":25341:25408   */\n      tag_566\n        /* \"#utility.yul\":25405:25407   */\n      0x13\n        /* \"#utility.yul\":25400:25403   */\n      dup4\n        /* \"#utility.yul\":25341:25408   */\n      tag_267\n      jump\t// in\n    tag_566:\n        /* \"#utility.yul\":25334:25408   */\n      swap2\n      pop\n        /* \"#utility.yul\":25417:25510   */\n      tag_567\n        /* \"#utility.yul\":25506:25509   */\n      dup3\n        /* \"#utility.yul\":25417:25510   */\n      tag_323\n      jump\t// in\n    tag_567:\n        /* \"#utility.yul\":25535:25537   */\n      0x20\n        /* \"#utility.yul\":25530:25533   */\n      dup3\n        /* \"#utility.yul\":25526:25538   */\n      add\n        /* \"#utility.yul\":25519:25538   */\n      swap1\n      pop\n        /* \"#utility.yul\":25178:25544   */\n      swap2\n      swap1\n      pop\n      jump\t// out\n        /* \"#utility.yul\":25550:25969   */\n    tag_166:\n        /* \"#utility.yul\":25716:25720   */\n      0x00\n        /* \"#utility.yul\":25754:25756   */\n      0x20\n        /* \"#utility.yul\":25743:25752   */\n      dup3\n        /* \"#utility.yul\":25739:25757   */\n      add\n        /* \"#utility.yul\":25731:25757   */\n      swap1\n      pop\n        /* \"#utility.yul\":25803:25812   */\n      dup2\n        /* \"#utility.yul\":25797:25801   */\n      dup2\n        /* \"#utility.yul\":25793:25813   */\n      sub\n        /* \"#utility.yul\":25789:25790   */\n      0x00\n        /* \"#utility.yul\":25778:25787   */\n      dup4\n        /* \"#utility.yul\":25774:25791   */\n      add\n        /* \"#utility.yul\":25767:25814   */\n      mstore\n        /* \"#utility.yul\":25831:25962   */\n      tag_569\n        /* \"#utility.yul\":25957:25961   */\n      dup2\n        /* \"#utility.yul\":25831:25962   */\n      tag_324\n      jump\t// in\n    tag_569:\n        /* \"#utility.yul\":25823:25962   */\n      swap1\n      pop\n        /* \"#utility.yul\":25550:25969   */\n      swap2\n      swap1\n      pop\n      jump\t// out\n        /* \"#utility.yul\":25975:26203   */\n    tag_325:\n        /* \"#utility.yul\":26115:26149   */\n      0x4f6e6c792077696e6e696e67207465616d206d656d626572732063616e206265\n        /* \"#utility.yul\":26111:26112   */\n      0x00\n        /* \"#utility.yul\":26103:26109   */\n      dup3\n        /* \"#utility.yul\":26099:26113   */\n      add\n        /* \"#utility.yul\":26092:26150   */\n      mstore\n        /* \"#utility.yul\":26184:26195   */\n      0x20617070726f7665640000000000000000000000000000000000000000000000\n        /* \"#utility.yul\":26179:26181   */\n      0x20\n        /* \"#utility.yul\":26171:26177   */\n      dup3\n        /* \"#utility.yul\":26167:26182   */\n      add\n        /* \"#utility.yul\":26160:26196   */\n      mstore\n        /* \"#utility.yul\":25975:26203   */\n      pop\n      jump\t// out\n        /* \"#utility.yul\":26209:26575   */\n    tag_326:\n        /* \"#utility.yul\":26351:26354   */\n      0x00\n        /* \"#utility.yul\":26372:26439   */\n      tag_572\n        /* \"#utility.yul\":26436:26438   */\n      0x29\n        /* \"#utility.yul\":26431:26434   */\n      dup4\n        /* \"#utility.yul\":26372:26439   */\n      tag_267\n      jump\t// in\n    tag_572:\n        /* \"#utility.yul\":26365:26439   */\n      swap2\n      pop\n        /* \"#utility.yul\":26448:26541   */\n      tag_573\n        /* \"#utility.yul\":26537:26540   */\n      dup3\n        /* \"#utility.yul\":26448:26541   */\n      tag_325\n      jump\t// in\n    tag_573:\n        /* \"#utility.yul\":26566:26568   */\n      0x40\n        /* \"#utility.yul\":26561:26564   */\n      dup3\n        /* \"#utility.yul\":26557:26569   */\n      add\n        /* \"#utility.yul\":26550:26569   */\n      swap1\n      pop\n        /* \"#utility.yul\":26209:26575   */\n      swap2\n      swap1\n      pop\n      jump\t// out\n        /* \"#utility.yul\":26581:27000   */\n    tag_177:\n        /* \"#utility.yul\":26747:26751   */\n      0x00\n        /* \"#utility.yul\":26785:26787   */\n      0x20\n        /* \"#utility.yul\":26774:26783   */\n      dup3\n        /* \"#utility.yul\":26770:26788   */\n      add\n        /* \"#utility.yul\":26762:26788   */\n      swap1\n      pop\n        /* \"#utility.yul\":26834:26843   */\n      dup2\n        /* \"#utility.yul\":26828:26832   */\n      dup2\n        /* \"#utility.yul\":26824:26844   */\n      sub\n        /* \"#utility.yul\":26820:26821   */\n      0x00\n        /* \"#utility.yul\":26809:26818   */\n      dup4\n        /* \"#utility.yul\":26805:26822   */\n      add\n        /* \"#utility.yul\":26798:26845   */\n      mstore\n        /* \"#utility.yul\":26862:26993   */\n      tag_575\n        /* \"#utility.yul\":26988:26992   */\n      dup2\n        /* \"#utility.yul\":26862:26993   */\n      tag_326\n      jump\t// in\n    tag_575:\n        /* \"#utility.yul\":26854:26993   */\n      swap1\n      pop\n        /* \"#utility.yul\":26581:27000   */\n      swap2\n      swap1\n      pop\n      jump\t// out\n        /* \"#utility.yul\":27006:27163   */\n    tag_327:\n        /* \"#utility.yul\":27146:27155   */\n      0x6465626974656400000000000000000000000000000000000000000000000000\n        /* \"#utility.yul\":27142:27143   */\n      0x00\n        /* \"#utility.yul\":27134:27140   */\n      dup3\n        /* \"#utility.yul\":27130:27144   */\n      add\n        /* \"#utility.yul\":27123:27156   */\n      mstore\n        /* \"#utility.yul\":27006:27163   */\n      pop\n      jump\t// out\n        /* \"#utility.yul\":27169:27569   */\n    tag_328:\n        /* \"#utility.yul\":27329:27332   */\n      0x00\n        /* \"#utility.yul\":27350:27434   */\n      tag_578\n        /* \"#utility.yul\":27432:27433   */\n      0x07\n        /* \"#utility.yul\":27427:27430   */\n      dup4\n        /* \"#utility.yul\":27350:27434   */\n      tag_307\n      jump\t// in\n    tag_578:\n        /* \"#utility.yul\":27343:27434   */\n      swap2\n      pop\n        /* \"#utility.yul\":27443:27536   */\n      tag_579\n        /* \"#utility.yul\":27532:27535   */\n      dup3\n        /* \"#utility.yul\":27443:27536   */\n      tag_327\n      jump\t// in\n    tag_579:\n        /* \"#utility.yul\":27561:27562   */\n      0x07\n        /* \"#utility.yul\":27556:27559   */\n      dup3\n        /* \"#utility.yul\":27552:27563   */\n      add\n        /* \"#utility.yul\":27545:27563   */\n      swap1\n      pop\n        /* \"#utility.yul\":27169:27569   */\n      swap2\n      swap1\n      pop\n      jump\t// out\n        /* \"#utility.yul\":27575:27956   */\n    tag_179:\n        /* \"#utility.yul\":27760:27763   */\n      0x00\n        /* \"#utility.yul\":27782:27930   */\n      tag_581\n        /* \"#utility.yul\":27926:27929   */\n      dup3\n        /* \"#utility.yul\":27782:27930   */\n      tag_328\n      jump\t// in\n    tag_581:\n        /* \"#utility.yul\":27775:27930   */\n      swap2\n      pop\n        /* \"#utility.yul\":27947:27950   */\n      dup2\n        /* \"#utility.yul\":27940:27950   */\n      swap1\n      pop\n        /* \"#utility.yul\":27575:27956   */\n      swap2\n      swap1\n      pop\n      jump\t// out\n        /* \"#utility.yul\":27962:28120   */\n    tag_329:\n        /* \"#utility.yul\":28102:28112   */\n      0x72656a6563746564000000000000000000000000000000000000000000000000\n        /* \"#utility.yul\":28098:28099   */\n      0x00\n        /* \"#utility.yul\":28090:28096   */\n      dup3\n        /* \"#utility.yul\":28086:28100   */\n      add\n        /* \"#utility.yul\":28079:28113   */\n      mstore\n        /* \"#utility.yul\":27962:28120   */\n      pop\n      jump\t// out\n        /* \"#utility.yul\":28126:28526   */\n    tag_330:\n        /* \"#utility.yul\":28286:28289   */\n      0x00\n        /* \"#utility.yul\":28307:28391   */\n      tag_584\n        /* \"#utility.yul\":28389:28390   */\n      0x08\n        /* \"#utility.yul\":28384:28387   */\n      dup4\n        /* \"#utility.yul\":28307:28391   */\n      tag_307\n      jump\t// in\n    tag_584:\n        /* \"#utility.yul\":28300:28391   */\n      swap2\n      pop\n        /* \"#utility.yul\":28400:28493   */\n      tag_585\n        /* \"#utility.yul\":28489:28492   */\n      dup3\n        /* \"#utility.yul\":28400:28493   */\n      tag_329\n      jump\t// in\n    tag_585:\n        /* \"#utility.yul\":28518:28519   */\n      0x08\n        /* \"#utility.yul\":28513:28516   */\n      dup3\n        /* \"#utility.yul\":28509:28520   */\n      add\n        /* \"#utility.yul\":28502:28520   */\n      swap1\n      pop\n        /* \"#utility.yul\":28126:28526   */\n      swap2\n      swap1\n      pop\n      jump\t// out\n        /* \"#utility.yul\":28532:28913   */\n    tag_186:\n        /* \"#utility.yul\":28717:28720   */\n      0x00\n        /* \"#utility.yul\":28739:28887   */\n      tag_587\n        /* \"#utility.yul\":28883:28886   */\n      dup3\n        /* \"#utility.yul\":28739:28887   */\n      tag_330\n      jump\t// in\n    tag_587:\n        /* \"#utility.yul\":28732:28887   */\n      swap2\n      pop\n        /* \"#utility.yul\":28904:28907   */\n      dup2\n        /* \"#utility.yul\":28897:28907   */\n      swap1\n      pop\n        /* \"#utility.yul\":28532:28913   */\n      swap2\n      swap1\n      pop\n      jump\t// out\n        /* \"#utility.yul\":28919:29100   */\n    tag_331:\n        /* \"#utility.yul\":29059:29092   */\n      0x5472616e73616374696f6e2063616e6e6f742062652070726f63657373656400\n        /* \"#utility.yul\":29055:29056   */\n      0x00\n        /* \"#utility.yul\":29047:29053   */\n      dup3\n        /* \"#utility.yul\":29043:29057   */\n      add\n        /* \"#utility.yul\":29036:29093   */\n      mstore\n        /* \"#utility.yul\":28919:29100   */\n      pop\n      jump\t// out\n        /* \"#utility.yul\":29106:29472   */\n    tag_332:\n        /* \"#utility.yul\":29248:29251   */\n      0x00\n        /* \"#utility.yul\":29269:29336   */\n      tag_590\n        /* \"#utility.yul\":29333:29335   */\n      0x1f\n        /* \"#utility.yul\":29328:29331   */\n      dup4\n        /* \"#utility.yul\":29269:29336   */\n      tag_267\n      jump\t// in\n    tag_590:\n        /* \"#utility.yul\":29262:29336   */\n      swap2\n      pop\n        /* \"#utility.yul\":29345:29438   */\n      tag_591\n        /* \"#utility.yul\":29434:29437   */\n      dup3\n        /* \"#utility.yul\":29345:29438   */\n      tag_331\n      jump\t// in\n    tag_591:\n        /* \"#utility.yul\":29463:29465   */\n      0x20\n        /* \"#utility.yul\":29458:29461   */\n      dup3\n        /* \"#utility.yul\":29454:29466   */\n      add\n        /* \"#utility.yul\":29447:29466   */\n      swap1\n      pop\n        /* \"#utility.yul\":29106:29472   */\n      swap2\n      swap1\n      pop\n      jump\t// out\n        /* \"#utility.yul\":29478:29897   */\n    tag_193:\n        /* \"#utility.yul\":29644:29648   */\n      0x00\n        /* \"#utility.yul\":29682:29684   */\n      0x20\n        /* \"#utility.yul\":29671:29680   */\n      dup3\n        /* \"#utility.yul\":29667:29685   */\n      add\n        /* \"#utility.yul\":29659:29685   */\n      swap1\n      pop\n        /* \"#utility.yul\":29731:29740   */\n      dup2\n        /* \"#utility.yul\":29725:29729   */\n      dup2\n        /* \"#utility.yul\":29721:29741   */\n      sub\n        /* \"#utility.yul\":29717:29718   */\n      0x00\n        /* \"#utility.yul\":29706:29715   */\n      dup4\n        /* \"#utility.yul\":29702:29719   */\n      add\n        /* \"#utility.yul\":29695:29742   */\n      mstore\n        /* \"#utility.yul\":29759:29890   */\n      tag_593\n        /* \"#utility.yul\":29885:29889   */\n      dup2\n        /* \"#utility.yul\":29759:29890   */\n      tag_332\n      jump\t// in\n    tag_593:\n        /* \"#utility.yul\":29751:29890   */\n      swap1\n      pop\n        /* \"#utility.yul\":29478:29897   */\n      swap2\n      swap1\n      pop\n      jump\t// out\n        /* \"#utility.yul\":29903:30097   */\n    tag_205:\n        /* \"#utility.yul\":29943:29947   */\n      0x00\n        /* \"#utility.yul\":29963:29983   */\n      tag_595\n        /* \"#utility.yul\":29981:29982   */\n      dup3\n        /* \"#utility.yul\":29963:29983   */\n      tag_260\n      jump\t// in\n    tag_595:\n        /* \"#utility.yul\":29958:29983   */\n      swap2\n      pop\n        /* \"#utility.yul\":29997:30017   */\n      tag_596\n        /* \"#utility.yul\":30015:30016   */\n      dup4\n        /* \"#utility.yul\":29997:30017   */\n      tag_260\n      jump\t// in\n    tag_596:\n        /* \"#utility.yul\":29992:30017   */\n      swap3\n      pop\n        /* \"#utility.yul\":30041:30042   */\n      dup3\n        /* \"#utility.yul\":30038:30039   */\n      dup3\n        /* \"#utility.yul\":30034:30043   */\n      sub\n        /* \"#utility.yul\":30026:30043   */\n      swap1\n      pop\n        /* \"#utility.yul\":30065:30066   */\n      dup2\n        /* \"#utility.yul\":30059:30063   */\n      dup2\n        /* \"#utility.yul\":30056:30067   */\n      gt\n        /* \"#utility.yul\":30053:30090   */\n      iszero\n      tag_597\n      jumpi\n        /* \"#utility.yul\":30070:30088   */\n      tag_598\n      tag_288\n      jump\t// in\n    tag_598:\n        /* \"#utility.yul\":30053:30090   */\n    tag_597:\n        /* \"#utility.yul\":29903:30097   */\n      swap3\n      swap2\n      pop\n      pop\n      jump\t// out\n        /* \"#utility.yul\":30103:30284   */\n    tag_333:\n        /* \"#utility.yul\":30243:30276   */\n      0x5472616e73616374696f6e20697320616c726561647920617070726f76656400\n        /* \"#utility.yul\":30239:30240   */\n      0x00\n        /* \"#utility.yul\":30231:30237   */\n      dup3\n        /* \"#utility.yul\":30227:30241   */\n      add\n        /* \"#utility.yul\":30220:30277   */\n      mstore\n        /* \"#utility.yul\":30103:30284   */\n      pop\n      jump\t// out\n        /* \"#utility.yul\":30290:30656   */\n    tag_334:\n        /* \"#utility.yul\":30432:30435   */\n      0x00\n        /* \"#utility.yul\":30453:30520   */\n      tag_601\n        /* \"#utility.yul\":30517:30519   */\n      0x1f\n        /* \"#utility.yul\":30512:30515   */\n      dup4\n        /* \"#utility.yul\":30453:30520   */\n      tag_267\n      jump\t// in\n    tag_601:\n        /* \"#utility.yul\":30446:30520   */\n      swap2\n      pop\n        /* \"#utility.yul\":30529:30622   */\n      tag_602\n        /* \"#utility.yul\":30618:30621   */\n      dup3\n        /* \"#utility.yul\":30529:30622   */\n      tag_333\n      jump\t// in\n    tag_602:\n        /* \"#utility.yul\":30647:30649   */\n      0x20\n        /* \"#utility.yul\":30642:30645   */\n      dup3\n        /* \"#utility.yul\":30638:30650   */\n      add\n        /* \"#utility.yul\":30631:30650   */\n      swap1\n      pop\n        /* \"#utility.yul\":30290:30656   */\n      swap2\n      swap1\n      pop\n      jump\t// out\n        /* \"#utility.yul\":30662:31081   */\n    tag_243:\n        /* \"#utility.yul\":30828:30832   */\n      0x00\n        /* \"#utility.yul\":30866:30868   */\n      0x20\n        /* \"#utility.yul\":30855:30864   */\n      dup3\n        /* \"#utility.yul\":30851:30869   */\n      add\n        /* \"#utility.yul\":30843:30869   */\n      swap1\n      pop\n        /* \"#utility.yul\":30915:30924   */\n      dup2\n        /* \"#utility.yul\":30909:30913   */\n      dup2\n        /* \"#utility.yul\":30905:30925   */\n      sub\n        /* \"#utility.yul\":30901:30902   */\n      0x00\n        /* \"#utility.yul\":30890:30899   */\n      dup4\n        /* \"#utility.yul\":30886:30903   */\n      add\n        /* \"#utility.yul\":30879:30926   */\n      mstore\n        /* \"#utility.yul\":30943:31074   */\n      tag_604\n        /* \"#utility.yul\":31069:31073   */\n      dup2\n        /* \"#utility.yul\":30943:31074   */\n      tag_334\n      jump\t// in\n    tag_604:\n        /* \"#utility.yul\":30935:31074   */\n      swap1\n      pop\n        /* \"#utility.yul\":30662:31081   */\n      swap2\n      swap1\n      pop\n      jump\t// out\n\n    auxdata: 0xa2646970667358221220559ae24c380f516534f0ad49c774c21447785455e06f7c551835f2ab381f0edb64736f6c63430008120033\n}\n",
				"bytecode": {
					"linkReferences": {},
					"object": "608060405260008060146101000a81548160ff02191690831515021790555034801561002a57600080fd5b50336000806101000a81548173ffffffffffffffffffffffffffffffffffffffff021916908373ffffffffffffffffffffffffffffffffffffffff1602179055506123c18061007a6000396000f3fe608060405234801561001057600080fd5b50600436106100b45760003560e01c80639c86836b116100715780639c86836b14610195578063b5bd3eb9146101b1578063b759f954146101cf578063b8adaa11146101eb578063ca31ef5414610207578063d5f3948814610237576100b4565b80631dbf3bc7146100b957806326540fd2146100d5578063301c10a4146100f357806372f6bdd9146101135780638916d12c146101315780639ace38c214610162575b600080fd5b6100d360048036038101906100ce91906113af565b610255565b005b6100dd6104f3565b6040516100ea91906113eb565b60405180910390f35b6100fb6104fd565b60405161010a93929190611406565b60405180910390f35b61011b610655565b6040516101289190611458565b60405180910390f35b61014b600480360381019061014691906113af565b610668565b604051610159929190611503565b60405180910390f35b61017c600480360381019061017791906113af565b610841565b60405161018c9493929190611574565b60405180910390f35b6101af60048036038101906101aa9190611734565b610936565b005b6101b9610b29565b6040516101c691906113eb565b60405180910390f35b6101e960048036038101906101e491906113af565b610b2f565b005b610205600480360381019061020091906113af565b610f51565b005b610221600480360381019061021c91906113af565b61125b565b60405161022e9190611790565b60405180910390f35b61023f61129a565b60405161024c9190611790565b60405180910390f35b600060149054906101000a900460ff166102a4576040517f08c379a000000000000000000000000000000000000000000000000000000000815260040161029b906117f7565b60405180910390fd5b600081116102e7576040517f08c379a00000000000000000000000000000000000000000000000000000000081526004016102de90611889565b60405180910390fd5b6000805b600180549050811015610385573373ffffffffffffffffffffffffffffffffffffffff1660018281548110610323576103226118a9565b5b9060005260206000200160009054906101000a900473ffffffffffffffffffffffffffffffffffffffff1673ffffffffffffffffffffffffffffffffffffffff16036103725760019150610385565b808061037d90611907565b9150506102eb565b50806103c6576040517f08c379a00000000000000000000000000000000000000000000000000000000081526004016103bd906119c1565b60405180910390fd5b600060405180608001604052803373ffffffffffffffffffffffffffffffffffffffff1681526020018481526020016000151581526020016040518060400160405280600781526020017f70656e64696e67000000000000000000000000000000000000000000000000008152508152509050600381908060018154018082558091505060019003906000526020600020906004020160009091909190915060008201518160000160006101000a81548173ffffffffffffffffffffffffffffffffffffffff021916908373ffffffffffffffffffffffffffffffffffffffff1602179055506020820151816001015560408201518160020160006101000a81548160ff02191690831515021790555060608201518160030190816104eb9190611bed565b505050505050565b6000600254905090565b6000806000809250600091506000905060005b60038054905081101561064f5760038181548110610531576105306118a9565b5b906000526020600020906004020160020160009054906101000a900460ff1680156105ca575060405160200161056690611d16565b60405160208183030381529060405280519060200120600382815481106105905761058f6118a9565b5b90600052602060002090600402016003016040516020016105b19190611dae565b6040516020818303038152906040528051906020012014155b156105e25783806105da90611907565b94505061063c565b600381815481106105f6576105f56118a9565b5b906000526020600020906004020160020160009054906101000a900460ff1661062c57828061062490611907565b93505061063b565b818061063790611907565b9250505b5b808061064790611907565b915050610510565b50909192565b600060149054906101000a900460ff1681565b6000606060038054905083106106b3576040517f08c379a00000000000000000000000000000000000000000000000000000000081526004016106aa90611e11565b60405180910390fd5b6000600384815481106106c9576106c86118a9565b5b906000526020600020906004020190508060020160009054906101000a900460ff168015610765575060405160200161070190611d16565b604051602081830303815290604052805190602001206003858154811061072b5761072a6118a9565b5b906000526020600020906004020160030160405160200161074c9190611dae565b6040516020818303038152906040528051906020012014155b156107a7576040518060400160405280600781526020017f64656269746564000000000000000000000000000000000000000000000000008152509150610834565b8060020160009054906101000a900460ff166107fa576040518060400160405280600781526020017f70656e64696e67000000000000000000000000000000000000000000000000008152509150610833565b6040518060400160405280600681526020017f6661696c6564000000000000000000000000000000000000000000000000000081525091505b5b8060010154925050915091565b6003818154811061085157600080fd5b90600052602060002090600402016000915090508060000160009054906101000a900473ffffffffffffffffffffffffffffffffffffffff16908060010154908060020160009054906101000a900460ff16908060030180546108b390611a10565b80601f01602080910402602001604051908101604052809291908181526020018280546108df90611a10565b801561092c5780601f106109015761010080835404028352916020019161092c565b820191906000526020600020905b81548152906001019060200180831161090f57829003601f168201915b5050505050905084565b600082511161097a576040517f08c379a000000000000000000000000000000000000000000000000000000000815260040161097190611e7d565b60405180910390fd5b600081116109bd576040517f08c379a00000000000000000000000000000000000000000000000000000000081526004016109b490611f0f565b60405180910390fd5b60006001905060005b8351811015610a545760008054906101000a900473ffffffffffffffffffffffffffffffffffffffff1673ffffffffffffffffffffffffffffffffffffffff16848281518110610a1957610a186118a9565b5b602002602001015173ffffffffffffffffffffffffffffffffffffffff1603610a4157600091505b8080610a4c90611907565b9150506109c6565b5080610a95576040517f08c379a0000000000000000000000000000000000000000000000000000000008152600401610a8c90611fa1565b60405180910390fd5b60001515600060149054906101000a900460ff16151514610aeb576040517f08c379a0000000000000000000000000000000000000000000000000000000008152600401610ae290612033565b60405180910390fd5b8260019080519060200190610b019291906112be565b50816002819055506001600060146101000a81548160ff021916908315150217905550505050565b60025481565b600060149054906101000a900460ff16610b7e576040517f08c379a0000000000000000000000000000000000000000000000000000000008152600401610b759061209f565b60405180910390fd5b6003805490508110610bc5576040517f08c379a0000000000000000000000000000000000000000000000000000000008152600401610bbc9061210b565b60405180910390fd5b6000805b600180549050811015610c63573373ffffffffffffffffffffffffffffffffffffffff1660018281548110610c0157610c006118a9565b5b9060005260206000200160009054906101000a900473ffffffffffffffffffffffffffffffffffffffff1673ffffffffffffffffffffffffffffffffffffffff1603610c505760019150610c63565b8080610c5b90611907565b915050610bc9565b5080610ca4576040517f08c379a0000000000000000000000000000000000000000000000000000000008152600401610c9b9061219d565b60405180910390fd5b604051602001610cb390612209565b6040516020818303038152906040528051906020012060038381548110610cdd57610cdc6118a9565b5b9060005260206000209060040201600301604051602001610cfe9190611dae565b604051602081830303815290604052805190602001201480610d8d5750604051602001610d2a9061226a565b6040516020818303038152906040528051906020012060038381548110610d5457610d536118a9565b5b9060005260206000209060040201600301604051602001610d759190611dae565b60405160208183030381529060405280519060200120145b610dcc576040517f08c379a0000000000000000000000000000000000000000000000000000000008152600401610dc3906122cb565b60405180910390fd5b600160038381548110610de257610de16118a9565b5b906000526020600020906004020160020160006101000a81548160ff02191690831515021790555060038281548110610e1e57610e1d6118a9565b5b9060005260206000209060040201600101546002541115610ee45760038281548110610e4d57610e4c6118a9565b5b90600052602060002090600402016001015460026000828254610e7091906122eb565b925050819055506040518060400160405280600781526020017f646562697465640000000000000000000000000000000000000000000000000081525060038381548110610ec157610ec06118a9565b5b90600052602060002090600402016003019081610ede9190611bed565b50610f4d565b6040518060400160405280600681526020017f6661696c6564000000000000000000000000000000000000000000000000000081525060038381548110610f2e57610f2d6118a9565b5b90600052602060002090600402016003019081610f4b9190611bed565b505b5050565b600060149054906101000a900460ff16610fa0576040517f08c379a0000000000000000000000000000000000000000000000000000000008152600401610f979061209f565b60405180910390fd5b6003805490508110610fe7576040517f08c379a0000000000000000000000000000000000000000000000000000000008152600401610fde9061210b565b60405180910390fd5b6000805b600180549050811015611085573373ffffffffffffffffffffffffffffffffffffffff1660018281548110611023576110226118a9565b5b9060005260206000200160009054906101000a900473ffffffffffffffffffffffffffffffffffffffff1673ffffffffffffffffffffffffffffffffffffffff16036110725760019150611085565b808061107d90611907565b915050610feb565b50806110c6576040517f08c379a00000000000000000000000000000000000000000000000000000000081526004016110bd9061219d565b60405180910390fd5b6040516020016110d590612209565b60405160208183030381529060405280519060200120600383815481106110ff576110fe6118a9565b5b90600052602060002090600402016003016040516020016111209190611dae565b6040516020818303038152906040528051906020012014806111af575060405160200161114c9061226a565b6040516020818303038152906040528051906020012060038381548110611176576111756118a9565b5b90600052602060002090600402016003016040516020016111979190611dae565b60405160208183030381529060405280519060200120145b156111ef576040517f08c379a00000000000000000000000000000000000000000000000000000000081526004016111e69061236b565b60405180910390fd5b6040518060400160405280600881526020017f72656a656374656400000000000000000000000000000000000000000000000081525060038381548110611239576112386118a9565b5b906000526020600020906004020160030190816112569190611bed565b505050565b6001818154811061126b57600080fd5b906000526020600020016000915054906101000a900473ffffffffffffffffffffffffffffffffffffffff1681565b60008054906101000a900473ffffffffffffffffffffffffffffffffffffffff1681565b828054828255906000526020600020908101928215611337579160200282015b828111156113365782518260006101000a81548173ffffffffffffffffffffffffffffffffffffffff021916908373ffffffffffffffffffffffffffffffffffffffff160217905550916020019190600101906112de565b5b5090506113449190611348565b5090565b5b80821115611361576000816000905550600101611349565b5090565b6000604051905090565b600080fd5b600080fd5b6000819050919050565b61138c81611379565b811461139757600080fd5b50565b6000813590506113a981611383565b92915050565b6000602082840312156113c5576113c461136f565b5b60006113d38482850161139a565b91505092915050565b6113e581611379565b82525050565b600060208201905061140060008301846113dc565b92915050565b600060608201905061141b60008301866113dc565b61142860208301856113dc565b61143560408301846113dc565b949350505050565b60008115159050919050565b6114528161143d565b82525050565b600060208201905061146d6000830184611449565b92915050565b600081519050919050565b600082825260208201905092915050565b60005b838110156114ad578082015181840152602081019050611492565b60008484015250505050565b6000601f19601f8301169050919050565b60006114d582611473565b6114df818561147e565b93506114ef81856020860161148f565b6114f8816114b9565b840191505092915050565b600060408201905061151860008301856113dc565b818103602083015261152a81846114ca565b90509392505050565b600073ffffffffffffffffffffffffffffffffffffffff82169050919050565b600061155e82611533565b9050919050565b61156e81611553565b82525050565b60006080820190506115896000830187611565565b61159660208301866113dc565b6115a36040830185611449565b81810360608301526115b581846114ca565b905095945050505050565b600080fd5b7f4e487b7100000000000000000000000000000000000000000000000000000000600052604160045260246000fd5b6115fd826114b9565b810181811067ffffffffffffffff8211171561161c5761161b6115c5565b5b80604052505050565b600061162f611365565b905061163b82826115f4565b919050565b600067ffffffffffffffff82111561165b5761165a6115c5565b5b602082029050602081019050919050565b600080fd5b61167a81611553565b811461168557600080fd5b50565b60008135905061169781611671565b92915050565b60006116b06116ab84611640565b611625565b905080838252602082019050602084028301858111156116d3576116d261166c565b5b835b818110156116fc57806116e88882611688565b8452602084019350506020810190506116d5565b5050509392505050565b600082601f83011261171b5761171a6115c0565b5b813561172b84826020860161169d565b91505092915050565b6000806040838503121561174b5761174a61136f565b5b600083013567ffffffffffffffff81111561176957611768611374565b5b61177585828601611706565b92505060206117868582860161139a565b9150509250929050565b60006020820190506117a56000830184611565565b92915050565b7f5468652077616c6c6574206973206e6f74207365742079657400000000000000600082015250565b60006117e160198361147e565b91506117ec826117ab565b602082019050919050565b60006020820190508181036000830152611810816117d4565b9050919050565b7f54686520616d6f756e742073686f756c6420626520677265617465722074686160008201527f6e20300000000000000000000000000000000000000000000000000000000000602082015250565b600061187360238361147e565b915061187e82611817565b604082019050919050565b600060208201905081810360008301526118a281611866565b9050919050565b7f4e487b7100000000000000000000000000000000000000000000000000000000600052603260045260246000fd5b7f4e487b7100000000000000000000000000000000000000000000000000000000600052601160045260246000fd5b600061191282611379565b91507fffffffffffffffffffffffffffffffffffffffffffffffffffffffffffffffff8203611944576119436118d8565b5b600182019050919050565b7f74686520726571756573742063616e206f6e6c79206265206170706f7276656460008201527f2062792061207465616d206d656d626572000000000000000000000000000000602082015250565b60006119ab60318361147e565b91506119b68261194f565b604082019050919050565b600060208201905081810360008301526119da8161199e565b9050919050565b7f4e487b7100000000000000000000000000000000000000000000000000000000600052602260045260246000fd5b60006002820490506001821680611a2857607f821691505b602082108103611a3b57611a3a6119e1565b5b50919050565b60008190508160005260206000209050919050565b60006020601f8301049050919050565b600082821b905092915050565b600060088302611aa37fffffffffffffffffffffffffffffffffffffffffffffffffffffffffffffffff82611a66565b611aad8683611a66565b95508019841693508086168417925050509392505050565b6000819050919050565b6000611aea611ae5611ae084611379565b611ac5565b611379565b9050919050565b6000819050919050565b611b0483611acf565b611b18611b1082611af1565b848454611a73565b825550505050565b600090565b611b2d611b20565b611b38818484611afb565b505050565b5b81811015611b5c57611b51600082611b25565b600181019050611b3e565b5050565b601f821115611ba157611b7281611a41565b611b7b84611a56565b81016020851015611b8a578190505b611b9e611b9685611a56565b830182611b3d565b50505b505050565b600082821c905092915050565b6000611bc460001984600802611ba6565b1980831691505092915050565b6000611bdd8383611bb3565b9150826002028217905092915050565b611bf682611473565b67ffffffffffffffff811115611c0f57611c0e6115c5565b5b611c198254611a10565b611c24828285611b60565b600060209050601f831160018114611c575760008415611c45578287015190505b611c4f8582611bd1565b865550611cb7565b601f198416611c6586611a41565b60005b82811015611c8d57848901518255600182019150602085019450602081019050611c68565b86831015611caa5784890151611ca6601f891682611bb3565b8355505b6001600288020188555050505b505050505050565b600081905092915050565b7f6661696c65640000000000000000000000000000000000000000000000000000600082015250565b6000611d00600683611cbf565b9150611d0b82611cca565b600682019050919050565b6000611d2182611cf3565b9150819050919050565b60008154611d3881611a10565b611d428186611cbf565b94506001821660008114611d5d5760018114611d7257611da5565b60ff1983168652811515820286019350611da5565b611d7b85611a41565b60005b83811015611d9d57815481890152600182019150602081019050611d7e565b838801955050505b50505092915050565b6000611dba8284611d2b565b915081905092915050565b7f496e61766c6964207472616e73616374696f6e20696e64657800000000000000600082015250565b6000611dfb60198361147e565b9150611e0682611dc5565b602082019050919050565b60006020820190508181036000830152611e2a81611dee565b9050919050565b7f546865206d656d6265722073686f756c64206e6f7420626520656d7074790000600082015250565b6000611e67601e8361147e565b9150611e7282611e31565b602082019050919050565b60006020820190508181036000830152611e9681611e5a565b9050919050565b7f5468652077696e6e696e6720637265646974732073686f756c6420626520677260008201527f6561746572207468616e20300000000000000000000000000000000000000000602082015250565b6000611ef9602c8361147e565b9150611f0482611e9d565b604082019050919050565b60006020820190508181036000830152611f2881611eec565b9050919050565b7f546865206465706c6f7965722073686f756c64206e6f742062652061206d656d60008201527f6562657200000000000000000000000000000000000000000000000000000000602082015250565b6000611f8b60248361147e565b9150611f9682611f2f565b604082019050919050565b60006020820190508181036000830152611fba81611f7e565b9050919050565b7f5468652077616c6c657420697320616c7265616479207365742063616e74207360008201527f657420616761696e000000000000000000000000000000000000000000000000602082015250565b600061201d60288361147e565b915061202882611fc1565b604082019050919050565b6000602082019050818103600083015261204c81612010565b9050919050565b7f57616c6c6574206973206e6f7420736574000000000000000000000000000000600082015250565b600061208960118361147e565b915061209482612053565b602082019050919050565b600060208201905081810360008301526120b88161207c565b9050919050565b7f496e76616c6964207472616e73616374696f6e00000000000000000000000000600082015250565b60006120f560138361147e565b9150612100826120bf565b602082019050919050565b60006020820190508181036000830152612124816120e8565b9050919050565b7f4f6e6c792077696e6e696e67207465616d206d656d626572732063616e20626560008201527f20617070726f7665640000000000000000000000000000000000000000000000602082015250565b600061218760298361147e565b91506121928261212b565b604082019050919050565b600060208201905081810360008301526121b68161217a565b9050919050565b7f6465626974656400000000000000000000000000000000000000000000000000600082015250565b60006121f3600783611cbf565b91506121fe826121bd565b600782019050919050565b6000612214826121e6565b9150819050919050565b7f72656a6563746564000000000000000000000000000000000000000000000000600082015250565b6000612254600883611cbf565b915061225f8261221e565b600882019050919050565b600061227582612247565b9150819050919050565b7f5472616e73616374696f6e2063616e6e6f742062652070726f63657373656400600082015250565b60006122b5601f8361147e565b91506122c08261227f565b602082019050919050565b600060208201905081810360008301526122e4816122a8565b9050919050565b60006122f682611379565b915061230183611379565b9250828203905081811115612319576123186118d8565b5b92915050565b7f5472616e73616374696f6e20697320616c726561647920617070726f76656400600082015250565b6000612355601f8361147e565b91506123608261231f565b602082019050919050565b6000602082019050818103600083015261238481612348565b905091905056fea2646970667358221220559ae24c380f516534f0ad49c774c21447785455e06f7c551835f2ab381f0edb64736f6c63430008120033",
					"opcodes": "PUSH1 0x80 PUSH1 0x40 MSTORE PUSH1 0x0 DUP1 PUSH1 0x14 PUSH2 0x100 EXP DUP2 SLOAD DUP2 PUSH1 0xFF MUL NOT AND SWAP1 DUP4 ISZERO ISZERO MUL OR SWAP1 SSTORE POP CALLVALUE DUP1 ISZERO PUSH2 0x2A JUMPI PUSH1 0x0 DUP1 REVERT JUMPDEST POP CALLER PUSH1 0x0 DUP1 PUSH2 0x100 EXP DUP2 SLOAD DUP2 PUSH20 0xFFFFFFFFFFFFFFFFFFFFFFFFFFFFFFFFFFFFFFFF MUL NOT AND SWAP1 DUP4 PUSH20 0xFFFFFFFFFFFFFFFFFFFFFFFFFFFFFFFFFFFFFFFF AND MUL OR SWAP1 SSTORE POP PUSH2 0x23C1 DUP1 PUSH2 0x7A PUSH1 0x0 CODECOPY PUSH1 0x0 RETURN INVALID PUSH1 0x80 PUSH1 0x40 MSTORE CALLVALUE DUP1 ISZERO PUSH2 0x10 JUMPI PUSH1 0x0 DUP1 REVERT JUMPDEST POP PUSH1 0x4 CALLDATASIZE LT PUSH2 0xB4 JUMPI PUSH1 0x0 CALLDATALOAD PUSH1 0xE0 SHR DUP1 PUSH4 0x9C86836B GT PUSH2 0x71 JUMPI DUP1 PUSH4 0x9C86836B EQ PUSH2 0x195 JUMPI DUP1 PUSH4 0xB5BD3EB9 EQ PUSH2 0x1B1 JUMPI DUP1 PUSH4 0xB759F954 EQ PUSH2 0x1CF JUMPI DUP1 PUSH4 0xB8ADAA11 EQ PUSH2 0x1EB JUMPI DUP1 PUSH4 0xCA31EF54 EQ PUSH2 0x207 JUMPI DUP1 PUSH4 0xD5F39488 EQ PUSH2 0x237 JUMPI PUSH2 0xB4 JUMP JUMPDEST DUP1 PUSH4 0x1DBF3BC7 EQ PUSH2 0xB9 JUMPI DUP1 PUSH4 0x26540FD2 EQ PUSH2 0xD5 JUMPI DUP1 PUSH4 0x301C10A4 EQ PUSH2 0xF3 JUMPI DUP1 PUSH4 0x72F6BDD9 EQ PUSH2 0x113 JUMPI DUP1 PUSH4 0x8916D12C EQ PUSH2 0x131 JUMPI DUP1 PUSH4 0x9ACE38C2 EQ PUSH2 0x162 JUMPI JUMPDEST PUSH1 0x0 DUP1 REVERT JUMPDEST PUSH2 0xD3 PUSH1 0x4 DUP1 CALLDATASIZE SUB DUP2 ADD SWAP1 PUSH2 0xCE SWAP2 SWAP1 PUSH2 0x13AF JUMP JUMPDEST PUSH2 0x255 JUMP JUMPDEST STOP JUMPDEST PUSH2 0xDD PUSH2 0x4F3 JUMP JUMPDEST PUSH1 0x40 MLOAD PUSH2 0xEA SWAP2 SWAP1 PUSH2 0x13EB JUMP JUMPDEST PUSH1 0x40 MLOAD DUP1 SWAP2 SUB SWAP1 RETURN JUMPDEST PUSH2 0xFB PUSH2 0x4FD JUMP JUMPDEST PUSH1 0x40 MLOAD PUSH2 0x10A SWAP4 SWAP3 SWAP2 SWAP1 PUSH2 0x1406 JUMP JUMPDEST PUSH1 0x40 MLOAD DUP1 SWAP2 SUB SWAP1 RETURN JUMPDEST PUSH2 0x11B PUSH2 0x655 JUMP JUMPDEST PUSH1 0x40 MLOAD PUSH2 0x128 SWAP2 SWAP1 PUSH2 0x1458 JUMP JUMPDEST PUSH1 0x40 MLOAD DUP1 SWAP2 SUB SWAP1 RETURN JUMPDEST PUSH2 0x14B PUSH1 0x4 DUP1 CALLDATASIZE SUB DUP2 ADD SWAP1 PUSH2 0x146 SWAP2 SWAP1 PUSH2 0x13AF JUMP JUMPDEST PUSH2 0x668 JUMP JUMPDEST PUSH1 0x40 MLOAD PUSH2 0x159 SWAP3 SWAP2 SWAP1 PUSH2 0x1503 JUMP JUMPDEST PUSH1 0x40 MLOAD DUP1 SWAP2 SUB SWAP1 RETURN JUMPDEST PUSH2 0x17C PUSH1 0x4 DUP1 CALLDATASIZE SUB DUP2 ADD SWAP1 PUSH2 0x177 SWAP2 SWAP1 PUSH2 0x13AF JUMP JUMPDEST PUSH2 0x841 JUMP JUMPDEST PUSH1 0x40 MLOAD PUSH2 0x18C SWAP5 SWAP4 SWAP3 SWAP2 SWAP1 PUSH2 0x1574 JUMP JUMPDEST PUSH1 0x40 MLOAD DUP1 SWAP2 SUB SWAP1 RETURN JUMPDEST PUSH2 0x1AF PUSH1 0x4 DUP1 CALLDATASIZE SUB DUP2 ADD SWAP1 PUSH2 0x1AA SWAP2 SWAP1 PUSH2 0x1734 JUMP JUMPDEST PUSH2 0x936 JUMP JUMPDEST STOP JUMPDEST PUSH2 0x1B9 PUSH2 0xB29 JUMP JUMPDEST PUSH1 0x40 MLOAD PUSH2 0x1C6 SWAP2 SWAP1 PUSH2 0x13EB JUMP JUMPDEST PUSH1 0x40 MLOAD DUP1 SWAP2 SUB SWAP1 RETURN JUMPDEST PUSH2 0x1E9 PUSH1 0x4 DUP1 CALLDATASIZE SUB DUP2 ADD SWAP1 PUSH2 0x1E4 SWAP2 SWAP1 PUSH2 0x13AF JUMP JUMPDEST PUSH2 0xB2F JUMP JUMPDEST STOP JUMPDEST PUSH2 0x205 PUSH1 0x4 DUP1 CALLDATASIZE SUB DUP2 ADD SWAP1 PUSH2 0x200 SWAP2 SWAP1 PUSH2 0x13AF JUMP JUMPDEST PUSH2 0xF51 JUMP JUMPDEST STOP JUMPDEST PUSH2 0x221 PUSH1 0x4 DUP1 CALLDATASIZE SUB DUP2 ADD SWAP1 PUSH2 0x21C SWAP2 SWAP1 PUSH2 0x13AF JUMP JUMPDEST PUSH2 0x125B JUMP JUMPDEST PUSH1 0x40 MLOAD PUSH2 0x22E SWAP2 SWAP1 PUSH2 0x1790 JUMP JUMPDEST PUSH1 0x40 MLOAD DUP1 SWAP2 SUB SWAP1 RETURN JUMPDEST PUSH2 0x23F PUSH2 0x129A JUMP JUMPDEST PUSH1 0x40 MLOAD PUSH2 0x24C SWAP2 SWAP1 PUSH2 0x1790 JUMP JUMPDEST PUSH1 0x40 MLOAD DUP1 SWAP2 SUB SWAP1 RETURN JUMPDEST PUSH1 0x0 PUSH1 0x14 SWAP1 SLOAD SWAP1 PUSH2 0x100 EXP SWAP1 DIV PUSH1 0xFF AND PUSH2 0x2A4 JUMPI PUSH1 0x40 MLOAD PUSH32 0x8C379A000000000000000000000000000000000000000000000000000000000 DUP2 MSTORE PUSH1 0x4 ADD PUSH2 0x29B SWAP1 PUSH2 0x17F7 JUMP JUMPDEST PUSH1 0x40 MLOAD DUP1 SWAP2 SUB SWAP1 REVERT JUMPDEST PUSH1 0x0 DUP2 GT PUSH2 0x2E7 JUMPI PUSH1 0x40 MLOAD PUSH32 0x8C379A000000000000000000000000000000000000000000000000000000000 DUP2 MSTORE PUSH1 0x4 ADD PUSH2 0x2DE SWAP1 PUSH2 0x1889 JUMP JUMPDEST PUSH1 0x40 MLOAD DUP1 SWAP2 SUB SWAP1 REVERT JUMPDEST PUSH1 0x0 DUP1 JUMPDEST PUSH1 0x1 DUP1 SLOAD SWAP1 POP DUP2 LT ISZERO PUSH2 0x385 JUMPI CALLER PUSH20 0xFFFFFFFFFFFFFFFFFFFFFFFFFFFFFFFFFFFFFFFF AND PUSH1 0x1 DUP3 DUP2 SLOAD DUP2 LT PUSH2 0x323 JUMPI PUSH2 0x322 PUSH2 0x18A9 JUMP JUMPDEST JUMPDEST SWAP1 PUSH1 0x0 MSTORE PUSH1 0x20 PUSH1 0x0 KECCAK256 ADD PUSH1 0x0 SWAP1 SLOAD SWAP1 PUSH2 0x100 EXP SWAP1 DIV PUSH20 0xFFFFFFFFFFFFFFFFFFFFFFFFFFFFFFFFFFFFFFFF AND PUSH20 0xFFFFFFFFFFFFFFFFFFFFFFFFFFFFFFFFFFFFFFFF AND SUB PUSH2 0x372 JUMPI PUSH1 0x1 SWAP2 POP PUSH2 0x385 JUMP JUMPDEST DUP1 DUP1 PUSH2 0x37D SWAP1 PUSH2 0x1907 JUMP JUMPDEST SWAP2 POP POP PUSH2 0x2EB JUMP JUMPDEST POP DUP1 PUSH2 0x3C6 JUMPI PUSH1 0x40 MLOAD PUSH32 0x8C379A000000000000000000000000000000000000000000000000000000000 DUP2 MSTORE PUSH1 0x4 ADD PUSH2 0x3BD SWAP1 PUSH2 0x19C1 JUMP JUMPDEST PUSH1 0x40 MLOAD DUP1 SWAP2 SUB SWAP1 REVERT JUMPDEST PUSH1 0x0 PUSH1 0x40 MLOAD DUP1 PUSH1 0x80 ADD PUSH1 0x40 MSTORE DUP1 CALLER PUSH20 0xFFFFFFFFFFFFFFFFFFFFFFFFFFFFFFFFFFFFFFFF AND DUP2 MSTORE PUSH1 0x20 ADD DUP5 DUP2 MSTORE PUSH1 0x20 ADD PUSH1 0x0 ISZERO ISZERO DUP2 MSTORE PUSH1 0x20 ADD PUSH1 0x40 MLOAD DUP1 PUSH1 0x40 ADD PUSH1 0x40 MSTORE DUP1 PUSH1 0x7 DUP2 MSTORE PUSH1 0x20 ADD PUSH32 0x70656E64696E6700000000000000000000000000000000000000000000000000 DUP2 MSTORE POP DUP2 MSTORE POP SWAP1 POP PUSH1 0x3 DUP2 SWAP1 DUP1 PUSH1 0x1 DUP2 SLOAD ADD DUP1 DUP3 SSTORE DUP1 SWAP2 POP POP PUSH1 0x1 SWAP1 SUB SWAP1 PUSH1 0x0 MSTORE PUSH1 0x20 PUSH1 0x0 KECCAK256 SWAP1 PUSH1 0x4 MUL ADD PUSH1 0x0 SWAP1 SWAP2 SWAP1 SWAP2 SWAP1 SWAP2 POP PUSH1 0x0 DUP3 ADD MLOAD DUP2 PUSH1 0x0 ADD PUSH1 0x0 PUSH2 0x100 EXP DUP2 SLOAD DUP2 PUSH20 0xFFFFFFFFFFFFFFFFFFFFFFFFFFFFFFFFFFFFFFFF MUL NOT AND SWAP1 DUP4 PUSH20 0xFFFFFFFFFFFFFFFFFFFFFFFFFFFFFFFFFFFFFFFF AND MUL OR SWAP1 SSTORE POP PUSH1 0x20 DUP3 ADD MLOAD DUP2 PUSH1 0x1 ADD SSTORE PUSH1 0x40 DUP3 ADD MLOAD DUP2 PUSH1 0x2 ADD PUSH1 0x0 PUSH2 0x100 EXP DUP2 SLOAD DUP2 PUSH1 0xFF MUL NOT AND SWAP1 DUP4 ISZERO ISZERO MUL OR SWAP1 SSTORE POP PUSH1 0x60 DUP3 ADD MLOAD DUP2 PUSH1 0x3 ADD SWAP1 DUP2 PUSH2 0x4EB SWAP2 SWAP1 PUSH2 0x1BED JUMP JUMPDEST POP POP POP POP POP POP JUMP JUMPDEST PUSH1 0x0 PUSH1 0x2 SLOAD SWAP1 POP SWAP1 JUMP JUMPDEST PUSH1 0x0 DUP1 PUSH1 0x0 DUP1 SWAP3 POP PUSH1 0x0 SWAP2 POP PUSH1 0x0 SWAP1 POP PUSH1 0x0 JUMPDEST PUSH1 0x3 DUP1 SLOAD SWAP1 POP DUP2 LT ISZERO PUSH2 0x64F JUMPI PUSH1 0x3 DUP2 DUP2 SLOAD DUP2 LT PUSH2 0x531 JUMPI PUSH2 0x530 PUSH2 0x18A9 JUMP JUMPDEST JUMPDEST SWAP1 PUSH1 0x0 MSTORE PUSH1 0x20 PUSH1 0x0 KECCAK256 SWAP1 PUSH1 0x4 MUL ADD PUSH1 0x2 ADD PUSH1 0x0 SWAP1 SLOAD SWAP1 PUSH2 0x100 EXP SWAP1 DIV PUSH1 0xFF AND DUP1 ISZERO PUSH2 0x5CA JUMPI POP PUSH1 0x40 MLOAD PUSH1 0x20 ADD PUSH2 0x566 SWAP1 PUSH2 0x1D16 JUMP JUMPDEST PUSH1 0x40 MLOAD PUSH1 0x20 DUP2 DUP4 SUB SUB DUP2 MSTORE SWAP1 PUSH1 0x40 MSTORE DUP1 MLOAD SWAP1 PUSH1 0x20 ADD KECCAK256 PUSH1 0x3 DUP3 DUP2 SLOAD DUP2 LT PUSH2 0x590 JUMPI PUSH2 0x58F PUSH2 0x18A9 JUMP JUMPDEST JUMPDEST SWAP1 PUSH1 0x0 MSTORE PUSH1 0x20 PUSH1 0x0 KECCAK256 SWAP1 PUSH1 0x4 MUL ADD PUSH1 0x3 ADD PUSH1 0x40 MLOAD PUSH1 0x20 ADD PUSH2 0x5B1 SWAP2 SWAP1 PUSH2 0x1DAE JUMP JUMPDEST PUSH1 0x40 MLOAD PUSH1 0x20 DUP2 DUP4 SUB SUB DUP2 MSTORE SWAP1 PUSH1 0x40 MSTORE DUP1 MLOAD SWAP1 PUSH1 0x20 ADD KECCAK256 EQ ISZERO JUMPDEST ISZERO PUSH2 0x5E2 JUMPI DUP4 DUP1 PUSH2 0x5DA SWAP1 PUSH2 0x1907 JUMP JUMPDEST SWAP5 POP POP PUSH2 0x63C JUMP JUMPDEST PUSH1 0x3 DUP2 DUP2 SLOAD DUP2 LT PUSH2 0x5F6 JUMPI PUSH2 0x5F5 PUSH2 0x18A9 JUMP JUMPDEST JUMPDEST SWAP1 PUSH1 0x0 MSTORE PUSH1 0x20 PUSH1 0x0 KECCAK256 SWAP1 PUSH1 0x4 MUL ADD PUSH1 0x2 ADD PUSH1 0x0 SWAP1 SLOAD SWAP1 PUSH2 0x100 EXP SWAP1 DIV PUSH1 0xFF AND PUSH2 0x62C JUMPI DUP3 DUP1 PUSH2 0x624 SWAP1 PUSH2 0x1907 JUMP JUMPDEST SWAP4 POP POP PUSH2 0x63B JUMP JUMPDEST DUP2 DUP1 PUSH2 0x637 SWAP1 PUSH2 0x1907 JUMP JUMPDEST SWAP3 POP POP JUMPDEST JUMPDEST DUP1 DUP1 PUSH2 0x647 SWAP1 PUSH2 0x1907 JUMP JUMPDEST SWAP2 POP POP PUSH2 0x510 JUMP JUMPDEST POP SWAP1 SWAP2 SWAP3 JUMP JUMPDEST PUSH1 0x0 PUSH1 0x14 SWAP1 SLOAD SWAP1 PUSH2 0x100 EXP SWAP1 DIV PUSH1 0xFF AND DUP2 JUMP JUMPDEST PUSH1 0x0 PUSH1 0x60 PUSH1 0x3 DUP1 SLOAD SWAP1 POP DUP4 LT PUSH2 0x6B3 JUMPI PUSH1 0x40 MLOAD PUSH32 0x8C379A000000000000000000000000000000000000000000000000000000000 DUP2 MSTORE PUSH1 0x4 ADD PUSH2 0x6AA SWAP1 PUSH2 0x1E11 JUMP JUMPDEST PUSH1 0x40 MLOAD DUP1 SWAP2 SUB SWAP1 REVERT JUMPDEST PUSH1 0x0 PUSH1 0x3 DUP5 DUP2 SLOAD DUP2 LT PUSH2 0x6C9 JUMPI PUSH2 0x6C8 PUSH2 0x18A9 JUMP JUMPDEST JUMPDEST SWAP1 PUSH1 0x0 MSTORE PUSH1 0x20 PUSH1 0x0 KECCAK256 SWAP1 PUSH1 0x4 MUL ADD SWAP1 POP DUP1 PUSH1 0x2 ADD PUSH1 0x0 SWAP1 SLOAD SWAP1 PUSH2 0x100 EXP SWAP1 DIV PUSH1 0xFF AND DUP1 ISZERO PUSH2 0x765 JUMPI POP PUSH1 0x40 MLOAD PUSH1 0x20 ADD PUSH2 0x701 SWAP1 PUSH2 0x1D16 JUMP JUMPDEST PUSH1 0x40 MLOAD PUSH1 0x20 DUP2 DUP4 SUB SUB DUP2 MSTORE SWAP1 PUSH1 0x40 MSTORE DUP1 MLOAD SWAP1 PUSH1 0x20 ADD KECCAK256 PUSH1 0x3 DUP6 DUP2 SLOAD DUP2 LT PUSH2 0x72B JUMPI PUSH2 0x72A PUSH2 0x18A9 JUMP JUMPDEST JUMPDEST SWAP1 PUSH1 0x0 MSTORE PUSH1 0x20 PUSH1 0x0 KECCAK256 SWAP1 PUSH1 0x4 MUL ADD PUSH1 0x3 ADD PUSH1 0x40 MLOAD PUSH1 0x20 ADD PUSH2 0x74C SWAP2 SWAP1 PUSH2 0x1DAE JUMP JUMPDEST PUSH1 0x40 MLOAD PUSH1 0x20 DUP2 DUP4 SUB SUB DUP2 MSTORE SWAP1 PUSH1 0x40 MSTORE DUP1 MLOAD SWAP1 PUSH1 0x20 ADD KECCAK256 EQ ISZERO JUMPDEST ISZERO PUSH2 0x7A7 JUMPI PUSH1 0x40 MLOAD DUP1 PUSH1 0x40 ADD PUSH1 0x40 MSTORE DUP1 PUSH1 0x7 DUP2 MSTORE PUSH1 0x20 ADD PUSH32 0x6465626974656400000000000000000000000000000000000000000000000000 DUP2 MSTORE POP SWAP2 POP PUSH2 0x834 JUMP JUMPDEST DUP1 PUSH1 0x2 ADD PUSH1 0x0 SWAP1 SLOAD SWAP1 PUSH2 0x100 EXP SWAP1 DIV PUSH1 0xFF AND PUSH2 0x7FA JUMPI PUSH1 0x40 MLOAD DUP1 PUSH1 0x40 ADD PUSH1 0x40 MSTORE DUP1 PUSH1 0x7 DUP2 MSTORE PUSH1 0x20 ADD PUSH32 0x70656E64696E6700000000000000000000000000000000000000000000000000 DUP2 MSTORE POP SWAP2 POP PUSH2 0x833 JUMP JUMPDEST PUSH1 0x40 MLOAD DUP1 PUSH1 0x40 ADD PUSH1 0x40 MSTORE DUP1 PUSH1 0x6 DUP2 MSTORE PUSH1 0x20 ADD PUSH32 0x6661696C65640000000000000000000000000000000000000000000000000000 DUP2 MSTORE POP SWAP2 POP JUMPDEST JUMPDEST DUP1 PUSH1 0x1 ADD SLOAD SWAP3 POP POP SWAP2 POP SWAP2 JUMP JUMPDEST PUSH1 0x3 DUP2 DUP2 SLOAD DUP2 LT PUSH2 0x851 JUMPI PUSH1 0x0 DUP1 REVERT JUMPDEST SWAP1 PUSH1 0x0 MSTORE PUSH1 0x20 PUSH1 0x0 KECCAK256 SWAP1 PUSH1 0x4 MUL ADD PUSH1 0x0 SWAP2 POP SWAP1 POP DUP1 PUSH1 0x0 ADD PUSH1 0x0 SWAP1 SLOAD SWAP1 PUSH2 0x100 EXP SWAP1 DIV PUSH20 0xFFFFFFFFFFFFFFFFFFFFFFFFFFFFFFFFFFFFFFFF AND SWAP1 DUP1 PUSH1 0x1 ADD SLOAD SWAP1 DUP1 PUSH1 0x2 ADD PUSH1 0x0 SWAP1 SLOAD SWAP1 PUSH2 0x100 EXP SWAP1 DIV PUSH1 0xFF AND SWAP1 DUP1 PUSH1 0x3 ADD DUP1 SLOAD PUSH2 0x8B3 SWAP1 PUSH2 0x1A10 JUMP JUMPDEST DUP1 PUSH1 0x1F ADD PUSH1 0x20 DUP1 SWAP2 DIV MUL PUSH1 0x20 ADD PUSH1 0x40 MLOAD SWAP1 DUP2 ADD PUSH1 0x40 MSTORE DUP1 SWAP3 SWAP2 SWAP1 DUP2 DUP2 MSTORE PUSH1 0x20 ADD DUP3 DUP1 SLOAD PUSH2 0x8DF SWAP1 PUSH2 0x1A10 JUMP JUMPDEST DUP1 ISZERO PUSH2 0x92C JUMPI DUP1 PUSH1 0x1F LT PUSH2 0x901 JUMPI PUSH2 0x100 DUP1 DUP4 SLOAD DIV MUL DUP4 MSTORE SWAP2 PUSH1 0x20 ADD SWAP2 PUSH2 0x92C JUMP JUMPDEST DUP3 ADD SWAP2 SWAP1 PUSH1 0x0 MSTORE PUSH1 0x20 PUSH1 0x0 KECCAK256 SWAP1 JUMPDEST DUP2 SLOAD DUP2 MSTORE SWAP1 PUSH1 0x1 ADD SWAP1 PUSH1 0x20 ADD DUP1 DUP4 GT PUSH2 0x90F JUMPI DUP3 SWAP1 SUB PUSH1 0x1F AND DUP3 ADD SWAP2 JUMPDEST POP POP POP POP POP SWAP1 POP DUP5 JUMP JUMPDEST PUSH1 0x0 DUP3 MLOAD GT PUSH2 0x97A JUMPI PUSH1 0x40 MLOAD PUSH32 0x8C379A000000000000000000000000000000000000000000000000000000000 DUP2 MSTORE PUSH1 0x4 ADD PUSH2 0x971 SWAP1 PUSH2 0x1E7D JUMP JUMPDEST PUSH1 0x40 MLOAD DUP1 SWAP2 SUB SWAP1 REVERT JUMPDEST PUSH1 0x0 DUP2 GT PUSH2 0x9BD JUMPI PUSH1 0x40 MLOAD PUSH32 0x8C379A000000000000000000000000000000000000000000000000000000000 DUP2 MSTORE PUSH1 0x4 ADD PUSH2 0x9B4 SWAP1 PUSH2 0x1F0F JUMP JUMPDEST PUSH1 0x40 MLOAD DUP1 SWAP2 SUB SWAP1 REVERT JUMPDEST PUSH1 0x0 PUSH1 0x1 SWAP1 POP PUSH1 0x0 JUMPDEST DUP4 MLOAD DUP2 LT ISZERO PUSH2 0xA54 JUMPI PUSH1 0x0 DUP1 SLOAD SWAP1 PUSH2 0x100 EXP SWAP1 DIV PUSH20 0xFFFFFFFFFFFFFFFFFFFFFFFFFFFFFFFFFFFFFFFF AND PUSH20 0xFFFFFFFFFFFFFFFFFFFFFFFFFFFFFFFFFFFFFFFF AND DUP5 DUP3 DUP2 MLOAD DUP2 LT PUSH2 0xA19 JUMPI PUSH2 0xA18 PUSH2 0x18A9 JUMP JUMPDEST JUMPDEST PUSH1 0x20 MUL PUSH1 0x20 ADD ADD MLOAD PUSH20 0xFFFFFFFFFFFFFFFFFFFFFFFFFFFFFFFFFFFFFFFF AND SUB PUSH2 0xA41 JUMPI PUSH1 0x0 SWAP2 POP JUMPDEST DUP1 DUP1 PUSH2 0xA4C SWAP1 PUSH2 0x1907 JUMP JUMPDEST SWAP2 POP POP PUSH2 0x9C6 JUMP JUMPDEST POP DUP1 PUSH2 0xA95 JUMPI PUSH1 0x40 MLOAD PUSH32 0x8C379A000000000000000000000000000000000000000000000000000000000 DUP2 MSTORE PUSH1 0x4 ADD PUSH2 0xA8C SWAP1 PUSH2 0x1FA1 JUMP JUMPDEST PUSH1 0x40 MLOAD DUP1 SWAP2 SUB SWAP1 REVERT JUMPDEST PUSH1 0x0 ISZERO ISZERO PUSH1 0x0 PUSH1 0x14 SWAP1 SLOAD SWAP1 PUSH2 0x100 EXP SWAP1 DIV PUSH1 0xFF AND ISZERO ISZERO EQ PUSH2 0xAEB JUMPI PUSH1 0x40 MLOAD PUSH32 0x8C379A000000000000000000000000000000000000000000000000000000000 DUP2 MSTORE PUSH1 0x4 ADD PUSH2 0xAE2 SWAP1 PUSH2 0x2033 JUMP JUMPDEST PUSH1 0x40 MLOAD DUP1 SWAP2 SUB SWAP1 REVERT JUMPDEST DUP3 PUSH1 0x1 SWAP1 DUP1 MLOAD SWAP1 PUSH1 0x20 ADD SWAP1 PUSH2 0xB01 SWAP3 SWAP2 SWAP1 PUSH2 0x12BE JUMP JUMPDEST POP DUP2 PUSH1 0x2 DUP2 SWAP1 SSTORE POP PUSH1 0x1 PUSH1 0x0 PUSH1 0x14 PUSH2 0x100 EXP DUP2 SLOAD DUP2 PUSH1 0xFF MUL NOT AND SWAP1 DUP4 ISZERO ISZERO MUL OR SWAP1 SSTORE POP POP POP POP JUMP JUMPDEST PUSH1 0x2 SLOAD DUP2 JUMP JUMPDEST PUSH1 0x0 PUSH1 0x14 SWAP1 SLOAD SWAP1 PUSH2 0x100 EXP SWAP1 DIV PUSH1 0xFF AND PUSH2 0xB7E JUMPI PUSH1 0x40 MLOAD PUSH32 0x8C379A000000000000000000000000000000000000000000000000000000000 DUP2 MSTORE PUSH1 0x4 ADD PUSH2 0xB75 SWAP1 PUSH2 0x209F JUMP JUMPDEST PUSH1 0x40 MLOAD DUP1 SWAP2 SUB SWAP1 REVERT JUMPDEST PUSH1 0x3 DUP1 SLOAD SWAP1 POP DUP2 LT PUSH2 0xBC5 JUMPI PUSH1 0x40 MLOAD PUSH32 0x8C379A000000000000000000000000000000000000000000000000000000000 DUP2 MSTORE PUSH1 0x4 ADD PUSH2 0xBBC SWAP1 PUSH2 0x210B JUMP JUMPDEST PUSH1 0x40 MLOAD DUP1 SWAP2 SUB SWAP1 REVERT JUMPDEST PUSH1 0x0 DUP1 JUMPDEST PUSH1 0x1 DUP1 SLOAD SWAP1 POP DUP2 LT ISZERO PUSH2 0xC63 JUMPI CALLER PUSH20 0xFFFFFFFFFFFFFFFFFFFFFFFFFFFFFFFFFFFFFFFF AND PUSH1 0x1 DUP3 DUP2 SLOAD DUP2 LT PUSH2 0xC01 JUMPI PUSH2 0xC00 PUSH2 0x18A9 JUMP JUMPDEST JUMPDEST SWAP1 PUSH1 0x0 MSTORE PUSH1 0x20 PUSH1 0x0 KECCAK256 ADD PUSH1 0x0 SWAP1 SLOAD SWAP1 PUSH2 0x100 EXP SWAP1 DIV PUSH20 0xFFFFFFFFFFFFFFFFFFFFFFFFFFFFFFFFFFFFFFFF AND PUSH20 0xFFFFFFFFFFFFFFFFFFFFFFFFFFFFFFFFFFFFFFFF AND SUB PUSH2 0xC50 JUMPI PUSH1 0x1 SWAP2 POP PUSH2 0xC63 JUMP JUMPDEST DUP1 DUP1 PUSH2 0xC5B SWAP1 PUSH2 0x1907 JUMP JUMPDEST SWAP2 POP POP PUSH2 0xBC9 JUMP JUMPDEST POP DUP1 PUSH2 0xCA4 JUMPI PUSH1 0x40 MLOAD PUSH32 0x8C379A000000000000000000000000000000000000000000000000000000000 DUP2 MSTORE PUSH1 0x4 ADD PUSH2 0xC9B SWAP1 PUSH2 0x219D JUMP JUMPDEST PUSH1 0x40 MLOAD DUP1 SWAP2 SUB SWAP1 REVERT JUMPDEST PUSH1 0x40 MLOAD PUSH1 0x20 ADD PUSH2 0xCB3 SWAP1 PUSH2 0x2209 JUMP JUMPDEST PUSH1 0x40 MLOAD PUSH1 0x20 DUP2 DUP4 SUB SUB DUP2 MSTORE SWAP1 PUSH1 0x40 MSTORE DUP1 MLOAD SWAP1 PUSH1 0x20 ADD KECCAK256 PUSH1 0x3 DUP4 DUP2 SLOAD DUP2 LT PUSH2 0xCDD JUMPI PUSH2 0xCDC PUSH2 0x18A9 JUMP JUMPDEST JUMPDEST SWAP1 PUSH1 0x0 MSTORE PUSH1 0x20 PUSH1 0x0 KECCAK256 SWAP1 PUSH1 0x4 MUL ADD PUSH1 0x3 ADD PUSH1 0x40 MLOAD PUSH1 0x20 ADD PUSH2 0xCFE SWAP2 SWAP1 PUSH2 0x1DAE JUMP JUMPDEST PUSH1 0x40 MLOAD PUSH1 0x20 DUP2 DUP4 SUB SUB DUP2 MSTORE SWAP1 PUSH1 0x40 MSTORE DUP1 MLOAD SWAP1 PUSH1 0x20 ADD KECCAK256 EQ DUP1 PUSH2 0xD8D JUMPI POP PUSH1 0x40 MLOAD PUSH1 0x20 ADD PUSH2 0xD2A SWAP1 PUSH2 0x226A JUMP JUMPDEST PUSH1 0x40 MLOAD PUSH1 0x20 DUP2 DUP4 SUB SUB DUP2 MSTORE SWAP1 PUSH1 0x40 MSTORE DUP1 MLOAD SWAP1 PUSH1 0x20 ADD KECCAK256 PUSH1 0x3 DUP4 DUP2 SLOAD DUP2 LT PUSH2 0xD54 JUMPI PUSH2 0xD53 PUSH2 0x18A9 JUMP JUMPDEST JUMPDEST SWAP1 PUSH1 0x0 MSTORE PUSH1 0x20 PUSH1 0x0 KECCAK256 SWAP1 PUSH1 0x4 MUL ADD PUSH1 0x3 ADD PUSH1 0x40 MLOAD PUSH1 0x20 ADD PUSH2 0xD75 SWAP2 SWAP1 PUSH2 0x1DAE JUMP JUMPDEST PUSH1 0x40 MLOAD PUSH1 0x20 DUP2 DUP4 SUB SUB DUP2 MSTORE SWAP1 PUSH1 0x40 MSTORE DUP1 MLOAD SWAP1 PUSH1 0x20 ADD KECCAK256 EQ JUMPDEST PUSH2 0xDCC JUMPI PUSH1 0x40 MLOAD PUSH32 0x8C379A000000000000000000000000000000000000000000000000000000000 DUP2 MSTORE PUSH1 0x4 ADD PUSH2 0xDC3 SWAP1 PUSH2 0x22CB JUMP JUMPDEST PUSH1 0x40 MLOAD DUP1 SWAP2 SUB SWAP1 REVERT JUMPDEST PUSH1 0x1 PUSH1 0x3 DUP4 DUP2 SLOAD DUP2 LT PUSH2 0xDE2 JUMPI PUSH2 0xDE1 PUSH2 0x18A9 JUMP JUMPDEST JUMPDEST SWAP1 PUSH1 0x0 MSTORE PUSH1 0x20 PUSH1 0x0 KECCAK256 SWAP1 PUSH1 0x4 MUL ADD PUSH1 0x2 ADD PUSH1 0x0 PUSH2 0x100 EXP DUP2 SLOAD DUP2 PUSH1 0xFF MUL NOT AND SWAP1 DUP4 ISZERO ISZERO MUL OR SWAP1 SSTORE POP PUSH1 0x3 DUP3 DUP2 SLOAD DUP2 LT PUSH2 0xE1E JUMPI PUSH2 0xE1D PUSH2 0x18A9 JUMP JUMPDEST JUMPDEST SWAP1 PUSH1 0x0 MSTORE PUSH1 0x20 PUSH1 0x0 KECCAK256 SWAP1 PUSH1 0x4 MUL ADD PUSH1 0x1 ADD SLOAD PUSH1 0x2 SLOAD GT ISZERO PUSH2 0xEE4 JUMPI PUSH1 0x3 DUP3 DUP2 SLOAD DUP2 LT PUSH2 0xE4D JUMPI PUSH2 0xE4C PUSH2 0x18A9 JUMP JUMPDEST JUMPDEST SWAP1 PUSH1 0x0 MSTORE PUSH1 0x20 PUSH1 0x0 KECCAK256 SWAP1 PUSH1 0x4 MUL ADD PUSH1 0x1 ADD SLOAD PUSH1 0x2 PUSH1 0x0 DUP3 DUP3 SLOAD PUSH2 0xE70 SWAP2 SWAP1 PUSH2 0x22EB JUMP JUMPDEST SWAP3 POP POP DUP2 SWAP1 SSTORE POP PUSH1 0x40 MLOAD DUP1 PUSH1 0x40 ADD PUSH1 0x40 MSTORE DUP1 PUSH1 0x7 DUP2 MSTORE PUSH1 0x20 ADD PUSH32 0x6465626974656400000000000000000000000000000000000000000000000000 DUP2 MSTORE POP PUSH1 0x3 DUP4 DUP2 SLOAD DUP2 LT PUSH2 0xEC1 JUMPI PUSH2 0xEC0 PUSH2 0x18A9 JUMP JUMPDEST JUMPDEST SWAP1 PUSH1 0x0 MSTORE PUSH1 0x20 PUSH1 0x0 KECCAK256 SWAP1 PUSH1 0x4 MUL ADD PUSH1 0x3 ADD SWAP1 DUP2 PUSH2 0xEDE SWAP2 SWAP1 PUSH2 0x1BED JUMP JUMPDEST POP PUSH2 0xF4D JUMP JUMPDEST PUSH1 0x40 MLOAD DUP1 PUSH1 0x40 ADD PUSH1 0x40 MSTORE DUP1 PUSH1 0x6 DUP2 MSTORE PUSH1 0x20 ADD PUSH32 0x6661696C65640000000000000000000000000000000000000000000000000000 DUP2 MSTORE POP PUSH1 0x3 DUP4 DUP2 SLOAD DUP2 LT PUSH2 0xF2E JUMPI PUSH2 0xF2D PUSH2 0x18A9 JUMP JUMPDEST JUMPDEST SWAP1 PUSH1 0x0 MSTORE PUSH1 0x20 PUSH1 0x0 KECCAK256 SWAP1 PUSH1 0x4 MUL ADD PUSH1 0x3 ADD SWAP1 DUP2 PUSH2 0xF4B SWAP2 SWAP1 PUSH2 0x1BED JUMP JUMPDEST POP JUMPDEST POP POP JUMP JUMPDEST PUSH1 0x0 PUSH1 0x14 SWAP1 SLOAD SWAP1 PUSH2 0x100 EXP SWAP1 DIV PUSH1 0xFF AND PUSH2 0xFA0 JUMPI PUSH1 0x40 MLOAD PUSH32 0x8C379A000000000000000000000000000000000000000000000000000000000 DUP2 MSTORE PUSH1 0x4 ADD PUSH2 0xF97 SWAP1 PUSH2 0x209F JUMP JUMPDEST PUSH1 0x40 MLOAD DUP1 SWAP2 SUB SWAP1 REVERT JUMPDEST PUSH1 0x3 DUP1 SLOAD SWAP1 POP DUP2 LT PUSH2 0xFE7 JUMPI PUSH1 0x40 MLOAD PUSH32 0x8C379A000000000000000000000000000000000000000000000000000000000 DUP2 MSTORE PUSH1 0x4 ADD PUSH2 0xFDE SWAP1 PUSH2 0x210B JUMP JUMPDEST PUSH1 0x40 MLOAD DUP1 SWAP2 SUB SWAP1 REVERT JUMPDEST PUSH1 0x0 DUP1 JUMPDEST PUSH1 0x1 DUP1 SLOAD SWAP1 POP DUP2 LT ISZERO PUSH2 0x1085 JUMPI CALLER PUSH20 0xFFFFFFFFFFFFFFFFFFFFFFFFFFFFFFFFFFFFFFFF AND PUSH1 0x1 DUP3 DUP2 SLOAD DUP2 LT PUSH2 0x1023 JUMPI PUSH2 0x1022 PUSH2 0x18A9 JUMP JUMPDEST JUMPDEST SWAP1 PUSH1 0x0 MSTORE PUSH1 0x20 PUSH1 0x0 KECCAK256 ADD PUSH1 0x0 SWAP1 SLOAD SWAP1 PUSH2 0x100 EXP SWAP1 DIV PUSH20 0xFFFFFFFFFFFFFFFFFFFFFFFFFFFFFFFFFFFFFFFF AND PUSH20 0xFFFFFFFFFFFFFFFFFFFFFFFFFFFFFFFFFFFFFFFF AND SUB PUSH2 0x1072 JUMPI PUSH1 0x1 SWAP2 POP PUSH2 0x1085 JUMP JUMPDEST DUP1 DUP1 PUSH2 0x107D SWAP1 PUSH2 0x1907 JUMP JUMPDEST SWAP2 POP POP PUSH2 0xFEB JUMP JUMPDEST POP DUP1 PUSH2 0x10C6 JUMPI PUSH1 0x40 MLOAD PUSH32 0x8C379A000000000000000000000000000000000000000000000000000000000 DUP2 MSTORE PUSH1 0x4 ADD PUSH2 0x10BD SWAP1 PUSH2 0x219D JUMP JUMPDEST PUSH1 0x40 MLOAD DUP1 SWAP2 SUB SWAP1 REVERT JUMPDEST PUSH1 0x40 MLOAD PUSH1 0x20 ADD PUSH2 0x10D5 SWAP1 PUSH2 0x2209 JUMP JUMPDEST PUSH1 0x40 MLOAD PUSH1 0x20 DUP2 DUP4 SUB SUB DUP2 MSTORE SWAP1 PUSH1 0x40 MSTORE DUP1 MLOAD SWAP1 PUSH1 0x20 ADD KECCAK256 PUSH1 0x3 DUP4 DUP2 SLOAD DUP2 LT PUSH2 0x10FF JUMPI PUSH2 0x10FE PUSH2 0x18A9 JUMP JUMPDEST JUMPDEST SWAP1 PUSH1 0x0 MSTORE PUSH1 0x20 PUSH1 0x0 KECCAK256 SWAP1 PUSH1 0x4 MUL ADD PUSH1 0x3 ADD PUSH1 0x40 MLOAD PUSH1 0x20 ADD PUSH2 0x1120 SWAP2 SWAP1 PUSH2 0x1DAE JUMP JUMPDEST PUSH1 0x40 MLOAD PUSH1 0x20 DUP2 DUP4 SUB SUB DUP2 MSTORE SWAP1 PUSH1 0x40 MSTORE DUP1 MLOAD SWAP1 PUSH1 0x20 ADD KECCAK256 EQ DUP1 PUSH2 0x11AF JUMPI POP PUSH1 0x40 MLOAD PUSH1 0x20 ADD PUSH2 0x114C SWAP1 PUSH2 0x226A JUMP JUMPDEST PUSH1 0x40 MLOAD PUSH1 0x20 DUP2 DUP4 SUB SUB DUP2 MSTORE SWAP1 PUSH1 0x40 MSTORE DUP1 MLOAD SWAP1 PUSH1 0x20 ADD KECCAK256 PUSH1 0x3 DUP4 DUP2 SLOAD DUP2 LT PUSH2 0x1176 JUMPI PUSH2 0x1175 PUSH2 0x18A9 JUMP JUMPDEST JUMPDEST SWAP1 PUSH1 0x0 MSTORE PUSH1 0x20 PUSH1 0x0 KECCAK256 SWAP1 PUSH1 0x4 MUL ADD PUSH1 0x3 ADD PUSH1 0x40 MLOAD PUSH1 0x20 ADD PUSH2 0x1197 SWAP2 SWAP1 PUSH2 0x1DAE JUMP JUMPDEST PUSH1 0x40 MLOAD PUSH1 0x20 DUP2 DUP4 SUB SUB DUP2 MSTORE SWAP1 PUSH1 0x40 MSTORE DUP1 MLOAD SWAP1 PUSH1 0x20 ADD KECCAK256 EQ JUMPDEST ISZERO PUSH2 0x11EF JUMPI PUSH1 0x40 MLOAD PUSH32 0x8C379A000000000000000000000000000000000000000000000000000000000 DUP2 MSTORE PUSH1 0x4 ADD PUSH2 0x11E6 SWAP1 PUSH2 0x236B JUMP JUMPDEST PUSH1 0x40 MLOAD DUP1 SWAP2 SUB SWAP1 REVERT JUMPDEST PUSH1 0x40 MLOAD DUP1 PUSH1 0x40 ADD PUSH1 0x40 MSTORE DUP1 PUSH1 0x8 DUP2 MSTORE PUSH1 0x20 ADD PUSH32 0x72656A6563746564000000000000000000000000000000000000000000000000 DUP2 MSTORE POP PUSH1 0x3 DUP4 DUP2 SLOAD DUP2 LT PUSH2 0x1239 JUMPI PUSH2 0x1238 PUSH2 0x18A9 JUMP JUMPDEST JUMPDEST SWAP1 PUSH1 0x0 MSTORE PUSH1 0x20 PUSH1 0x0 KECCAK256 SWAP1 PUSH1 0x4 MUL ADD PUSH1 0x3 ADD SWAP1 DUP2 PUSH2 0x1256 SWAP2 SWAP1 PUSH2 0x1BED JUMP JUMPDEST POP POP POP JUMP JUMPDEST PUSH1 0x1 DUP2 DUP2 SLOAD DUP2 LT PUSH2 0x126B JUMPI PUSH1 0x0 DUP1 REVERT JUMPDEST SWAP1 PUSH1 0x0 MSTORE PUSH1 0x20 PUSH1 0x0 KECCAK256 ADD PUSH1 0x0 SWAP2 POP SLOAD SWAP1 PUSH2 0x100 EXP SWAP1 DIV PUSH20 0xFFFFFFFFFFFFFFFFFFFFFFFFFFFFFFFFFFFFFFFF AND DUP2 JUMP JUMPDEST PUSH1 0x0 DUP1 SLOAD SWAP1 PUSH2 0x100 EXP SWAP1 DIV PUSH20 0xFFFFFFFFFFFFFFFFFFFFFFFFFFFFFFFFFFFFFFFF AND DUP2 JUMP JUMPDEST DUP3 DUP1 SLOAD DUP3 DUP3 SSTORE SWAP1 PUSH1 0x0 MSTORE PUSH1 0x20 PUSH1 0x0 KECCAK256 SWAP1 DUP2 ADD SWAP3 DUP3 ISZERO PUSH2 0x1337 JUMPI SWAP2 PUSH1 0x20 MUL DUP3 ADD JUMPDEST DUP3 DUP2 GT ISZERO PUSH2 0x1336 JUMPI DUP3 MLOAD DUP3 PUSH1 0x0 PUSH2 0x100 EXP DUP2 SLOAD DUP2 PUSH20 0xFFFFFFFFFFFFFFFFFFFFFFFFFFFFFFFFFFFFFFFF MUL NOT AND SWAP1 DUP4 PUSH20 0xFFFFFFFFFFFFFFFFFFFFFFFFFFFFFFFFFFFFFFFF AND MUL OR SWAP1 SSTORE POP SWAP2 PUSH1 0x20 ADD SWAP2 SWAP1 PUSH1 0x1 ADD SWAP1 PUSH2 0x12DE JUMP JUMPDEST JUMPDEST POP SWAP1 POP PUSH2 0x1344 SWAP2 SWAP1 PUSH2 0x1348 JUMP JUMPDEST POP SWAP1 JUMP JUMPDEST JUMPDEST DUP1 DUP3 GT ISZERO PUSH2 0x1361 JUMPI PUSH1 0x0 DUP2 PUSH1 0x0 SWAP1 SSTORE POP PUSH1 0x1 ADD PUSH2 0x1349 JUMP JUMPDEST POP SWAP1 JUMP JUMPDEST PUSH1 0x0 PUSH1 0x40 MLOAD SWAP1 POP SWAP1 JUMP JUMPDEST PUSH1 0x0 DUP1 REVERT JUMPDEST PUSH1 0x0 DUP1 REVERT JUMPDEST PUSH1 0x0 DUP2 SWAP1 POP SWAP2 SWAP1 POP JUMP JUMPDEST PUSH2 0x138C DUP2 PUSH2 0x1379 JUMP JUMPDEST DUP2 EQ PUSH2 0x1397 JUMPI PUSH1 0x0 DUP1 REVERT JUMPDEST POP JUMP JUMPDEST PUSH1 0x0 DUP2 CALLDATALOAD SWAP1 POP PUSH2 0x13A9 DUP2 PUSH2 0x1383 JUMP JUMPDEST SWAP3 SWAP2 POP POP JUMP JUMPDEST PUSH1 0x0 PUSH1 0x20 DUP3 DUP5 SUB SLT ISZERO PUSH2 0x13C5 JUMPI PUSH2 0x13C4 PUSH2 0x136F JUMP JUMPDEST JUMPDEST PUSH1 0x0 PUSH2 0x13D3 DUP5 DUP3 DUP6 ADD PUSH2 0x139A JUMP JUMPDEST SWAP2 POP POP SWAP3 SWAP2 POP POP JUMP JUMPDEST PUSH2 0x13E5 DUP2 PUSH2 0x1379 JUMP JUMPDEST DUP3 MSTORE POP POP JUMP JUMPDEST PUSH1 0x0 PUSH1 0x20 DUP3 ADD SWAP1 POP PUSH2 0x1400 PUSH1 0x0 DUP4 ADD DUP5 PUSH2 0x13DC JUMP JUMPDEST SWAP3 SWAP2 POP POP JUMP JUMPDEST PUSH1 0x0 PUSH1 0x60 DUP3 ADD SWAP1 POP PUSH2 0x141B PUSH1 0x0 DUP4 ADD DUP7 PUSH2 0x13DC JUMP JUMPDEST PUSH2 0x1428 PUSH1 0x20 DUP4 ADD DUP6 PUSH2 0x13DC JUMP JUMPDEST PUSH2 0x1435 PUSH1 0x40 DUP4 ADD DUP5 PUSH2 0x13DC JUMP JUMPDEST SWAP5 SWAP4 POP POP POP POP JUMP JUMPDEST PUSH1 0x0 DUP2 ISZERO ISZERO SWAP1 POP SWAP2 SWAP1 POP JUMP JUMPDEST PUSH2 0x1452 DUP2 PUSH2 0x143D JUMP JUMPDEST DUP3 MSTORE POP POP JUMP JUMPDEST PUSH1 0x0 PUSH1 0x20 DUP3 ADD SWAP1 POP PUSH2 0x146D PUSH1 0x0 DUP4 ADD DUP5 PUSH2 0x1449 JUMP JUMPDEST SWAP3 SWAP2 POP POP JUMP JUMPDEST PUSH1 0x0 DUP2 MLOAD SWAP1 POP SWAP2 SWAP1 POP JUMP JUMPDEST PUSH1 0x0 DUP3 DUP3 MSTORE PUSH1 0x20 DUP3 ADD SWAP1 POP SWAP3 SWAP2 POP POP JUMP JUMPDEST PUSH1 0x0 JUMPDEST DUP4 DUP2 LT ISZERO PUSH2 0x14AD JUMPI DUP1 DUP3 ADD MLOAD DUP2 DUP5 ADD MSTORE PUSH1 0x20 DUP2 ADD SWAP1 POP PUSH2 0x1492 JUMP JUMPDEST PUSH1 0x0 DUP5 DUP5 ADD MSTORE POP POP POP POP JUMP JUMPDEST PUSH1 0x0 PUSH1 0x1F NOT PUSH1 0x1F DUP4 ADD AND SWAP1 POP SWAP2 SWAP1 POP JUMP JUMPDEST PUSH1 0x0 PUSH2 0x14D5 DUP3 PUSH2 0x1473 JUMP JUMPDEST PUSH2 0x14DF DUP2 DUP6 PUSH2 0x147E JUMP JUMPDEST SWAP4 POP PUSH2 0x14EF DUP2 DUP6 PUSH1 0x20 DUP7 ADD PUSH2 0x148F JUMP JUMPDEST PUSH2 0x14F8 DUP2 PUSH2 0x14B9 JUMP JUMPDEST DUP5 ADD SWAP2 POP POP SWAP3 SWAP2 POP POP JUMP JUMPDEST PUSH1 0x0 PUSH1 0x40 DUP3 ADD SWAP1 POP PUSH2 0x1518 PUSH1 0x0 DUP4 ADD DUP6 PUSH2 0x13DC JUMP JUMPDEST DUP2 DUP2 SUB PUSH1 0x20 DUP4 ADD MSTORE PUSH2 0x152A DUP2 DUP5 PUSH2 0x14CA JUMP JUMPDEST SWAP1 POP SWAP4 SWAP3 POP POP POP JUMP JUMPDEST PUSH1 0x0 PUSH20 0xFFFFFFFFFFFFFFFFFFFFFFFFFFFFFFFFFFFFFFFF DUP3 AND SWAP1 POP SWAP2 SWAP1 POP JUMP JUMPDEST PUSH1 0x0 PUSH2 0x155E DUP3 PUSH2 0x1533 JUMP JUMPDEST SWAP1 POP SWAP2 SWAP1 POP JUMP JUMPDEST PUSH2 0x156E DUP2 PUSH2 0x1553 JUMP JUMPDEST DUP3 MSTORE POP POP JUMP JUMPDEST PUSH1 0x0 PUSH1 0x80 DUP3 ADD SWAP1 POP PUSH2 0x1589 PUSH1 0x0 DUP4 ADD DUP8 PUSH2 0x1565 JUMP JUMPDEST PUSH2 0x1596 PUSH1 0x20 DUP4 ADD DUP7 PUSH2 0x13DC JUMP JUMPDEST PUSH2 0x15A3 PUSH1 0x40 DUP4 ADD DUP6 PUSH2 0x1449 JUMP JUMPDEST DUP2 DUP2 SUB PUSH1 0x60 DUP4 ADD MSTORE PUSH2 0x15B5 DUP2 DUP5 PUSH2 0x14CA JUMP JUMPDEST SWAP1 POP SWAP6 SWAP5 POP POP POP POP POP JUMP JUMPDEST PUSH1 0x0 DUP1 REVERT JUMPDEST PUSH32 0x4E487B7100000000000000000000000000000000000000000000000000000000 PUSH1 0x0 MSTORE PUSH1 0x41 PUSH1 0x4 MSTORE PUSH1 0x24 PUSH1 0x0 REVERT JUMPDEST PUSH2 0x15FD DUP3 PUSH2 0x14B9 JUMP JUMPDEST DUP2 ADD DUP2 DUP2 LT PUSH8 0xFFFFFFFFFFFFFFFF DUP3 GT OR ISZERO PUSH2 0x161C JUMPI PUSH2 0x161B PUSH2 0x15C5 JUMP JUMPDEST JUMPDEST DUP1 PUSH1 0x40 MSTORE POP POP POP JUMP JUMPDEST PUSH1 0x0 PUSH2 0x162F PUSH2 0x1365 JUMP JUMPDEST SWAP1 POP PUSH2 0x163B DUP3 DUP3 PUSH2 0x15F4 JUMP JUMPDEST SWAP2 SWAP1 POP JUMP JUMPDEST PUSH1 0x0 PUSH8 0xFFFFFFFFFFFFFFFF DUP3 GT ISZERO PUSH2 0x165B JUMPI PUSH2 0x165A PUSH2 0x15C5 JUMP JUMPDEST JUMPDEST PUSH1 0x20 DUP3 MUL SWAP1 POP PUSH1 0x20 DUP2 ADD SWAP1 POP SWAP2 SWAP1 POP JUMP JUMPDEST PUSH1 0x0 DUP1 REVERT JUMPDEST PUSH2 0x167A DUP2 PUSH2 0x1553 JUMP JUMPDEST DUP2 EQ PUSH2 0x1685 JUMPI PUSH1 0x0 DUP1 REVERT JUMPDEST POP JUMP JUMPDEST PUSH1 0x0 DUP2 CALLDATALOAD SWAP1 POP PUSH2 0x1697 DUP2 PUSH2 0x1671 JUMP JUMPDEST SWAP3 SWAP2 POP POP JUMP JUMPDEST PUSH1 0x0 PUSH2 0x16B0 PUSH2 0x16AB DUP5 PUSH2 0x1640 JUMP JUMPDEST PUSH2 0x1625 JUMP JUMPDEST SWAP1 POP DUP1 DUP4 DUP3 MSTORE PUSH1 0x20 DUP3 ADD SWAP1 POP PUSH1 0x20 DUP5 MUL DUP4 ADD DUP6 DUP2 GT ISZERO PUSH2 0x16D3 JUMPI PUSH2 0x16D2 PUSH2 0x166C JUMP JUMPDEST JUMPDEST DUP4 JUMPDEST DUP2 DUP2 LT ISZERO PUSH2 0x16FC JUMPI DUP1 PUSH2 0x16E8 DUP9 DUP3 PUSH2 0x1688 JUMP JUMPDEST DUP5 MSTORE PUSH1 0x20 DUP5 ADD SWAP4 POP POP PUSH1 0x20 DUP2 ADD SWAP1 POP PUSH2 0x16D5 JUMP JUMPDEST POP POP POP SWAP4 SWAP3 POP POP POP JUMP JUMPDEST PUSH1 0x0 DUP3 PUSH1 0x1F DUP4 ADD SLT PUSH2 0x171B JUMPI PUSH2 0x171A PUSH2 0x15C0 JUMP JUMPDEST JUMPDEST DUP2 CALLDATALOAD PUSH2 0x172B DUP5 DUP3 PUSH1 0x20 DUP7 ADD PUSH2 0x169D JUMP JUMPDEST SWAP2 POP POP SWAP3 SWAP2 POP POP JUMP JUMPDEST PUSH1 0x0 DUP1 PUSH1 0x40 DUP4 DUP6 SUB SLT ISZERO PUSH2 0x174B JUMPI PUSH2 0x174A PUSH2 0x136F JUMP JUMPDEST JUMPDEST PUSH1 0x0 DUP4 ADD CALLDATALOAD PUSH8 0xFFFFFFFFFFFFFFFF DUP2 GT ISZERO PUSH2 0x1769 JUMPI PUSH2 0x1768 PUSH2 0x1374 JUMP JUMPDEST JUMPDEST PUSH2 0x1775 DUP6 DUP3 DUP7 ADD PUSH2 0x1706 JUMP JUMPDEST SWAP3 POP POP PUSH1 0x20 PUSH2 0x1786 DUP6 DUP3 DUP7 ADD PUSH2 0x139A JUMP JUMPDEST SWAP2 POP POP SWAP3 POP SWAP3 SWAP1 POP JUMP JUMPDEST PUSH1 0x0 PUSH1 0x20 DUP3 ADD SWAP1 POP PUSH2 0x17A5 PUSH1 0x0 DUP4 ADD DUP5 PUSH2 0x1565 JUMP JUMPDEST SWAP3 SWAP2 POP POP JUMP JUMPDEST PUSH32 0x5468652077616C6C6574206973206E6F74207365742079657400000000000000 PUSH1 0x0 DUP3 ADD MSTORE POP JUMP JUMPDEST PUSH1 0x0 PUSH2 0x17E1 PUSH1 0x19 DUP4 PUSH2 0x147E JUMP JUMPDEST SWAP2 POP PUSH2 0x17EC DUP3 PUSH2 0x17AB JUMP JUMPDEST PUSH1 0x20 DUP3 ADD SWAP1 POP SWAP2 SWAP1 POP JUMP JUMPDEST PUSH1 0x0 PUSH1 0x20 DUP3 ADD SWAP1 POP DUP2 DUP2 SUB PUSH1 0x0 DUP4 ADD MSTORE PUSH2 0x1810 DUP2 PUSH2 0x17D4 JUMP JUMPDEST SWAP1 POP SWAP2 SWAP1 POP JUMP JUMPDEST PUSH32 0x54686520616D6F756E742073686F756C64206265206772656174657220746861 PUSH1 0x0 DUP3 ADD MSTORE PUSH32 0x6E20300000000000000000000000000000000000000000000000000000000000 PUSH1 0x20 DUP3 ADD MSTORE POP JUMP JUMPDEST PUSH1 0x0 PUSH2 0x1873 PUSH1 0x23 DUP4 PUSH2 0x147E JUMP JUMPDEST SWAP2 POP PUSH2 0x187E DUP3 PUSH2 0x1817 JUMP JUMPDEST PUSH1 0x40 DUP3 ADD SWAP1 POP SWAP2 SWAP1 POP JUMP JUMPDEST PUSH1 0x0 PUSH1 0x20 DUP3 ADD SWAP1 POP DUP2 DUP2 SUB PUSH1 0x0 DUP4 ADD MSTORE PUSH2 0x18A2 DUP2 PUSH2 0x1866 JUMP JUMPDEST SWAP1 POP SWAP2 SWAP1 POP JUMP JUMPDEST PUSH32 0x4E487B7100000000000000000000000000000000000000000000000000000000 PUSH1 0x0 MSTORE PUSH1 0x32 PUSH1 0x4 MSTORE PUSH1 0x24 PUSH1 0x0 REVERT JUMPDEST PUSH32 0x4E487B7100000000000000000000000000000000000000000000000000000000 PUSH1 0x0 MSTORE PUSH1 0x11 PUSH1 0x4 MSTORE PUSH1 0x24 PUSH1 0x0 REVERT JUMPDEST PUSH1 0x0 PUSH2 0x1912 DUP3 PUSH2 0x1379 JUMP JUMPDEST SWAP2 POP PUSH32 0xFFFFFFFFFFFFFFFFFFFFFFFFFFFFFFFFFFFFFFFFFFFFFFFFFFFFFFFFFFFFFFFF DUP3 SUB PUSH2 0x1944 JUMPI PUSH2 0x1943 PUSH2 0x18D8 JUMP JUMPDEST JUMPDEST PUSH1 0x1 DUP3 ADD SWAP1 POP SWAP2 SWAP1 POP JUMP JUMPDEST PUSH32 0x74686520726571756573742063616E206F6E6C79206265206170706F72766564 PUSH1 0x0 DUP3 ADD MSTORE PUSH32 0x2062792061207465616D206D656D626572000000000000000000000000000000 PUSH1 0x20 DUP3 ADD MSTORE POP JUMP JUMPDEST PUSH1 0x0 PUSH2 0x19AB PUSH1 0x31 DUP4 PUSH2 0x147E JUMP JUMPDEST SWAP2 POP PUSH2 0x19B6 DUP3 PUSH2 0x194F JUMP JUMPDEST PUSH1 0x40 DUP3 ADD SWAP1 POP SWAP2 SWAP1 POP JUMP JUMPDEST PUSH1 0x0 PUSH1 0x20 DUP3 ADD SWAP1 POP DUP2 DUP2 SUB PUSH1 0x0 DUP4 ADD MSTORE PUSH2 0x19DA DUP2 PUSH2 0x199E JUMP JUMPDEST SWAP1 POP SWAP2 SWAP1 POP JUMP JUMPDEST PUSH32 0x4E487B7100000000000000000000000000000000000000000000000000000000 PUSH1 0x0 MSTORE PUSH1 0x22 PUSH1 0x4 MSTORE PUSH1 0x24 PUSH1 0x0 REVERT JUMPDEST PUSH1 0x0 PUSH1 0x2 DUP3 DIV SWAP1 POP PUSH1 0x1 DUP3 AND DUP1 PUSH2 0x1A28 JUMPI PUSH1 0x7F DUP3 AND SWAP2 POP JUMPDEST PUSH1 0x20 DUP3 LT DUP2 SUB PUSH2 0x1A3B JUMPI PUSH2 0x1A3A PUSH2 0x19E1 JUMP JUMPDEST JUMPDEST POP SWAP2 SWAP1 POP JUMP JUMPDEST PUSH1 0x0 DUP2 SWAP1 POP DUP2 PUSH1 0x0 MSTORE PUSH1 0x20 PUSH1 0x0 KECCAK256 SWAP1 POP SWAP2 SWAP1 POP JUMP JUMPDEST PUSH1 0x0 PUSH1 0x20 PUSH1 0x1F DUP4 ADD DIV SWAP1 POP SWAP2 SWAP1 POP JUMP JUMPDEST PUSH1 0x0 DUP3 DUP3 SHL SWAP1 POP SWAP3 SWAP2 POP POP JUMP JUMPDEST PUSH1 0x0 PUSH1 0x8 DUP4 MUL PUSH2 0x1AA3 PUSH32 0xFFFFFFFFFFFFFFFFFFFFFFFFFFFFFFFFFFFFFFFFFFFFFFFFFFFFFFFFFFFFFFFF DUP3 PUSH2 0x1A66 JUMP JUMPDEST PUSH2 0x1AAD DUP7 DUP4 PUSH2 0x1A66 JUMP JUMPDEST SWAP6 POP DUP1 NOT DUP5 AND SWAP4 POP DUP1 DUP7 AND DUP5 OR SWAP3 POP POP POP SWAP4 SWAP3 POP POP POP JUMP JUMPDEST PUSH1 0x0 DUP2 SWAP1 POP SWAP2 SWAP1 POP JUMP JUMPDEST PUSH1 0x0 PUSH2 0x1AEA PUSH2 0x1AE5 PUSH2 0x1AE0 DUP5 PUSH2 0x1379 JUMP JUMPDEST PUSH2 0x1AC5 JUMP JUMPDEST PUSH2 0x1379 JUMP JUMPDEST SWAP1 POP SWAP2 SWAP1 POP JUMP JUMPDEST PUSH1 0x0 DUP2 SWAP1 POP SWAP2 SWAP1 POP JUMP JUMPDEST PUSH2 0x1B04 DUP4 PUSH2 0x1ACF JUMP JUMPDEST PUSH2 0x1B18 PUSH2 0x1B10 DUP3 PUSH2 0x1AF1 JUMP JUMPDEST DUP5 DUP5 SLOAD PUSH2 0x1A73 JUMP JUMPDEST DUP3 SSTORE POP POP POP POP JUMP JUMPDEST PUSH1 0x0 SWAP1 JUMP JUMPDEST PUSH2 0x1B2D PUSH2 0x1B20 JUMP JUMPDEST PUSH2 0x1B38 DUP2 DUP5 DUP5 PUSH2 0x1AFB JUMP JUMPDEST POP POP POP JUMP JUMPDEST JUMPDEST DUP2 DUP2 LT ISZERO PUSH2 0x1B5C JUMPI PUSH2 0x1B51 PUSH1 0x0 DUP3 PUSH2 0x1B25 JUMP JUMPDEST PUSH1 0x1 DUP2 ADD SWAP1 POP PUSH2 0x1B3E JUMP JUMPDEST POP POP JUMP JUMPDEST PUSH1 0x1F DUP3 GT ISZERO PUSH2 0x1BA1 JUMPI PUSH2 0x1B72 DUP2 PUSH2 0x1A41 JUMP JUMPDEST PUSH2 0x1B7B DUP5 PUSH2 0x1A56 JUMP JUMPDEST DUP2 ADD PUSH1 0x20 DUP6 LT ISZERO PUSH2 0x1B8A JUMPI DUP2 SWAP1 POP JUMPDEST PUSH2 0x1B9E PUSH2 0x1B96 DUP6 PUSH2 0x1A56 JUMP JUMPDEST DUP4 ADD DUP3 PUSH2 0x1B3D JUMP JUMPDEST POP POP JUMPDEST POP POP POP JUMP JUMPDEST PUSH1 0x0 DUP3 DUP3 SHR SWAP1 POP SWAP3 SWAP2 POP POP JUMP JUMPDEST PUSH1 0x0 PUSH2 0x1BC4 PUSH1 0x0 NOT DUP5 PUSH1 0x8 MUL PUSH2 0x1BA6 JUMP JUMPDEST NOT DUP1 DUP4 AND SWAP2 POP POP SWAP3 SWAP2 POP POP JUMP JUMPDEST PUSH1 0x0 PUSH2 0x1BDD DUP4 DUP4 PUSH2 0x1BB3 JUMP JUMPDEST SWAP2 POP DUP3 PUSH1 0x2 MUL DUP3 OR SWAP1 POP SWAP3 SWAP2 POP POP JUMP JUMPDEST PUSH2 0x1BF6 DUP3 PUSH2 0x1473 JUMP JUMPDEST PUSH8 0xFFFFFFFFFFFFFFFF DUP2 GT ISZERO PUSH2 0x1C0F JUMPI PUSH2 0x1C0E PUSH2 0x15C5 JUMP JUMPDEST JUMPDEST PUSH2 0x1C19 DUP3 SLOAD PUSH2 0x1A10 JUMP JUMPDEST PUSH2 0x1C24 DUP3 DUP3 DUP6 PUSH2 0x1B60 JUMP JUMPDEST PUSH1 0x0 PUSH1 0x20 SWAP1 POP PUSH1 0x1F DUP4 GT PUSH1 0x1 DUP2 EQ PUSH2 0x1C57 JUMPI PUSH1 0x0 DUP5 ISZERO PUSH2 0x1C45 JUMPI DUP3 DUP8 ADD MLOAD SWAP1 POP JUMPDEST PUSH2 0x1C4F DUP6 DUP3 PUSH2 0x1BD1 JUMP JUMPDEST DUP7 SSTORE POP PUSH2 0x1CB7 JUMP JUMPDEST PUSH1 0x1F NOT DUP5 AND PUSH2 0x1C65 DUP7 PUSH2 0x1A41 JUMP JUMPDEST PUSH1 0x0 JUMPDEST DUP3 DUP2 LT ISZERO PUSH2 0x1C8D JUMPI DUP5 DUP10 ADD MLOAD DUP3 SSTORE PUSH1 0x1 DUP3 ADD SWAP2 POP PUSH1 0x20 DUP6 ADD SWAP5 POP PUSH1 0x20 DUP2 ADD SWAP1 POP PUSH2 0x1C68 JUMP JUMPDEST DUP7 DUP4 LT ISZERO PUSH2 0x1CAA JUMPI DUP5 DUP10 ADD MLOAD PUSH2 0x1CA6 PUSH1 0x1F DUP10 AND DUP3 PUSH2 0x1BB3 JUMP JUMPDEST DUP4 SSTORE POP JUMPDEST PUSH1 0x1 PUSH1 0x2 DUP9 MUL ADD DUP9 SSTORE POP POP POP JUMPDEST POP POP POP POP POP POP JUMP JUMPDEST PUSH1 0x0 DUP2 SWAP1 POP SWAP3 SWAP2 POP POP JUMP JUMPDEST PUSH32 0x6661696C65640000000000000000000000000000000000000000000000000000 PUSH1 0x0 DUP3 ADD MSTORE POP JUMP JUMPDEST PUSH1 0x0 PUSH2 0x1D00 PUSH1 0x6 DUP4 PUSH2 0x1CBF JUMP JUMPDEST SWAP2 POP PUSH2 0x1D0B DUP3 PUSH2 0x1CCA JUMP JUMPDEST PUSH1 0x6 DUP3 ADD SWAP1 POP SWAP2 SWAP1 POP JUMP JUMPDEST PUSH1 0x0 PUSH2 0x1D21 DUP3 PUSH2 0x1CF3 JUMP JUMPDEST SWAP2 POP DUP2 SWAP1 POP SWAP2 SWAP1 POP JUMP JUMPDEST PUSH1 0x0 DUP2 SLOAD PUSH2 0x1D38 DUP2 PUSH2 0x1A10 JUMP JUMPDEST PUSH2 0x1D42 DUP2 DUP7 PUSH2 0x1CBF JUMP JUMPDEST SWAP5 POP PUSH1 0x1 DUP3 AND PUSH1 0x0 DUP2 EQ PUSH2 0x1D5D JUMPI PUSH1 0x1 DUP2 EQ PUSH2 0x1D72 JUMPI PUSH2 0x1DA5 JUMP JUMPDEST PUSH1 0xFF NOT DUP4 AND DUP7 MSTORE DUP2 ISZERO ISZERO DUP3 MUL DUP7 ADD SWAP4 POP PUSH2 0x1DA5 JUMP JUMPDEST PUSH2 0x1D7B DUP6 PUSH2 0x1A41 JUMP JUMPDEST PUSH1 0x0 JUMPDEST DUP4 DUP2 LT ISZERO PUSH2 0x1D9D JUMPI DUP2 SLOAD DUP2 DUP10 ADD MSTORE PUSH1 0x1 DUP3 ADD SWAP2 POP PUSH1 0x20 DUP2 ADD SWAP1 POP PUSH2 0x1D7E JUMP JUMPDEST DUP4 DUP9 ADD SWAP6 POP POP POP JUMPDEST POP POP POP SWAP3 SWAP2 POP POP JUMP JUMPDEST PUSH1 0x0 PUSH2 0x1DBA DUP3 DUP5 PUSH2 0x1D2B JUMP JUMPDEST SWAP2 POP DUP2 SWAP1 POP SWAP3 SWAP2 POP POP JUMP JUMPDEST PUSH32 0x496E61766C6964207472616E73616374696F6E20696E64657800000000000000 PUSH1 0x0 DUP3 ADD MSTORE POP JUMP JUMPDEST PUSH1 0x0 PUSH2 0x1DFB PUSH1 0x19 DUP4 PUSH2 0x147E JUMP JUMPDEST SWAP2 POP PUSH2 0x1E06 DUP3 PUSH2 0x1DC5 JUMP JUMPDEST PUSH1 0x20 DUP3 ADD SWAP1 POP SWAP2 SWAP1 POP JUMP JUMPDEST PUSH1 0x0 PUSH1 0x20 DUP3 ADD SWAP1 POP DUP2 DUP2 SUB PUSH1 0x0 DUP4 ADD MSTORE PUSH2 0x1E2A DUP2 PUSH2 0x1DEE JUMP JUMPDEST SWAP1 POP SWAP2 SWAP1 POP JUMP JUMPDEST PUSH32 0x546865206D656D6265722073686F756C64206E6F7420626520656D7074790000 PUSH1 0x0 DUP3 ADD MSTORE POP JUMP JUMPDEST PUSH1 0x0 PUSH2 0x1E67 PUSH1 0x1E DUP4 PUSH2 0x147E JUMP JUMPDEST SWAP2 POP PUSH2 0x1E72 DUP3 PUSH2 0x1E31 JUMP JUMPDEST PUSH1 0x20 DUP3 ADD SWAP1 POP SWAP2 SWAP1 POP JUMP JUMPDEST PUSH1 0x0 PUSH1 0x20 DUP3 ADD SWAP1 POP DUP2 DUP2 SUB PUSH1 0x0 DUP4 ADD MSTORE PUSH2 0x1E96 DUP2 PUSH2 0x1E5A JUMP JUMPDEST SWAP1 POP SWAP2 SWAP1 POP JUMP JUMPDEST PUSH32 0x5468652077696E6E696E6720637265646974732073686F756C64206265206772 PUSH1 0x0 DUP3 ADD MSTORE PUSH32 0x6561746572207468616E20300000000000000000000000000000000000000000 PUSH1 0x20 DUP3 ADD MSTORE POP JUMP JUMPDEST PUSH1 0x0 PUSH2 0x1EF9 PUSH1 0x2C DUP4 PUSH2 0x147E JUMP JUMPDEST SWAP2 POP PUSH2 0x1F04 DUP3 PUSH2 0x1E9D JUMP JUMPDEST PUSH1 0x40 DUP3 ADD SWAP1 POP SWAP2 SWAP1 POP JUMP JUMPDEST PUSH1 0x0 PUSH1 0x20 DUP3 ADD SWAP1 POP DUP2 DUP2 SUB PUSH1 0x0 DUP4 ADD MSTORE PUSH2 0x1F28 DUP2 PUSH2 0x1EEC JUMP JUMPDEST SWAP1 POP SWAP2 SWAP1 POP JUMP JUMPDEST PUSH32 0x546865206465706C6F7965722073686F756C64206E6F742062652061206D656D PUSH1 0x0 DUP3 ADD MSTORE PUSH32 0x6562657200000000000000000000000000000000000000000000000000000000 PUSH1 0x20 DUP3 ADD MSTORE POP JUMP JUMPDEST PUSH1 0x0 PUSH2 0x1F8B PUSH1 0x24 DUP4 PUSH2 0x147E JUMP JUMPDEST SWAP2 POP PUSH2 0x1F96 DUP3 PUSH2 0x1F2F JUMP JUMPDEST PUSH1 0x40 DUP3 ADD SWAP1 POP SWAP2 SWAP1 POP JUMP JUMPDEST PUSH1 0x0 PUSH1 0x20 DUP3 ADD SWAP1 POP DUP2 DUP2 SUB PUSH1 0x0 DUP4 ADD MSTORE PUSH2 0x1FBA DUP2 PUSH2 0x1F7E JUMP JUMPDEST SWAP1 POP SWAP2 SWAP1 POP JUMP JUMPDEST PUSH32 0x5468652077616C6C657420697320616C7265616479207365742063616E742073 PUSH1 0x0 DUP3 ADD MSTORE PUSH32 0x657420616761696E000000000000000000000000000000000000000000000000 PUSH1 0x20 DUP3 ADD MSTORE POP JUMP JUMPDEST PUSH1 0x0 PUSH2 0x201D PUSH1 0x28 DUP4 PUSH2 0x147E JUMP JUMPDEST SWAP2 POP PUSH2 0x2028 DUP3 PUSH2 0x1FC1 JUMP JUMPDEST PUSH1 0x40 DUP3 ADD SWAP1 POP SWAP2 SWAP1 POP JUMP JUMPDEST PUSH1 0x0 PUSH1 0x20 DUP3 ADD SWAP1 POP DUP2 DUP2 SUB PUSH1 0x0 DUP4 ADD MSTORE PUSH2 0x204C DUP2 PUSH2 0x2010 JUMP JUMPDEST SWAP1 POP SWAP2 SWAP1 POP JUMP JUMPDEST PUSH32 0x57616C6C6574206973206E6F7420736574000000000000000000000000000000 PUSH1 0x0 DUP3 ADD MSTORE POP JUMP JUMPDEST PUSH1 0x0 PUSH2 0x2089 PUSH1 0x11 DUP4 PUSH2 0x147E JUMP JUMPDEST SWAP2 POP PUSH2 0x2094 DUP3 PUSH2 0x2053 JUMP JUMPDEST PUSH1 0x20 DUP3 ADD SWAP1 POP SWAP2 SWAP1 POP JUMP JUMPDEST PUSH1 0x0 PUSH1 0x20 DUP3 ADD SWAP1 POP DUP2 DUP2 SUB PUSH1 0x0 DUP4 ADD MSTORE PUSH2 0x20B8 DUP2 PUSH2 0x207C JUMP JUMPDEST SWAP1 POP SWAP2 SWAP1 POP JUMP JUMPDEST PUSH32 0x496E76616C6964207472616E73616374696F6E00000000000000000000000000 PUSH1 0x0 DUP3 ADD MSTORE POP JUMP JUMPDEST PUSH1 0x0 PUSH2 0x20F5 PUSH1 0x13 DUP4 PUSH2 0x147E JUMP JUMPDEST SWAP2 POP PUSH2 0x2100 DUP3 PUSH2 0x20BF JUMP JUMPDEST PUSH1 0x20 DUP3 ADD SWAP1 POP SWAP2 SWAP1 POP JUMP JUMPDEST PUSH1 0x0 PUSH1 0x20 DUP3 ADD SWAP1 POP DUP2 DUP2 SUB PUSH1 0x0 DUP4 ADD MSTORE PUSH2 0x2124 DUP2 PUSH2 0x20E8 JUMP JUMPDEST SWAP1 POP SWAP2 SWAP1 POP JUMP JUMPDEST PUSH32 0x4F6E6C792077696E6E696E67207465616D206D656D626572732063616E206265 PUSH1 0x0 DUP3 ADD MSTORE PUSH32 0x20617070726F7665640000000000000000000000000000000000000000000000 PUSH1 0x20 DUP3 ADD MSTORE POP JUMP JUMPDEST PUSH1 0x0 PUSH2 0x2187 PUSH1 0x29 DUP4 PUSH2 0x147E JUMP JUMPDEST SWAP2 POP PUSH2 0x2192 DUP3 PUSH2 0x212B JUMP JUMPDEST PUSH1 0x40 DUP3 ADD SWAP1 POP SWAP2 SWAP1 POP JUMP JUMPDEST PUSH1 0x0 PUSH1 0x20 DUP3 ADD SWAP1 POP DUP2 DUP2 SUB PUSH1 0x0 DUP4 ADD MSTORE PUSH2 0x21B6 DUP2 PUSH2 0x217A JUMP JUMPDEST SWAP1 POP SWAP2 SWAP1 POP JUMP JUMPDEST PUSH32 0x6465626974656400000000000000000000000000000000000000000000000000 PUSH1 0x0 DUP3 ADD MSTORE POP JUMP JUMPDEST PUSH1 0x0 PUSH2 0x21F3 PUSH1 0x7 DUP4 PUSH2 0x1CBF JUMP JUMPDEST SWAP2 POP PUSH2 0x21FE DUP3 PUSH2 0x21BD JUMP JUMPDEST PUSH1 0x7 DUP3 ADD SWAP1 POP SWAP2 SWAP1 POP JUMP JUMPDEST PUSH1 0x0 PUSH2 0x2214 DUP3 PUSH2 0x21E6 JUMP JUMPDEST SWAP2 POP DUP2 SWAP1 POP SWAP2 SWAP1 POP JUMP JUMPDEST PUSH32 0x72656A6563746564000000000000000000000000000000000000000000000000 PUSH1 0x0 DUP3 ADD MSTORE POP JUMP JUMPDEST PUSH1 0x0 PUSH2 0x2254 PUSH1 0x8 DUP4 PUSH2 0x1CBF JUMP JUMPDEST SWAP2 POP PUSH2 0x225F DUP3 PUSH2 0x221E JUMP JUMPDEST PUSH1 0x8 DUP3 ADD SWAP1 POP SWAP2 SWAP1 POP JUMP JUMPDEST PUSH1 0x0 PUSH2 0x2275 DUP3 PUSH2 0x2247 JUMP JUMPDEST SWAP2 POP DUP2 SWAP1 POP SWAP2 SWAP1 POP JUMP JUMPDEST PUSH32 0x5472616E73616374696F6E2063616E6E6F742062652070726F63657373656400 PUSH1 0x0 DUP3 ADD MSTORE POP JUMP JUMPDEST PUSH1 0x0 PUSH2 0x22B5 PUSH1 0x1F DUP4 PUSH2 0x147E JUMP JUMPDEST SWAP2 POP PUSH2 0x22C0 DUP3 PUSH2 0x227F JUMP JUMPDEST PUSH1 0x20 DUP3 ADD SWAP1 POP SWAP2 SWAP1 POP JUMP JUMPDEST PUSH1 0x0 PUSH1 0x20 DUP3 ADD SWAP1 POP DUP2 DUP2 SUB PUSH1 0x0 DUP4 ADD MSTORE PUSH2 0x22E4 DUP2 PUSH2 0x22A8 JUMP JUMPDEST SWAP1 POP SWAP2 SWAP1 POP JUMP JUMPDEST PUSH1 0x0 PUSH2 0x22F6 DUP3 PUSH2 0x1379 JUMP JUMPDEST SWAP2 POP PUSH2 0x2301 DUP4 PUSH2 0x1379 JUMP JUMPDEST SWAP3 POP DUP3 DUP3 SUB SWAP1 POP DUP2 DUP2 GT ISZERO PUSH2 0x2319 JUMPI PUSH2 0x2318 PUSH2 0x18D8 JUMP JUMPDEST JUMPDEST SWAP3 SWAP2 POP POP JUMP JUMPDEST PUSH32 0x5472616E73616374696F6E20697320616C726561647920617070726F76656400 PUSH1 0x0 DUP3 ADD MSTORE POP JUMP JUMPDEST PUSH1 0x0 PUSH2 0x2355 PUSH1 0x1F DUP4 PUSH2 0x147E JUMP JUMPDEST SWAP2 POP PUSH2 0x2360 DUP3 PUSH2 0x231F JUMP JUMPDEST PUSH1 0x20 DUP3 ADD SWAP1 POP SWAP2 SWAP1 POP JUMP JUMPDEST PUSH1 0x0 PUSH1 0x20 DUP3 ADD SWAP1 POP DUP2 DUP2 SUB PUSH1 0x0 DUP4 ADD MSTORE PUSH2 0x2384 DUP2 PUSH2 0x2348 JUMP JUMPDEST SWAP1 POP SWAP2 SWAP1 POP JUMP INVALID LOG2 PUSH5 0x6970667358 0x22 SLT KECCAK256 SSTORE SWAP11 0xE2 0x4C CODESIZE 0xF MLOAD PUSH6 0x34F0AD49C774 0xC2 EQ SELFBALANCE PUSH25 0x5455E06F7C551835F2AB381F0EDB64736F6C63430008120033 "
				},
				"gasEstimates": {
					"creation": {
						"codeDepositCost": "1830600",
						"executionCost": "50516",
						"totalCost": "1881116"
					},
					"external": {
						"approve(uint256)": "infinite",
						"credits()": "2460",
						"deployer()": "2621",
						"reject(uint256)": "infinite",
						"setWallet(address[],uint256)": "infinite",
						"spend(uint256)": "infinite",
						"totalCredits()": "2451",
						"transactionStats()": "infinite",
						"transactions(uint256)": "infinite",
						"viewTransaction(uint256)": "infinite",
						"walletSet()": "2588",
						"winningMembers(uint256)": "5044"
					}
				},
				"methodIdentifiers": {
					"approve(uint256)": "b759f954",
					"credits()": "26540fd2",
					"deployer()": "d5f39488",
					"reject(uint256)": "b8adaa11",
					"setWallet(address[],uint256)": "9c86836b",
					"spend(uint256)": "1dbf3bc7",
					"totalCredits()": "b5bd3eb9",
					"transactionStats()": "301c10a4",
					"transactions(uint256)": "9ace38c2",
					"viewTransaction(uint256)": "8916d12c",
					"walletSet()": "72f6bdd9",
					"winningMembers(uint256)": "ca31ef54"
				}
			},
			"storageLayout": {
				"storage": [
					{
						"astId": 3,
						"contract": "contracts/ManageFund.sol:TeamWallet",
						"label": "deployer",
						"offset": 0,
						"slot": "0",
						"type": "t_address"
					},
					{
						"astId": 6,
						"contract": "contracts/ManageFund.sol:TeamWallet",
						"label": "walletSet",
						"offset": 20,
						"slot": "0",
						"type": "t_bool"
					},
					{
						"astId": 9,
						"contract": "contracts/ManageFund.sol:TeamWallet",
						"label": "winningMembers",
						"offset": 0,
						"slot": "1",
						"type": "t_array(t_address)dyn_storage"
					},
					{
						"astId": 11,
						"contract": "contracts/ManageFund.sol:TeamWallet",
						"label": "totalCredits",
						"offset": 0,
						"slot": "2",
						"type": "t_uint256"
					},
					{
						"astId": 24,
						"contract": "contracts/ManageFund.sol:TeamWallet",
						"label": "transactions",
						"offset": 0,
						"slot": "3",
						"type": "t_array(t_struct(Transaction)20_storage)dyn_storage"
					}
				],
				"types": {
					"t_address": {
						"encoding": "inplace",
						"label": "address",
						"numberOfBytes": "20"
					},
					"t_array(t_address)dyn_storage": {
						"base": "t_address",
						"encoding": "dynamic_array",
						"label": "address[]",
						"numberOfBytes": "32"
					},
					"t_array(t_struct(Transaction)20_storage)dyn_storage": {
						"base": "t_struct(Transaction)20_storage",
						"encoding": "dynamic_array",
						"label": "struct TeamWallet.Transaction[]",
						"numberOfBytes": "32"
					},
					"t_bool": {
						"encoding": "inplace",
						"label": "bool",
						"numberOfBytes": "1"
					},
					"t_string_storage": {
						"encoding": "bytes",
						"label": "string",
						"numberOfBytes": "32"
					},
					"t_struct(Transaction)20_storage": {
						"encoding": "inplace",
						"label": "struct TeamWallet.Transaction",
						"members": [
							{
								"astId": 13,
								"contract": "contracts/ManageFund.sol:TeamWallet",
								"label": "sender",
								"offset": 0,
								"slot": "0",
								"type": "t_address"
							},
							{
								"astId": 15,
								"contract": "contracts/ManageFund.sol:TeamWallet",
								"label": "amount",
								"offset": 0,
								"slot": "1",
								"type": "t_uint256"
							},
							{
								"astId": 17,
								"contract": "contracts/ManageFund.sol:TeamWallet",
								"label": "approved",
								"offset": 0,
								"slot": "2",
								"type": "t_bool"
							},
							{
								"astId": 19,
								"contract": "contracts/ManageFund.sol:TeamWallet",
								"label": "approvalStatus",
								"offset": 0,
								"slot": "3",
								"type": "t_string_storage"
							}
						],
						"numberOfBytes": "128"
					},
					"t_uint256": {
						"encoding": "inplace",
						"label": "uint256",
						"numberOfBytes": "32"
					}
				}
			},
			"userdoc": {
				"kind": "user",
				"methods": {},
				"version": 1
			}
		}
	}
}